{
  "_format": "hh-sol-artifact-1",
  "contractName": "RBTInterestVault",
  "sourceName": "contracts/rbt/RBTInterestVault.sol",
  "abi": [
    {
      "inputs": [
        {
          "internalType": "address",
          "name": "asset_",
          "type": "address"
        },
        {
          "internalType": "address",
          "name": "wft_",
          "type": "address"
        },
        {
          "internalType": "address",
          "name": "admin",
          "type": "address"
        }
      ],
      "stateMutability": "nonpayable",
      "type": "constructor"
    },
    {
      "inputs": [],
      "name": "AccessControlBadConfirmation",
      "type": "error"
    },
    {
      "inputs": [
        {
          "internalType": "address",
          "name": "account",
          "type": "address"
        },
        {
          "internalType": "bytes32",
          "name": "neededRole",
          "type": "bytes32"
        }
      ],
      "name": "AccessControlUnauthorizedAccount",
      "type": "error"
    },
    {
      "inputs": [],
      "name": "EnforcedPause",
      "type": "error"
    },
    {
      "inputs": [],
      "name": "ExpectedPause",
      "type": "error"
    },
    {
      "inputs": [],
      "name": "InvalidConfig",
      "type": "error"
    },
    {
      "inputs": [],
      "name": "NotAsset",
      "type": "error"
    },
    {
      "inputs": [],
      "name": "ReentrancyGuardReentrantCall",
      "type": "error"
    },
    {
      "inputs": [],
      "name": "SeriesNotEnabled",
      "type": "error"
    },
    {
      "anonymous": false,
      "inputs": [
        {
          "indexed": true,
          "internalType": "address",
          "name": "account",
          "type": "address"
        },
        {
          "indexed": true,
          "internalType": "uint256",
          "name": "tokenId",
          "type": "uint256"
        },
        {
          "indexed": false,
          "internalType": "uint256",
          "name": "added",
          "type": "uint256"
        },
        {
          "indexed": false,
          "internalType": "uint64",
          "name": "fromTs",
          "type": "uint64"
        },
        {
          "indexed": false,
          "internalType": "uint64",
          "name": "toTs",
          "type": "uint64"
        }
      ],
      "name": "Accrued",
      "type": "event"
    },
    {
      "anonymous": false,
      "inputs": [
        {
          "indexed": false,
          "internalType": "uint256",
          "name": "aprBps",
          "type": "uint256"
        }
      ],
      "name": "AprUpdated",
      "type": "event"
    },
    {
      "anonymous": false,
      "inputs": [
        {
          "indexed": true,
          "internalType": "address",
          "name": "account",
          "type": "address"
        },
        {
          "indexed": true,
          "internalType": "uint256",
          "name": "tokenId",
          "type": "uint256"
        },
        {
          "indexed": false,
          "internalType": "uint256",
          "name": "amount",
          "type": "uint256"
        }
      ],
      "name": "Claimed",
      "type": "event"
    },
    {
      "anonymous": false,
      "inputs": [
        {
          "indexed": false,
          "internalType": "address",
          "name": "account",
          "type": "address"
        }
      ],
      "name": "Paused",
      "type": "event"
    },
    {
      "anonymous": false,
      "inputs": [
        {
          "indexed": false,
          "internalType": "uint256",
          "name": "rateMultiplier",
          "type": "uint256"
        }
      ],
      "name": "RateMultiplierUpdated",
      "type": "event"
    },
    {
      "anonymous": false,
      "inputs": [
        {
          "indexed": true,
          "internalType": "bytes32",
          "name": "role",
          "type": "bytes32"
        },
        {
          "indexed": true,
          "internalType": "bytes32",
          "name": "previousAdminRole",
          "type": "bytes32"
        },
        {
          "indexed": true,
          "internalType": "bytes32",
          "name": "newAdminRole",
          "type": "bytes32"
        }
      ],
      "name": "RoleAdminChanged",
      "type": "event"
    },
    {
      "anonymous": false,
      "inputs": [
        {
          "indexed": true,
          "internalType": "bytes32",
          "name": "role",
          "type": "bytes32"
        },
        {
          "indexed": true,
          "internalType": "address",
          "name": "account",
          "type": "address"
        },
        {
          "indexed": true,
          "internalType": "address",
          "name": "sender",
          "type": "address"
        }
      ],
      "name": "RoleGranted",
      "type": "event"
    },
    {
      "anonymous": false,
      "inputs": [
        {
          "indexed": true,
          "internalType": "bytes32",
          "name": "role",
          "type": "bytes32"
        },
        {
          "indexed": true,
          "internalType": "address",
          "name": "account",
          "type": "address"
        },
        {
          "indexed": true,
          "internalType": "address",
          "name": "sender",
          "type": "address"
        }
      ],
      "name": "RoleRevoked",
      "type": "event"
    },
    {
      "anonymous": false,
      "inputs": [
        {
          "indexed": true,
          "internalType": "uint256",
          "name": "tokenId",
          "type": "uint256"
        },
        {
          "indexed": false,
          "internalType": "uint256",
          "name": "unitPriceWei",
          "type": "uint256"
        },
        {
          "indexed": false,
          "internalType": "bool",
          "name": "enabled",
          "type": "bool"
        }
      ],
      "name": "SeriesConfigured",
      "type": "event"
    },
    {
      "anonymous": false,
      "inputs": [
        {
          "indexed": false,
          "internalType": "address",
          "name": "account",
          "type": "address"
        }
      ],
      "name": "Unpaused",
      "type": "event"
    },
    {
      "inputs": [],
      "name": "BPS",
      "outputs": [
        {
          "internalType": "uint256",
          "name": "",
          "type": "uint256"
        }
      ],
      "stateMutability": "view",
      "type": "function"
    },
    {
      "inputs": [],
      "name": "DEFAULT_ADMIN_ROLE",
      "outputs": [
        {
          "internalType": "bytes32",
          "name": "",
          "type": "bytes32"
        }
      ],
      "stateMutability": "view",
      "type": "function"
    },
    {
      "inputs": [],
      "name": "OPERATOR_ROLE",
      "outputs": [
        {
          "internalType": "bytes32",
          "name": "",
          "type": "bytes32"
        }
      ],
      "stateMutability": "view",
      "type": "function"
    },
    {
      "inputs": [],
      "name": "YEAR_SECONDS",
      "outputs": [
        {
          "internalType": "uint256",
          "name": "",
          "type": "uint256"
        }
      ],
      "stateMutability": "view",
      "type": "function"
    },
    {
      "inputs": [
        {
          "internalType": "uint256",
          "name": "tokenId",
          "type": "uint256"
        }
      ],
      "name": "accrue",
      "outputs": [],
      "stateMutability": "nonpayable",
      "type": "function"
    },
    {
      "inputs": [
        {
          "internalType": "address",
          "name": "account",
          "type": "address"
        },
        {
          "internalType": "uint256",
          "name": "tokenId",
          "type": "uint256"
        },
        {
          "internalType": "uint256",
          "name": "balanceBefore",
          "type": "uint256"
        }
      ],
      "name": "accrueFromAsset",
      "outputs": [],
      "stateMutability": "nonpayable",
      "type": "function"
    },
    {
      "inputs": [
        {
          "internalType": "uint256",
          "name": "",
          "type": "uint256"
        },
        {
          "internalType": "address",
          "name": "",
          "type": "address"
        }
      ],
      "name": "accrued",
      "outputs": [
        {
          "internalType": "uint256",
          "name": "",
          "type": "uint256"
        }
      ],
      "stateMutability": "view",
      "type": "function"
    },
    {
      "inputs": [],
      "name": "aprBps",
      "outputs": [
        {
          "internalType": "uint256",
          "name": "",
          "type": "uint256"
        }
      ],
      "stateMutability": "view",
      "type": "function"
    },
    {
      "inputs": [],
      "name": "asset",
      "outputs": [
        {
          "internalType": "address",
          "name": "",
          "type": "address"
        }
      ],
      "stateMutability": "view",
      "type": "function"
    },
    {
      "inputs": [
        {
          "internalType": "uint256",
          "name": "tokenId",
          "type": "uint256"
        }
      ],
      "name": "claim",
      "outputs": [],
      "stateMutability": "nonpayable",
      "type": "function"
    },
    {
      "inputs": [
        {
          "internalType": "uint256",
          "name": "tokenId",
          "type": "uint256"
        },
        {
          "internalType": "address",
          "name": "account",
          "type": "address"
        }
      ],
      "name": "claimable",
      "outputs": [
        {
          "internalType": "uint256",
          "name": "",
          "type": "uint256"
        }
      ],
      "stateMutability": "view",
      "type": "function"
    },
    {
      "inputs": [
        {
          "internalType": "uint256",
          "name": "tokenId",
          "type": "uint256"
        },
        {
          "internalType": "uint256",
          "name": "unitPriceWei",
          "type": "uint256"
        },
        {
          "internalType": "bool",
          "name": "enabled",
          "type": "bool"
        }
      ],
      "name": "configureSeries",
      "outputs": [],
      "stateMutability": "nonpayable",
      "type": "function"
    },
    {
      "inputs": [
        {
          "internalType": "bytes32",
          "name": "role",
          "type": "bytes32"
        }
      ],
      "name": "getRoleAdmin",
      "outputs": [
        {
          "internalType": "bytes32",
          "name": "",
          "type": "bytes32"
        }
      ],
      "stateMutability": "view",
      "type": "function"
    },
    {
      "inputs": [
        {
          "internalType": "bytes32",
          "name": "role",
          "type": "bytes32"
        },
        {
          "internalType": "address",
          "name": "account",
          "type": "address"
        }
      ],
      "name": "grantRole",
      "outputs": [],
      "stateMutability": "nonpayable",
      "type": "function"
    },
    {
      "inputs": [
        {
          "internalType": "bytes32",
          "name": "role",
          "type": "bytes32"
        },
        {
          "internalType": "address",
          "name": "account",
          "type": "address"
        }
      ],
      "name": "hasRole",
      "outputs": [
        {
          "internalType": "bool",
          "name": "",
          "type": "bool"
        }
      ],
      "stateMutability": "view",
      "type": "function"
    },
    {
      "inputs": [
        {
          "internalType": "uint256",
          "name": "",
          "type": "uint256"
        },
        {
          "internalType": "address",
          "name": "",
          "type": "address"
        }
      ],
      "name": "lastAccruedAt",
      "outputs": [
        {
          "internalType": "uint64",
          "name": "",
          "type": "uint64"
        }
      ],
      "stateMutability": "view",
      "type": "function"
    },
    {
      "inputs": [],
      "name": "pause",
      "outputs": [],
      "stateMutability": "nonpayable",
      "type": "function"
    },
    {
      "inputs": [],
      "name": "paused",
      "outputs": [
        {
          "internalType": "bool",
          "name": "",
          "type": "bool"
        }
      ],
      "stateMutability": "view",
      "type": "function"
    },
    {
      "inputs": [],
      "name": "rateMultiplier",
      "outputs": [
        {
          "internalType": "uint256",
          "name": "",
          "type": "uint256"
        }
      ],
      "stateMutability": "view",
      "type": "function"
    },
    {
      "inputs": [
        {
          "internalType": "bytes32",
          "name": "role",
          "type": "bytes32"
        },
        {
          "internalType": "address",
          "name": "callerConfirmation",
          "type": "address"
        }
      ],
      "name": "renounceRole",
      "outputs": [],
      "stateMutability": "nonpayable",
      "type": "function"
    },
    {
      "inputs": [
        {
          "internalType": "bytes32",
          "name": "role",
          "type": "bytes32"
        },
        {
          "internalType": "address",
          "name": "account",
          "type": "address"
        }
      ],
      "name": "revokeRole",
      "outputs": [],
      "stateMutability": "nonpayable",
      "type": "function"
    },
    {
      "inputs": [
        {
          "internalType": "uint256",
          "name": "",
          "type": "uint256"
        }
      ],
      "name": "seriesEnabled",
      "outputs": [
        {
          "internalType": "bool",
          "name": "",
          "type": "bool"
        }
      ],
      "stateMutability": "view",
      "type": "function"
    },
    {
      "inputs": [
        {
          "internalType": "uint256",
          "name": "newAprBps",
          "type": "uint256"
        }
      ],
      "name": "setAprBps",
      "outputs": [],
      "stateMutability": "nonpayable",
      "type": "function"
    },
    {
      "inputs": [
        {
          "internalType": "uint256",
          "name": "m",
          "type": "uint256"
        }
      ],
      "name": "setRateMultiplier",
      "outputs": [],
      "stateMutability": "nonpayable",
      "type": "function"
    },
    {
      "inputs": [
        {
          "internalType": "bytes4",
          "name": "interfaceId",
          "type": "bytes4"
        }
      ],
      "name": "supportsInterface",
      "outputs": [
        {
          "internalType": "bool",
          "name": "",
          "type": "bool"
        }
      ],
      "stateMutability": "view",
      "type": "function"
    },
    {
      "inputs": [
        {
          "internalType": "uint256",
          "name": "",
          "type": "uint256"
        }
      ],
      "name": "unitPriceWeiByTokenId",
      "outputs": [
        {
          "internalType": "uint256",
          "name": "",
          "type": "uint256"
        }
      ],
      "stateMutability": "view",
      "type": "function"
    },
    {
      "inputs": [],
      "name": "unpause",
      "outputs": [],
      "stateMutability": "nonpayable",
      "type": "function"
    },
    {
      "inputs": [],
      "name": "wft",
      "outputs": [
        {
          "internalType": "contract IWFTMinter",
          "name": "",
          "type": "address"
        }
      ],
      "stateMutability": "view",
      "type": "function"
    }
  ],
  "bytecode": "0x60c06040523480156200001157600080fd5b506040516200158c3803806200158c8339810160408190526200003491620001da565b60016002556001600160a01b038316158015906200005a57506001600160a01b03821615155b80156200006f57506001600160a01b03811615155b620000ac5760405162461bcd60e51b81526020600482015260096024820152683d32b9379030b2323960b91b604482015260640160405180910390fd5b6001600160a01b03808416608052821660a0526103e86003556001600455620000d76000826200010e565b50620001047f97667070c54ef182b0f5858b034beac1b6f3089aa2d3188bb1e8929f4fa9b929826200010e565b5050505062000224565b6000828152602081815260408083206001600160a01b038516845290915281205460ff16620001b3576000838152602081815260408083206001600160a01b03861684529091529020805460ff191660011790556200016a3390565b6001600160a01b0316826001600160a01b0316847f2f8788117e7eff1d82e926ec794901d17c78024a50270940304540a733656f0d60405160405180910390a4506001620001b7565b5060005b92915050565b80516001600160a01b0381168114620001d557600080fd5b919050565b600080600060608486031215620001f057600080fd5b620001fb84620001bd565b92506200020b60208501620001bd565b91506200021b60408501620001bd565b90509250925092565b60805160a05161131f6200026d600039600081816103d8015261072b0152600081816102900152818161060a01528181610813015281816108e90152610a81015261131f6000f3fe608060405234801561001057600080fd5b50600436106101c45760003560e01c80638456cb59116100f9578063b012251411610097578063c06e9be211610071578063c06e9be214610418578063c872457b1461042b578063d547741f1461044b578063f5b541a61461045e57600080fd5b8063b0122514146103d3578063b330db28146103fa578063bbd71b581461040557600080fd5b80639e216a32116100d35780639e216a3214610359578063a0c7f71c146103a5578063a217fddf146103b8578063ab7a2252146103c057600080fd5b80638456cb591461031357806391d148541461031b5780639a157e3d1461032e57600080fd5b806336568abe116101665780633f4ba83a116101405780633f4ba83a146102ca5780635c975abb146102d257806370b54c0a146102dd578063744f4cf61461030057600080fd5b806336568abe14610265578063379607f51461027857806338d52e0f1461028b57600080fd5b8063249d39e9116101a2578063249d39e91461023757806325ac1df2146102405780632f2ff15d14610249578063330691ac1461025c57600080fd5b806301ffc9a7146101c957806318794931146101f1578063248a9ca314610206575b600080fd5b6101dc6101d7366004611118565b610473565b60405190151581526020015b60405180910390f35b6102046101ff366004611142565b6104aa565b005b610229610214366004611180565b60009081526020819052604090206001015490565b6040519081526020016101e8565b61022961271081565b61022960035481565b6102046102573660046111b5565b61054a565b61022960045481565b6102046102733660046111b5565b610575565b610204610286366004611180565b6105ad565b6102b27f000000000000000000000000000000000000000000000000000000000000000081565b6040516001600160a01b0390911681526020016101e8565b6102046107cd565b60015460ff166101dc565b6101dc6102eb366004611180565b60066020526000908152604090205460ff1681565b61020461030e366004611180565b6107ed565b610204610896565b6101dc6103293660046111b5565b6108b6565b61022961033c3660046111b5565b600760209081526000928352604080842090915290825290205481565b61038d6103673660046111b5565b60086020908152600092835260408084209091529082529020546001600160401b031681565b6040516001600160401b0390911681526020016101e8565b6102296103b33660046111b5565b6108df565b610229600081565b6102046103ce366004611180565b6109c7565b6102b27f000000000000000000000000000000000000000000000000000000000000000081565b6102296301e1338081565b6102046104133660046111e1565b610a6e565b610204610426366004611180565b610aca565b610229610439366004611180565b60056020526000908152604090205481565b6102046104593660046111b5565b610b58565b6102296000805160206112ca83398151915281565b60006001600160e01b03198216637965db0b60e01b14806104a457506301ffc9a760e01b6001600160e01b03198316145b92915050565b6000805160206112ca8339815191526104c281610b7d565b826000036104e3576040516306b7c75960e31b815260040160405180910390fd5b60008481526005602090815260408083208690556006825291829020805460ff191685151590811790915582518681529182015285917f72439830b40820b53dd72dbaf20cc72e85396af1e22d8b1528f0c775633b3c8a910160405180910390a250505050565b60008281526020819052604090206001015461056581610b7d565b61056f8383610b87565b50505050565b6001600160a01b038116331461059e5760405163334bd91960e11b815260040160405180910390fd5b6105a88282610c19565b505050565b6105b5610c84565b6105bd610cac565b60008181526006602052604090205460ff166105ec5760405163248bef1d60e11b815260040160405180910390fd5b604051627eeac760e11b8152336004820152602481018290526000907f00000000000000000000000000000000000000000000000000000000000000006001600160a01b03169062fdd58e90604401602060405180830381865afa158015610658573d6000803e3d6000fd5b505050506040513d601f19601f8201168201806040525081019061067c9190611214565b9050610689823383610cd2565b6000828152600760209081526040808320338452909152902054806106e85760405162461bcd60e51b815260206004820152601060248201526f6e6f7468696e6720746f20636c61696d60801b60448201526064015b60405180910390fd5b60008381526007602090815260408083203380855292528083209290925590516340c10f1960e01b81526004810191909152602481018290526001600160a01b037f000000000000000000000000000000000000000000000000000000000000000016906340c10f1990604401600060405180830381600087803b15801561076f57600080fd5b505af1158015610783573d6000803e3d6000fd5b50506040518381528592503391507f987d620f307ff6b94d58743cb7a7509f24071586a77759b77c2d4e29f75a2f9a9060200160405180910390a350506107ca6001600255565b50565b6000805160206112ca8339815191526107e581610b7d565b6107ca610f0c565b6107f5610cac565b604051627eeac760e11b8152336004820152602481018290526000907f00000000000000000000000000000000000000000000000000000000000000006001600160a01b03169062fdd58e90604401602060405180830381865afa158015610861573d6000803e3d6000fd5b505050506040513d601f19601f820116820180604052508101906108859190611214565b9050610892823383610cd2565b5050565b6000805160206112ca8339815191526108ae81610b7d565b6107ca610f5e565b6000918252602082815260408084206001600160a01b0393909316845291905290205460ff1690565b60008061098e84847f00000000000000000000000000000000000000000000000000000000000000006001600160a01b031662fdd58e87896040518363ffffffff1660e01b81526004016109489291906001600160a01b03929092168252602082015260400190565b602060405180830381865afa158015610965573d6000803e3d6000fd5b505050506040513d601f19601f820116820180604052508101906109899190611214565b610f99565b60008581526007602090815260408083206001600160a01b03881684529091529020549091506109bf908290611243565b949350505050565b6000805160206112ca8339815191526109df81610b7d565b600182101580156109f45750633b9aca008211155b610a315760405162461bcd60e51b815260206004820152600e60248201526d3130b21036bab63a34b83634b2b960911b60448201526064016106df565b60048290556040518281527fbf084b0c270e6c8067414189091fb5d4af24e72945fb351280632402ee2188bc906020015b60405180910390a15050565b610a76610cac565b336001600160a01b037f00000000000000000000000000000000000000000000000000000000000000001614610abf57604051637883d19d60e01b815260040160405180910390fd5b6105a8828483610cd2565b6000805160206112ca833981519152610ae281610b7d565b612710821115610b235760405162461bcd60e51b815260206004820152600c60248201526b0c2e0e440e8dede40d0d2ced60a31b60448201526064016106df565b60038290556040518281527f16bc525116a7ec45cf36d84a97ab6b444a8c5264cc1a9468bfae78613156111590602001610a62565b600082815260208190526040902060010154610b7381610b7d565b61056f8383610c19565b6107ca8133611023565b6000610b9383836108b6565b610c11576000838152602081815260408083206001600160a01b03861684529091529020805460ff19166001179055610bc93390565b6001600160a01b0316826001600160a01b0316847f2f8788117e7eff1d82e926ec794901d17c78024a50270940304540a733656f0d60405160405180910390a45060016104a4565b5060006104a4565b6000610c2583836108b6565b15610c11576000838152602081815260408083206001600160a01b0386168085529252808320805460ff1916905551339286917ff6391f5c32d9c69d2a47ea670b442974b53935d1edc7fd64eb21e047a839171b9190a45060016104a4565b6002805403610ca657604051633ee5aeb560e01b815260040160405180910390fd5b60028055565b60015460ff1615610cd05760405163d93c066560e01b815260040160405180910390fd5b565b6001600160a01b038216610ce557505050565b60008381526006602052604090205460ff16610d6e5760008381526008602090815260408083206001600160a01b03861684529091528120546001600160401b031690036105a8575060009182526008602090815260408084206001600160a01b039390931684529190529020805467ffffffffffffffff1916426001600160401b0316179055565b60008381526008602090815260408083206001600160a01b03861684529091528120546001600160401b0316904290829003610ded5760009485526008602090815260408087206001600160a01b0396909616875294905292909320805467ffffffffffffffff19166001600160401b03909316929092179091555050565b816001600160401b0316816001600160401b031611610e0d575050505050565b6000610e2c8685610e1e8686611256565b6001600160401b031661105c565b90508015610ec25760008681526007602090815260408083206001600160a01b038916845290915281208054839290610e66908490611243565b9091555050604080518281526001600160401b038581166020830152841681830152905187916001600160a01b038816917f911dcdcee83dd2d754cdca9531e952c6fe163d3b6558324822491347cfc245279181900360600190a35b5060009485526008602090815260408087206001600160a01b0396909616875294905292909320805467ffffffffffffffff19166001600160401b03909316929092179091555050565b610f146110f5565b6001805460ff191690557f5db9ee0a495bf2e6ff9c91a7834c1ba4fdd244a5e8aa4e537bd38aeae4b073aa335b6040516001600160a01b03909116815260200160405180910390a1565b610f66610cac565b6001805460ff1916811790557f62e78cea01bee320cd4e420270b5ea74000d11b0c9f74754ebdbfc544b05a25833610f41565b60008381526006602052604081205460ff16610fb75750600061101c565b60008481526008602090815260408083206001600160a01b03871684529091528120546001600160401b031690819003610ff557600091505061101c565b600061100a6001600160401b0383164261127d565b905061101786858361105c565b925050505b9392505050565b61102d82826108b6565b6108925760405163e2517d3f60e01b81526001600160a01b0382166004820152602481018390526044016106df565b6000821580611069575081155b156110765750600061101c565b6000848152600560205260408120549081900361109757600091505061101c565b60006110a38286611290565b90506000600454856110b59190611290565b90506110c76301e13380612710611290565b81600354846110d69190611290565b6110e09190611290565b6110ea91906112a7565b979650505050505050565b60015460ff16610cd057604051638dfc202b60e01b815260040160405180910390fd5b60006020828403121561112a57600080fd5b81356001600160e01b03198116811461101c57600080fd5b60008060006060848603121561115757600080fd5b83359250602084013591506040840135801515811461117557600080fd5b809150509250925092565b60006020828403121561119257600080fd5b5035919050565b80356001600160a01b03811681146111b057600080fd5b919050565b600080604083850312156111c857600080fd5b823591506111d860208401611199565b90509250929050565b6000806000606084860312156111f657600080fd5b6111ff84611199565b95602085013595506040909401359392505050565b60006020828403121561122657600080fd5b5051919050565b634e487b7160e01b600052601160045260246000fd5b808201808211156104a4576104a461122d565b6001600160401b038281168282160390808211156112765761127661122d565b5092915050565b818103818111156104a4576104a461122d565b80820281158282048414176104a4576104a461122d565b6000826112c457634e487b7160e01b600052601260045260246000fd5b50049056fe97667070c54ef182b0f5858b034beac1b6f3089aa2d3188bb1e8929f4fa9b929a2646970667358221220bccb24c9ee3b6c29bbe4f74d6efdd32316a2bde325f03cbace5a65992644209664736f6c63430008180033",
  "linkReferences": {},
  "deployedLinkReferences": {}
}