{
  "_format": "hh-sol-artifact-1",
  "contractName": "RBTInterestVault",
  "sourceName": "contracts/rbt/RBTInterestVault.sol",
  "abi": [
    {
      "inputs": [
        {
          "internalType": "address",
          "name": "asset_",
          "type": "address"
        },
        {
          "internalType": "address",
          "name": "rewardToken_",
          "type": "address"
        },
        {
          "internalType": "address",
          "name": "admin",
          "type": "address"
        }
      ],
      "stateMutability": "nonpayable",
      "type": "constructor"
    },
    {
      "inputs": [],
      "name": "AccessControlBadConfirmation",
      "type": "error"
    },
    {
      "inputs": [
        {
          "internalType": "address",
          "name": "account",
          "type": "address"
        },
        {
          "internalType": "bytes32",
          "name": "neededRole",
          "type": "bytes32"
        }
      ],
      "name": "AccessControlUnauthorizedAccount",
      "type": "error"
    },
    {
      "inputs": [],
      "name": "EnforcedPause",
      "type": "error"
    },
    {
      "inputs": [],
      "name": "ExpectedPause",
      "type": "error"
    },
    {
      "inputs": [],
      "name": "InvalidConfig",
      "type": "error"
    },
    {
      "inputs": [],
      "name": "NotAsset",
      "type": "error"
    },
    {
      "inputs": [],
      "name": "ReentrancyGuardReentrantCall",
      "type": "error"
    },
    {
      "inputs": [
        {
          "internalType": "address",
          "name": "token",
          "type": "address"
        }
      ],
      "name": "SafeERC20FailedOperation",
      "type": "error"
    },
    {
      "inputs": [],
      "name": "SeriesNotEnabled",
      "type": "error"
    },
    {
      "anonymous": false,
      "inputs": [
        {
          "indexed": true,
          "internalType": "address",
          "name": "account",
          "type": "address"
        },
        {
          "indexed": true,
          "internalType": "uint256",
          "name": "tokenId",
          "type": "uint256"
        },
        {
          "indexed": false,
          "internalType": "uint256",
          "name": "added",
          "type": "uint256"
        },
        {
          "indexed": false,
          "internalType": "uint64",
          "name": "fromTs",
          "type": "uint64"
        },
        {
          "indexed": false,
          "internalType": "uint64",
          "name": "toTs",
          "type": "uint64"
        }
      ],
      "name": "Accrued",
      "type": "event"
    },
    {
      "anonymous": false,
      "inputs": [
        {
          "indexed": false,
          "internalType": "uint256",
          "name": "aprBps",
          "type": "uint256"
        }
      ],
      "name": "AprUpdated",
      "type": "event"
    },
    {
      "anonymous": false,
      "inputs": [
        {
          "indexed": true,
          "internalType": "address",
          "name": "account",
          "type": "address"
        },
        {
          "indexed": true,
          "internalType": "uint256",
          "name": "tokenId",
          "type": "uint256"
        },
        {
          "indexed": false,
          "internalType": "uint256",
          "name": "amount",
          "type": "uint256"
        }
      ],
      "name": "Claimed",
      "type": "event"
    },
    {
      "anonymous": false,
      "inputs": [
        {
          "indexed": true,
          "internalType": "address",
          "name": "from",
          "type": "address"
        },
        {
          "indexed": false,
          "internalType": "uint256",
          "name": "amount",
          "type": "uint256"
        }
      ],
      "name": "Funded",
      "type": "event"
    },
    {
      "anonymous": false,
      "inputs": [
        {
          "indexed": false,
          "internalType": "address",
          "name": "account",
          "type": "address"
        }
      ],
      "name": "Paused",
      "type": "event"
    },
    {
      "anonymous": false,
      "inputs": [
        {
          "indexed": false,
          "internalType": "uint256",
          "name": "rateMultiplier",
          "type": "uint256"
        }
      ],
      "name": "RateMultiplierUpdated",
      "type": "event"
    },
    {
      "anonymous": false,
      "inputs": [
        {
          "indexed": true,
          "internalType": "bytes32",
          "name": "role",
          "type": "bytes32"
        },
        {
          "indexed": true,
          "internalType": "bytes32",
          "name": "previousAdminRole",
          "type": "bytes32"
        },
        {
          "indexed": true,
          "internalType": "bytes32",
          "name": "newAdminRole",
          "type": "bytes32"
        }
      ],
      "name": "RoleAdminChanged",
      "type": "event"
    },
    {
      "anonymous": false,
      "inputs": [
        {
          "indexed": true,
          "internalType": "bytes32",
          "name": "role",
          "type": "bytes32"
        },
        {
          "indexed": true,
          "internalType": "address",
          "name": "account",
          "type": "address"
        },
        {
          "indexed": true,
          "internalType": "address",
          "name": "sender",
          "type": "address"
        }
      ],
      "name": "RoleGranted",
      "type": "event"
    },
    {
      "anonymous": false,
      "inputs": [
        {
          "indexed": true,
          "internalType": "bytes32",
          "name": "role",
          "type": "bytes32"
        },
        {
          "indexed": true,
          "internalType": "address",
          "name": "account",
          "type": "address"
        },
        {
          "indexed": true,
          "internalType": "address",
          "name": "sender",
          "type": "address"
        }
      ],
      "name": "RoleRevoked",
      "type": "event"
    },
    {
      "anonymous": false,
      "inputs": [
        {
          "indexed": true,
          "internalType": "uint256",
          "name": "tokenId",
          "type": "uint256"
        },
        {
          "indexed": false,
          "internalType": "uint256",
          "name": "unitPriceWei",
          "type": "uint256"
        },
        {
          "indexed": false,
          "internalType": "bool",
          "name": "enabled",
          "type": "bool"
        }
      ],
      "name": "SeriesConfigured",
      "type": "event"
    },
    {
      "anonymous": false,
      "inputs": [
        {
          "indexed": false,
          "internalType": "address",
          "name": "account",
          "type": "address"
        }
      ],
      "name": "Unpaused",
      "type": "event"
    },
    {
      "inputs": [],
      "name": "BPS",
      "outputs": [
        {
          "internalType": "uint256",
          "name": "",
          "type": "uint256"
        }
      ],
      "stateMutability": "view",
      "type": "function"
    },
    {
      "inputs": [],
      "name": "DEFAULT_ADMIN_ROLE",
      "outputs": [
        {
          "internalType": "bytes32",
          "name": "",
          "type": "bytes32"
        }
      ],
      "stateMutability": "view",
      "type": "function"
    },
    {
      "inputs": [],
      "name": "OPERATOR_ROLE",
      "outputs": [
        {
          "internalType": "bytes32",
          "name": "",
          "type": "bytes32"
        }
      ],
      "stateMutability": "view",
      "type": "function"
    },
    {
      "inputs": [],
      "name": "YEAR_SECONDS",
      "outputs": [
        {
          "internalType": "uint256",
          "name": "",
          "type": "uint256"
        }
      ],
      "stateMutability": "view",
      "type": "function"
    },
    {
      "inputs": [
        {
          "internalType": "uint256",
          "name": "tokenId",
          "type": "uint256"
        }
      ],
      "name": "accrue",
      "outputs": [],
      "stateMutability": "nonpayable",
      "type": "function"
    },
    {
      "inputs": [
        {
          "internalType": "address",
          "name": "account",
          "type": "address"
        },
        {
          "internalType": "uint256",
          "name": "tokenId",
          "type": "uint256"
        },
        {
          "internalType": "uint256",
          "name": "balanceBefore",
          "type": "uint256"
        }
      ],
      "name": "accrueFromAsset",
      "outputs": [],
      "stateMutability": "nonpayable",
      "type": "function"
    },
    {
      "inputs": [
        {
          "internalType": "uint256",
          "name": "",
          "type": "uint256"
        },
        {
          "internalType": "address",
          "name": "",
          "type": "address"
        }
      ],
      "name": "accrued",
      "outputs": [
        {
          "internalType": "uint256",
          "name": "",
          "type": "uint256"
        }
      ],
      "stateMutability": "view",
      "type": "function"
    },
    {
      "inputs": [],
      "name": "aprBps",
      "outputs": [
        {
          "internalType": "uint256",
          "name": "",
          "type": "uint256"
        }
      ],
      "stateMutability": "view",
      "type": "function"
    },
    {
      "inputs": [],
      "name": "asset",
      "outputs": [
        {
          "internalType": "address",
          "name": "",
          "type": "address"
        }
      ],
      "stateMutability": "view",
      "type": "function"
    },
    {
      "inputs": [
        {
          "internalType": "uint256",
          "name": "tokenId",
          "type": "uint256"
        }
      ],
      "name": "claim",
      "outputs": [],
      "stateMutability": "nonpayable",
      "type": "function"
    },
    {
      "inputs": [
        {
          "internalType": "uint256",
          "name": "tokenId",
          "type": "uint256"
        },
        {
          "internalType": "address",
          "name": "account",
          "type": "address"
        }
      ],
      "name": "claimable",
      "outputs": [
        {
          "internalType": "uint256",
          "name": "",
          "type": "uint256"
        }
      ],
      "stateMutability": "view",
      "type": "function"
    },
    {
      "inputs": [
        {
          "internalType": "uint256",
          "name": "tokenId",
          "type": "uint256"
        },
        {
          "internalType": "uint256",
          "name": "unitPriceWei",
          "type": "uint256"
        },
        {
          "internalType": "bool",
          "name": "enabled",
          "type": "bool"
        }
      ],
      "name": "configureSeries",
      "outputs": [],
      "stateMutability": "nonpayable",
      "type": "function"
    },
    {
      "inputs": [
        {
          "internalType": "uint256",
          "name": "amount",
          "type": "uint256"
        }
      ],
      "name": "fund",
      "outputs": [],
      "stateMutability": "nonpayable",
      "type": "function"
    },
    {
      "inputs": [
        {
          "internalType": "bytes32",
          "name": "role",
          "type": "bytes32"
        }
      ],
      "name": "getRoleAdmin",
      "outputs": [
        {
          "internalType": "bytes32",
          "name": "",
          "type": "bytes32"
        }
      ],
      "stateMutability": "view",
      "type": "function"
    },
    {
      "inputs": [
        {
          "internalType": "bytes32",
          "name": "role",
          "type": "bytes32"
        },
        {
          "internalType": "address",
          "name": "account",
          "type": "address"
        }
      ],
      "name": "grantRole",
      "outputs": [],
      "stateMutability": "nonpayable",
      "type": "function"
    },
    {
      "inputs": [
        {
          "internalType": "bytes32",
          "name": "role",
          "type": "bytes32"
        },
        {
          "internalType": "address",
          "name": "account",
          "type": "address"
        }
      ],
      "name": "hasRole",
      "outputs": [
        {
          "internalType": "bool",
          "name": "",
          "type": "bool"
        }
      ],
      "stateMutability": "view",
      "type": "function"
    },
    {
      "inputs": [
        {
          "internalType": "uint256",
          "name": "",
          "type": "uint256"
        },
        {
          "internalType": "address",
          "name": "",
          "type": "address"
        }
      ],
      "name": "lastAccruedAt",
      "outputs": [
        {
          "internalType": "uint64",
          "name": "",
          "type": "uint64"
        }
      ],
      "stateMutability": "view",
      "type": "function"
    },
    {
      "inputs": [],
      "name": "pause",
      "outputs": [],
      "stateMutability": "nonpayable",
      "type": "function"
    },
    {
      "inputs": [],
      "name": "paused",
      "outputs": [
        {
          "internalType": "bool",
          "name": "",
          "type": "bool"
        }
      ],
      "stateMutability": "view",
      "type": "function"
    },
    {
      "inputs": [],
      "name": "rateMultiplier",
      "outputs": [
        {
          "internalType": "uint256",
          "name": "",
          "type": "uint256"
        }
      ],
      "stateMutability": "view",
      "type": "function"
    },
    {
      "inputs": [
        {
          "internalType": "bytes32",
          "name": "role",
          "type": "bytes32"
        },
        {
          "internalType": "address",
          "name": "callerConfirmation",
          "type": "address"
        }
      ],
      "name": "renounceRole",
      "outputs": [],
      "stateMutability": "nonpayable",
      "type": "function"
    },
    {
      "inputs": [
        {
          "internalType": "bytes32",
          "name": "role",
          "type": "bytes32"
        },
        {
          "internalType": "address",
          "name": "account",
          "type": "address"
        }
      ],
      "name": "revokeRole",
      "outputs": [],
      "stateMutability": "nonpayable",
      "type": "function"
    },
    {
      "inputs": [],
      "name": "rewardDecimals",
      "outputs": [
        {
          "internalType": "uint8",
          "name": "",
          "type": "uint8"
        }
      ],
      "stateMutability": "view",
      "type": "function"
    },
    {
      "inputs": [],
      "name": "rewardToken",
      "outputs": [
        {
          "internalType": "contract IERC20Metadata",
          "name": "",
          "type": "address"
        }
      ],
      "stateMutability": "view",
      "type": "function"
    },
    {
      "inputs": [],
      "name": "scaleDivisor",
      "outputs": [
        {
          "internalType": "uint256",
          "name": "",
          "type": "uint256"
        }
      ],
      "stateMutability": "view",
      "type": "function"
    },
    {
      "inputs": [
        {
          "internalType": "uint256",
          "name": "",
          "type": "uint256"
        }
      ],
      "name": "seriesEnabled",
      "outputs": [
        {
          "internalType": "bool",
          "name": "",
          "type": "bool"
        }
      ],
      "stateMutability": "view",
      "type": "function"
    },
    {
      "inputs": [
        {
          "internalType": "uint256",
          "name": "newAprBps",
          "type": "uint256"
        }
      ],
      "name": "setAprBps",
      "outputs": [],
      "stateMutability": "nonpayable",
      "type": "function"
    },
    {
      "inputs": [
        {
          "internalType": "uint256",
          "name": "m",
          "type": "uint256"
        }
      ],
      "name": "setRateMultiplier",
      "outputs": [],
      "stateMutability": "nonpayable",
      "type": "function"
    },
    {
      "inputs": [
        {
          "internalType": "bytes4",
          "name": "interfaceId",
          "type": "bytes4"
        }
      ],
      "name": "supportsInterface",
      "outputs": [
        {
          "internalType": "bool",
          "name": "",
          "type": "bool"
        }
      ],
      "stateMutability": "view",
      "type": "function"
    },
    {
      "inputs": [
        {
          "internalType": "uint256",
          "name": "",
          "type": "uint256"
        }
      ],
      "name": "unitPriceWeiByTokenId",
      "outputs": [
        {
          "internalType": "uint256",
          "name": "",
          "type": "uint256"
        }
      ],
      "stateMutability": "view",
      "type": "function"
    },
    {
      "inputs": [],
      "name": "unpause",
      "outputs": [],
      "stateMutability": "nonpayable",
      "type": "function"
    }
  ],
  "bytecode": "0x6101006040523480156200001257600080fd5b5060405162001965380380620019658339810160408190526200003591620002df565b60016002556001600160a01b038316158015906200005b57506001600160a01b03821615155b80156200007057506001600160a01b03811615155b620000ae5760405162461bcd60e51b81526020600482015260096024820152683d32b9379030b2323960b91b60448201526064015b60405180910390fd5b6001600160a01b03808416608052821660a08190526040805163313ce56760e01b815290516000929163313ce5679160048083019260209291908290030181865afa15801562000102573d6000803e3d6000fd5b505050506040513d601f19601f8201168201806040525081019062000128919062000329565b905060128160ff161115620001805760405162461bcd60e51b815260206004820152601460248201527f72657761726420646563696d616c73203e2031380000000000000000000000006044820152606401620000a5565b60ff811660c052600160005b6200019c60ff841660126200036b565b811015620001bc57620001b1600a8362000381565b91506001016200018c565b5060e08190526103e86003556001600455620001da60008462000213565b50620002077f97667070c54ef182b0f5858b034beac1b6f3089aa2d3188bb1e8929f4fa9b9298462000213565b5050505050506200039b565b6000828152602081815260408083206001600160a01b038516845290915281205460ff16620002b8576000838152602081815260408083206001600160a01b03861684529091529020805460ff191660011790556200026f3390565b6001600160a01b0316826001600160a01b0316847f2f8788117e7eff1d82e926ec794901d17c78024a50270940304540a733656f0d60405160405180910390a4506001620002bc565b5060005b92915050565b80516001600160a01b0381168114620002da57600080fd5b919050565b600080600060608486031215620002f557600080fd5b6200030084620002c2565b92506200031060208501620002c2565b91506200032060408501620002c2565b90509250925092565b6000602082840312156200033c57600080fd5b815160ff811681146200034e57600080fd5b9392505050565b634e487b7160e01b600052601160045260246000fd5b81810381811115620002bc57620002bc62000355565b8082028115828204841417620002bc57620002bc62000355565b60805160a05160c05160e05161155f620004066000396000818161026f01526112930152600061042b0152600081816104e50152818161079f0152610bff0152600081816102d80152818161069e0152818161085a015281816109300152610ac8015261155f6000f3fe608060405234801561001057600080fd5b50600436106101e55760003560e01c80638456cb591161010f578063b60f75d8116100a2578063ca1d209d11610071578063ca1d209d146104a5578063d547741f146104b8578063f5b541a6146104cb578063f7c618c1146104e057600080fd5b8063b60f75d814610426578063bbd71b581461045f578063c06e9be214610472578063c872457b1461048557600080fd5b8063a0c7f71c116100de578063a0c7f71c146103ed578063a217fddf14610400578063ab7a225214610408578063b330db281461041b57600080fd5b80638456cb591461035b57806391d14854146103635780639a157e3d146103765780639e216a32146103a157600080fd5b8063330691ac116101875780633f4ba83a116101565780633f4ba83a146103125780635c975abb1461031a57806370b54c0a14610325578063744f4cf61461034857600080fd5b8063330691ac146102a457806336568abe146102ad578063379607f5146102c057806338d52e0f146102d357600080fd5b8063249d39e9116101c3578063249d39e91461025857806325ac1df2146102615780632d49a7d51461026a5780632f2ff15d1461029157600080fd5b806301ffc9a7146101ea5780631879493114610212578063248a9ca314610227575b600080fd5b6101fd6101f8366004611358565b610507565b60405190151581526020015b60405180910390f35b610225610220366004611382565b61053e565b005b61024a6102353660046113c0565b60009081526020819052604090206001015490565b604051908152602001610209565b61024a61271081565b61024a60035481565b61024a7f000000000000000000000000000000000000000000000000000000000000000081565b61022561029f3660046113f5565b6105de565b61024a60045481565b6102256102bb3660046113f5565b610609565b6102256102ce3660046113c0565b610641565b6102fa7f000000000000000000000000000000000000000000000000000000000000000081565b6040516001600160a01b039091168152602001610209565b610225610814565b60015460ff166101fd565b6101fd6103333660046113c0565b60066020526000908152604090205460ff1681565b6102256103563660046113c0565b610834565b6102256108dd565b6101fd6103713660046113f5565b6108fd565b61024a6103843660046113f5565b600760209081526000928352604080842090915290825290205481565b6103d56103af3660046113f5565b60086020908152600092835260408084209091529082529020546001600160401b031681565b6040516001600160401b039091168152602001610209565b61024a6103fb3660046113f5565b610926565b61024a600081565b6102256104163660046113c0565b610a0e565b61024a6301e1338081565b61044d7f000000000000000000000000000000000000000000000000000000000000000081565b60405160ff9091168152602001610209565b61022561046d366004611421565b610ab5565b6102256104803660046113c0565b610b11565b61024a6104933660046113c0565b60056020526000908152604090205481565b6102256104b33660046113c0565b610b9f565b6102256104c63660046113f5565b610c60565b61024a60008051602061150a83398151915281565b6102fa7f000000000000000000000000000000000000000000000000000000000000000081565b60006001600160e01b03198216637965db0b60e01b148061053857506301ffc9a760e01b6001600160e01b03198316145b92915050565b60008051602061150a83398151915261055681610c85565b82600003610577576040516306b7c75960e31b815260040160405180910390fd5b60008481526005602090815260408083208690556006825291829020805460ff191685151590811790915582518681529182015285917f72439830b40820b53dd72dbaf20cc72e85396af1e22d8b1528f0c775633b3c8a910160405180910390a250505050565b6000828152602081905260409020600101546105f981610c85565b6106038383610c8f565b50505050565b6001600160a01b03811633146106325760405163334bd91960e11b815260040160405180910390fd5b61063c8282610d21565b505050565b610649610d8c565b610651610db4565b60008181526006602052604090205460ff166106805760405163248bef1d60e11b815260040160405180910390fd5b604051627eeac760e11b8152336004820152602481018290526000907f00000000000000000000000000000000000000000000000000000000000000006001600160a01b03169062fdd58e90604401602060405180830381865afa1580156106ec573d6000803e3d6000fd5b505050506040513d601f19601f820116820180604052508101906107109190611454565b905061071d823383610dda565b60008281526007602090815260408083203384529091529020548061077c5760405162461bcd60e51b815260206004820152601060248201526f6e6f7468696e6720746f20636c61696d60801b60448201526064015b60405180910390fd5b60008381526007602090815260408083203380855292528220919091556107ce907f00000000000000000000000000000000000000000000000000000000000000006001600160a01b03169083611014565b604051818152839033907f987d620f307ff6b94d58743cb7a7509f24071586a77759b77c2d4e29f75a2f9a9060200160405180910390a350506108116001600255565b50565b60008051602061150a83398151915261082c81610c85565b610811611073565b61083c610db4565b604051627eeac760e11b8152336004820152602481018290526000907f00000000000000000000000000000000000000000000000000000000000000006001600160a01b03169062fdd58e90604401602060405180830381865afa1580156108a8573d6000803e3d6000fd5b505050506040513d601f19601f820116820180604052508101906108cc9190611454565b90506108d9823383610dda565b5050565b60008051602061150a8339815191526108f581610c85565b6108116110c5565b6000918252602082815260408084206001600160a01b0393909316845291905290205460ff1690565b6000806109d584847f00000000000000000000000000000000000000000000000000000000000000006001600160a01b031662fdd58e87896040518363ffffffff1660e01b815260040161098f9291906001600160a01b03929092168252602082015260400190565b602060405180830381865afa1580156109ac573d6000803e3d6000fd5b505050506040513d601f19601f820116820180604052508101906109d09190611454565b611100565b60008581526007602090815260408083206001600160a01b0388168452909152902054909150610a06908290611483565b949350505050565b60008051602061150a833981519152610a2681610c85565b60018210158015610a3b5750633b9aca008211155b610a785760405162461bcd60e51b815260206004820152600e60248201526d3130b21036bab63a34b83634b2b960911b6044820152606401610773565b60048290556040518281527fbf084b0c270e6c8067414189091fb5d4af24e72945fb351280632402ee2188bc906020015b60405180910390a15050565b610abd610db4565b336001600160a01b037f00000000000000000000000000000000000000000000000000000000000000001614610b0657604051637883d19d60e01b815260040160405180910390fd5b61063c828483610dda565b60008051602061150a833981519152610b2981610c85565b612710821115610b6a5760405162461bcd60e51b815260206004820152600c60248201526b0c2e0e440e8dede40d0d2ced60a31b6044820152606401610773565b60038290556040518281527f16bc525116a7ec45cf36d84a97ab6b444a8c5264cc1a9468bfae78613156111590602001610aa9565b60008051602061150a833981519152610bb781610c85565b60008211610bf25760405162461bcd60e51b81526020600482015260086024820152670616d6f756e743d360c41b6044820152606401610773565b610c276001600160a01b037f00000000000000000000000000000000000000000000000000000000000000001633308561118a565b60405182815233907f5af8184bef8e4b45eb9f6ed7734d04da38ced226495548f46e0c8ff8d7d9a5249060200160405180910390a25050565b600082815260208190526040902060010154610c7b81610c85565b6106038383610d21565b61081181336111c3565b6000610c9b83836108fd565b610d19576000838152602081815260408083206001600160a01b03861684529091529020805460ff19166001179055610cd13390565b6001600160a01b0316826001600160a01b0316847f2f8788117e7eff1d82e926ec794901d17c78024a50270940304540a733656f0d60405160405180910390a4506001610538565b506000610538565b6000610d2d83836108fd565b15610d19576000838152602081815260408083206001600160a01b0386168085529252808320805460ff1916905551339286917ff6391f5c32d9c69d2a47ea670b442974b53935d1edc7fd64eb21e047a839171b9190a4506001610538565b6002805403610dae57604051633ee5aeb560e01b815260040160405180910390fd5b60028055565b60015460ff1615610dd85760405163d93c066560e01b815260040160405180910390fd5b565b6001600160a01b038216610ded57505050565b60008381526006602052604090205460ff16610e765760008381526008602090815260408083206001600160a01b03861684529091528120546001600160401b0316900361063c575060009182526008602090815260408084206001600160a01b039390931684529190529020805467ffffffffffffffff1916426001600160401b0316179055565b60008381526008602090815260408083206001600160a01b03861684529091528120546001600160401b0316904290829003610ef55760009485526008602090815260408087206001600160a01b0396909616875294905292909320805467ffffffffffffffff19166001600160401b03909316929092179091555050565b816001600160401b0316816001600160401b031611610f15575050505050565b6000610f348685610f268686611496565b6001600160401b03166111fc565b90508015610fca5760008681526007602090815260408083206001600160a01b038916845290915281208054839290610f6e908490611483565b9091555050604080518281526001600160401b038581166020830152841681830152905187916001600160a01b038816917f911dcdcee83dd2d754cdca9531e952c6fe163d3b6558324822491347cfc245279181900360600190a35b5060009485526008602090815260408087206001600160a01b0396909616875294905292909320805467ffffffffffffffff19166001600160401b03909316929092179091555050565b6040516001600160a01b0383811660248301526044820183905261063c91859182169063a9059cbb906064015b604051602081830303815290604052915060e01b6020820180516001600160e01b0383818316178352505050506112c4565b61107b611335565b6001805460ff191690557f5db9ee0a495bf2e6ff9c91a7834c1ba4fdd244a5e8aa4e537bd38aeae4b073aa335b6040516001600160a01b03909116815260200160405180910390a1565b6110cd610db4565b6001805460ff1916811790557f62e78cea01bee320cd4e420270b5ea74000d11b0c9f74754ebdbfc544b05a258336110a8565b60008381526006602052604081205460ff1661111e57506000611183565b60008481526008602090815260408083206001600160a01b03871684529091528120546001600160401b03169081900361115c576000915050611183565b60006111716001600160401b038316426114bd565b905061117e8685836111fc565b925050505b9392505050565b6040516001600160a01b0384811660248301528381166044830152606482018390526106039186918216906323b872dd90608401611041565b6111cd82826108fd565b6108d95760405163e2517d3f60e01b81526001600160a01b038216600482015260248101839052604401610773565b6000821580611209575081155b1561121657506000611183565b60008481526005602052604081205490819003611237576000915050611183565b600061124382866114d0565b905060006004548561125591906114d0565b905060006112696301e133806127106114d0565b826003548561127891906114d0565b61128291906114d0565b61128c91906114e7565b90506112b87f0000000000000000000000000000000000000000000000000000000000000000826114e7565b98975050505050505050565b600080602060008451602086016000885af1806112e7576040513d6000823e3d81fd5b50506000513d915081156112ff57806001141561130c565b6001600160a01b0384163b155b1561060357604051635274afe760e01b81526001600160a01b0385166004820152602401610773565b60015460ff16610dd857604051638dfc202b60e01b815260040160405180910390fd5b60006020828403121561136a57600080fd5b81356001600160e01b03198116811461118357600080fd5b60008060006060848603121561139757600080fd5b8335925060208401359150604084013580151581146113b557600080fd5b809150509250925092565b6000602082840312156113d257600080fd5b5035919050565b80356001600160a01b03811681146113f057600080fd5b919050565b6000806040838503121561140857600080fd5b82359150611418602084016113d9565b90509250929050565b60008060006060848603121561143657600080fd5b61143f846113d9565b95602085013595506040909401359392505050565b60006020828403121561146657600080fd5b5051919050565b634e487b7160e01b600052601160045260246000fd5b808201808211156105385761053861146d565b6001600160401b038281168282160390808211156114b6576114b661146d565b5092915050565b818103818111156105385761053861146d565b80820281158282048414176105385761053861146d565b60008261150457634e487b7160e01b600052601260045260246000fd5b50049056fe97667070c54ef182b0f5858b034beac1b6f3089aa2d3188bb1e8929f4fa9b929a2646970667358221220329fcf7da333ab7abe9afa86574be4ddaef01961dd18b93d26a50e2221d2d6ae64736f6c63430008180033",
  "linkReferences": {},
  "deployedLinkReferences": {}
}