{"contracts/rbt/RBTInterestVault.sol":{"RBTInterestVault":{"abi":[{"inputs":[{"internalType":"address","name":"asset_","type":"address"},{"internalType":"address","name":"wft_","type":"address"},{"internalType":"address","name":"admin","type":"address"}],"stateMutability":"nonpayable","type":"constructor"},{"inputs":[],"name":"AccessControlBadConfirmation","type":"error"},{"inputs":[{"internalType":"address","name":"account","type":"address"},{"internalType":"bytes32","name":"neededRole","type":"bytes32"}],"name":"AccessControlUnauthorizedAccount","type":"error"},{"inputs":[],"name":"EnforcedPause","type":"error"},{"inputs":[],"name":"ExpectedPause","type":"error"},{"inputs":[],"name":"InvalidConfig","type":"error"},{"inputs":[],"name":"NotAsset","type":"error"},{"inputs":[],"name":"ReentrancyGuardReentrantCall","type":"error"},{"inputs":[],"name":"SeriesNotEnabled","type":"error"},{"anonymous":false,"inputs":[{"indexed":true,"internalType":"address","name":"account","type":"address"},{"indexed":true,"internalType":"uint256","name":"tokenId","type":"uint256"},{"indexed":false,"internalType":"uint256","name":"added","type":"uint256"},{"indexed":false,"internalType":"uint64","name":"fromTs","type":"uint64"},{"indexed":false,"internalType":"uint64","name":"toTs","type":"uint64"}],"name":"Accrued","type":"event"},{"anonymous":false,"inputs":[{"indexed":false,"internalType":"uint256","name":"aprBps","type":"uint256"}],"name":"AprUpdated","type":"event"},{"anonymous":false,"inputs":[{"indexed":true,"internalType":"address","name":"account","type":"address"},{"indexed":true,"internalType":"uint256","name":"tokenId","type":"uint256"},{"indexed":false,"internalType":"uint256","name":"amount","type":"uint256"}],"name":"Claimed","type":"event"},{"anonymous":false,"inputs":[{"indexed":false,"internalType":"address","name":"account","type":"address"}],"name":"Paused","type":"event"},{"anonymous":false,"inputs":[{"indexed":false,"internalType":"uint256","name":"rateMultiplier","type":"uint256"}],"name":"RateMultiplierUpdated","type":"event"},{"anonymous":false,"inputs":[{"indexed":true,"internalType":"bytes32","name":"role","type":"bytes32"},{"indexed":true,"internalType":"bytes32","name":"previousAdminRole","type":"bytes32"},{"indexed":true,"internalType":"bytes32","name":"newAdminRole","type":"bytes32"}],"name":"RoleAdminChanged","type":"event"},{"anonymous":false,"inputs":[{"indexed":true,"internalType":"bytes32","name":"role","type":"bytes32"},{"indexed":true,"internalType":"address","name":"account","type":"address"},{"indexed":true,"internalType":"address","name":"sender","type":"address"}],"name":"RoleGranted","type":"event"},{"anonymous":false,"inputs":[{"indexed":true,"internalType":"bytes32","name":"role","type":"bytes32"},{"indexed":true,"internalType":"address","name":"account","type":"address"},{"indexed":true,"internalType":"address","name":"sender","type":"address"}],"name":"RoleRevoked","type":"event"},{"anonymous":false,"inputs":[{"indexed":true,"internalType":"uint256","name":"tokenId","type":"uint256"},{"indexed":false,"internalType":"uint256","name":"unitPriceWei","type":"uint256"},{"indexed":false,"internalType":"bool","name":"enabled","type":"bool"}],"name":"SeriesConfigured","type":"event"},{"anonymous":false,"inputs":[{"indexed":false,"internalType":"address","name":"account","type":"address"}],"name":"Unpaused","type":"event"},{"inputs":[],"name":"BPS","outputs":[{"internalType":"uint256","name":"","type":"uint256"}],"stateMutability":"view","type":"function"},{"inputs":[],"name":"DEFAULT_ADMIN_ROLE","outputs":[{"internalType":"bytes32","name":"","type":"bytes32"}],"stateMutability":"view","type":"function"},{"inputs":[],"name":"OPERATOR_ROLE","outputs":[{"internalType":"bytes32","name":"","type":"bytes32"}],"stateMutability":"view","type":"function"},{"inputs":[],"name":"YEAR_SECONDS","outputs":[{"internalType":"uint256","name":"","type":"uint256"}],"stateMutability":"view","type":"function"},{"inputs":[{"internalType":"uint256","name":"tokenId","type":"uint256"}],"name":"accrue","outputs":[],"stateMutability":"nonpayable","type":"function"},{"inputs":[{"internalType":"address","name":"account","type":"address"},{"internalType":"uint256","name":"tokenId","type":"uint256"},{"internalType":"uint256","name":"balanceBefore","type":"uint256"}],"name":"accrueFromAsset","outputs":[],"stateMutability":"nonpayable","type":"function"},{"inputs":[{"internalType":"uint256","name":"","type":"uint256"},{"internalType":"address","name":"","type":"address"}],"name":"accrued","outputs":[{"internalType":"uint256","name":"","type":"uint256"}],"stateMutability":"view","type":"function"},{"inputs":[],"name":"aprBps","outputs":[{"internalType":"uint256","name":"","type":"uint256"}],"stateMutability":"view","type":"function"},{"inputs":[],"name":"asset","outputs":[{"internalType":"address","name":"","type":"address"}],"stateMutability":"view","type":"function"},{"inputs":[{"internalType":"uint256","name":"tokenId","type":"uint256"}],"name":"claim","outputs":[],"stateMutability":"nonpayable","type":"function"},{"inputs":[{"internalType":"uint256","name":"tokenId","type":"uint256"},{"internalType":"address","name":"account","type":"address"}],"name":"claimable","outputs":[{"internalType":"uint256","name":"","type":"uint256"}],"stateMutability":"view","type":"function"},{"inputs":[{"internalType":"uint256","name":"tokenId","type":"uint256"},{"internalType":"uint256","name":"unitPriceWei","type":"uint256"},{"internalType":"bool","name":"enabled","type":"bool"}],"name":"configureSeries","outputs":[],"stateMutability":"nonpayable","type":"function"},{"inputs":[{"internalType":"bytes32","name":"role","type":"bytes32"}],"name":"getRoleAdmin","outputs":[{"internalType":"bytes32","name":"","type":"bytes32"}],"stateMutability":"view","type":"function"},{"inputs":[{"internalType":"bytes32","name":"role","type":"bytes32"},{"internalType":"address","name":"account","type":"address"}],"name":"grantRole","outputs":[],"stateMutability":"nonpayable","type":"function"},{"inputs":[{"internalType":"bytes32","name":"role","type":"bytes32"},{"internalType":"address","name":"account","type":"address"}],"name":"hasRole","outputs":[{"internalType":"bool","name":"","type":"bool"}],"stateMutability":"view","type":"function"},{"inputs":[{"internalType":"uint256","name":"","type":"uint256"},{"internalType":"address","name":"","type":"address"}],"name":"lastAccruedAt","outputs":[{"internalType":"uint64","name":"","type":"uint64"}],"stateMutability":"view","type":"function"},{"inputs":[],"name":"pause","outputs":[],"stateMutability":"nonpayable","type":"function"},{"inputs":[],"name":"paused","outputs":[{"internalType":"bool","name":"","type":"bool"}],"stateMutability":"view","type":"function"},{"inputs":[],"name":"rateMultiplier","outputs":[{"internalType":"uint256","name":"","type":"uint256"}],"stateMutability":"view","type":"function"},{"inputs":[{"internalType":"bytes32","name":"role","type":"bytes32"},{"internalType":"address","name":"callerConfirmation","type":"address"}],"name":"renounceRole","outputs":[],"stateMutability":"nonpayable","type":"function"},{"inputs":[{"internalType":"bytes32","name":"role","type":"bytes32"},{"internalType":"address","name":"account","type":"address"}],"name":"revokeRole","outputs":[],"stateMutability":"nonpayable","type":"function"},{"inputs":[{"internalType":"uint256","name":"","type":"uint256"}],"name":"seriesEnabled","outputs":[{"internalType":"bool","name":"","type":"bool"}],"stateMutability":"view","type":"function"},{"inputs":[{"internalType":"uint256","name":"newAprBps","type":"uint256"}],"name":"setAprBps","outputs":[],"stateMutability":"nonpayable","type":"function"},{"inputs":[{"internalType":"uint256","name":"m","type":"uint256"}],"name":"setRateMultiplier","outputs":[],"stateMutability":"nonpayable","type":"function"},{"inputs":[{"internalType":"bytes4","name":"interfaceId","type":"bytes4"}],"name":"supportsInterface","outputs":[{"internalType":"bool","name":"","type":"bool"}],"stateMutability":"view","type":"function"},{"inputs":[{"internalType":"uint256","name":"","type":"uint256"}],"name":"unitPriceWeiByTokenId","outputs":[{"internalType":"uint256","name":"","type":"uint256"}],"stateMutability":"view","type":"function"},{"inputs":[],"name":"unpause","outputs":[],"stateMutability":"nonpayable","type":"function"},{"inputs":[],"name":"wft","outputs":[{"internalType":"contract IWFTMinter","name":"","type":"address"}],"stateMutability":"view","type":"function"}],"evm":{"bytecode":{"linkReferences":{},"object":"60c06040523480156200001157600080fd5b506040516200158c3803806200158c8339810160408190526200003491620001da565b60016002556001600160a01b038316158015906200005a57506001600160a01b03821615155b80156200006f57506001600160a01b03811615155b620000ac5760405162461bcd60e51b81526020600482015260096024820152683d32b9379030b2323960b91b604482015260640160405180910390fd5b6001600160a01b03808416608052821660a0526103e86003556001600455620000d76000826200010e565b50620001047f97667070c54ef182b0f5858b034beac1b6f3089aa2d3188bb1e8929f4fa9b929826200010e565b5050505062000224565b6000828152602081815260408083206001600160a01b038516845290915281205460ff16620001b3576000838152602081815260408083206001600160a01b03861684529091529020805460ff191660011790556200016a3390565b6001600160a01b0316826001600160a01b0316847f2f8788117e7eff1d82e926ec794901d17c78024a50270940304540a733656f0d60405160405180910390a4506001620001b7565b5060005b92915050565b80516001600160a01b0381168114620001d557600080fd5b919050565b600080600060608486031215620001f057600080fd5b620001fb84620001bd565b92506200020b60208501620001bd565b91506200021b60408501620001bd565b90509250925092565b60805160a05161131f6200026d600039600081816103d8015261072b0152600081816102900152818161060a01528181610813015281816108e90152610a81015261131f6000f3fe608060405234801561001057600080fd5b50600436106101c45760003560e01c80638456cb59116100f9578063b012251411610097578063c06e9be211610071578063c06e9be214610418578063c872457b1461042b578063d547741f1461044b578063f5b541a61461045e57600080fd5b8063b0122514146103d3578063b330db28146103fa578063bbd71b581461040557600080fd5b80639e216a32116100d35780639e216a3214610359578063a0c7f71c146103a5578063a217fddf146103b8578063ab7a2252146103c057600080fd5b80638456cb591461031357806391d148541461031b5780639a157e3d1461032e57600080fd5b806336568abe116101665780633f4ba83a116101405780633f4ba83a146102ca5780635c975abb146102d257806370b54c0a146102dd578063744f4cf61461030057600080fd5b806336568abe14610265578063379607f51461027857806338d52e0f1461028b57600080fd5b8063249d39e9116101a2578063249d39e91461023757806325ac1df2146102405780632f2ff15d14610249578063330691ac1461025c57600080fd5b806301ffc9a7146101c957806318794931146101f1578063248a9ca314610206575b600080fd5b6101dc6101d7366004611118565b610473565b60405190151581526020015b60405180910390f35b6102046101ff366004611142565b6104aa565b005b610229610214366004611180565b60009081526020819052604090206001015490565b6040519081526020016101e8565b61022961271081565b61022960035481565b6102046102573660046111b5565b61054a565b61022960045481565b6102046102733660046111b5565b610575565b610204610286366004611180565b6105ad565b6102b27f000000000000000000000000000000000000000000000000000000000000000081565b6040516001600160a01b0390911681526020016101e8565b6102046107cd565b60015460ff166101dc565b6101dc6102eb366004611180565b60066020526000908152604090205460ff1681565b61020461030e366004611180565b6107ed565b610204610896565b6101dc6103293660046111b5565b6108b6565b61022961033c3660046111b5565b600760209081526000928352604080842090915290825290205481565b61038d6103673660046111b5565b60086020908152600092835260408084209091529082529020546001600160401b031681565b6040516001600160401b0390911681526020016101e8565b6102296103b33660046111b5565b6108df565b610229600081565b6102046103ce366004611180565b6109c7565b6102b27f000000000000000000000000000000000000000000000000000000000000000081565b6102296301e1338081565b6102046104133660046111e1565b610a6e565b610204610426366004611180565b610aca565b610229610439366004611180565b60056020526000908152604090205481565b6102046104593660046111b5565b610b58565b6102296000805160206112ca83398151915281565b60006001600160e01b03198216637965db0b60e01b14806104a457506301ffc9a760e01b6001600160e01b03198316145b92915050565b6000805160206112ca8339815191526104c281610b7d565b826000036104e3576040516306b7c75960e31b815260040160405180910390fd5b60008481526005602090815260408083208690556006825291829020805460ff191685151590811790915582518681529182015285917f72439830b40820b53dd72dbaf20cc72e85396af1e22d8b1528f0c775633b3c8a910160405180910390a250505050565b60008281526020819052604090206001015461056581610b7d565b61056f8383610b87565b50505050565b6001600160a01b038116331461059e5760405163334bd91960e11b815260040160405180910390fd5b6105a88282610c19565b505050565b6105b5610c84565b6105bd610cac565b60008181526006602052604090205460ff166105ec5760405163248bef1d60e11b815260040160405180910390fd5b604051627eeac760e11b8152336004820152602481018290526000907f00000000000000000000000000000000000000000000000000000000000000006001600160a01b03169062fdd58e90604401602060405180830381865afa158015610658573d6000803e3d6000fd5b505050506040513d601f19601f8201168201806040525081019061067c9190611214565b9050610689823383610cd2565b6000828152600760209081526040808320338452909152902054806106e85760405162461bcd60e51b815260206004820152601060248201526f6e6f7468696e6720746f20636c61696d60801b60448201526064015b60405180910390fd5b60008381526007602090815260408083203380855292528083209290925590516340c10f1960e01b81526004810191909152602481018290526001600160a01b037f000000000000000000000000000000000000000000000000000000000000000016906340c10f1990604401600060405180830381600087803b15801561076f57600080fd5b505af1158015610783573d6000803e3d6000fd5b50506040518381528592503391507f987d620f307ff6b94d58743cb7a7509f24071586a77759b77c2d4e29f75a2f9a9060200160405180910390a350506107ca6001600255565b50565b6000805160206112ca8339815191526107e581610b7d565b6107ca610f0c565b6107f5610cac565b604051627eeac760e11b8152336004820152602481018290526000907f00000000000000000000000000000000000000000000000000000000000000006001600160a01b03169062fdd58e90604401602060405180830381865afa158015610861573d6000803e3d6000fd5b505050506040513d601f19601f820116820180604052508101906108859190611214565b9050610892823383610cd2565b5050565b6000805160206112ca8339815191526108ae81610b7d565b6107ca610f5e565b6000918252602082815260408084206001600160a01b0393909316845291905290205460ff1690565b60008061098e84847f00000000000000000000000000000000000000000000000000000000000000006001600160a01b031662fdd58e87896040518363ffffffff1660e01b81526004016109489291906001600160a01b03929092168252602082015260400190565b602060405180830381865afa158015610965573d6000803e3d6000fd5b505050506040513d601f19601f820116820180604052508101906109899190611214565b610f99565b60008581526007602090815260408083206001600160a01b03881684529091529020549091506109bf908290611243565b949350505050565b6000805160206112ca8339815191526109df81610b7d565b600182101580156109f45750633b9aca008211155b610a315760405162461bcd60e51b815260206004820152600e60248201526d3130b21036bab63a34b83634b2b960911b60448201526064016106df565b60048290556040518281527fbf084b0c270e6c8067414189091fb5d4af24e72945fb351280632402ee2188bc906020015b60405180910390a15050565b610a76610cac565b336001600160a01b037f00000000000000000000000000000000000000000000000000000000000000001614610abf57604051637883d19d60e01b815260040160405180910390fd5b6105a8828483610cd2565b6000805160206112ca833981519152610ae281610b7d565b612710821115610b235760405162461bcd60e51b815260206004820152600c60248201526b0c2e0e440e8dede40d0d2ced60a31b60448201526064016106df565b60038290556040518281527f16bc525116a7ec45cf36d84a97ab6b444a8c5264cc1a9468bfae78613156111590602001610a62565b600082815260208190526040902060010154610b7381610b7d565b61056f8383610c19565b6107ca8133611023565b6000610b9383836108b6565b610c11576000838152602081815260408083206001600160a01b03861684529091529020805460ff19166001179055610bc93390565b6001600160a01b0316826001600160a01b0316847f2f8788117e7eff1d82e926ec794901d17c78024a50270940304540a733656f0d60405160405180910390a45060016104a4565b5060006104a4565b6000610c2583836108b6565b15610c11576000838152602081815260408083206001600160a01b0386168085529252808320805460ff1916905551339286917ff6391f5c32d9c69d2a47ea670b442974b53935d1edc7fd64eb21e047a839171b9190a45060016104a4565b6002805403610ca657604051633ee5aeb560e01b815260040160405180910390fd5b60028055565b60015460ff1615610cd05760405163d93c066560e01b815260040160405180910390fd5b565b6001600160a01b038216610ce557505050565b60008381526006602052604090205460ff16610d6e5760008381526008602090815260408083206001600160a01b03861684529091528120546001600160401b031690036105a8575060009182526008602090815260408084206001600160a01b039390931684529190529020805467ffffffffffffffff1916426001600160401b0316179055565b60008381526008602090815260408083206001600160a01b03861684529091528120546001600160401b0316904290829003610ded5760009485526008602090815260408087206001600160a01b0396909616875294905292909320805467ffffffffffffffff19166001600160401b03909316929092179091555050565b816001600160401b0316816001600160401b031611610e0d575050505050565b6000610e2c8685610e1e8686611256565b6001600160401b031661105c565b90508015610ec25760008681526007602090815260408083206001600160a01b038916845290915281208054839290610e66908490611243565b9091555050604080518281526001600160401b038581166020830152841681830152905187916001600160a01b038816917f911dcdcee83dd2d754cdca9531e952c6fe163d3b6558324822491347cfc245279181900360600190a35b5060009485526008602090815260408087206001600160a01b0396909616875294905292909320805467ffffffffffffffff19166001600160401b03909316929092179091555050565b610f146110f5565b6001805460ff191690557f5db9ee0a495bf2e6ff9c91a7834c1ba4fdd244a5e8aa4e537bd38aeae4b073aa335b6040516001600160a01b03909116815260200160405180910390a1565b610f66610cac565b6001805460ff1916811790557f62e78cea01bee320cd4e420270b5ea74000d11b0c9f74754ebdbfc544b05a25833610f41565b60008381526006602052604081205460ff16610fb75750600061101c565b60008481526008602090815260408083206001600160a01b03871684529091528120546001600160401b031690819003610ff557600091505061101c565b600061100a6001600160401b0383164261127d565b905061101786858361105c565b925050505b9392505050565b61102d82826108b6565b6108925760405163e2517d3f60e01b81526001600160a01b0382166004820152602481018390526044016106df565b6000821580611069575081155b156110765750600061101c565b6000848152600560205260408120549081900361109757600091505061101c565b60006110a38286611290565b90506000600454856110b59190611290565b90506110c76301e13380612710611290565b81600354846110d69190611290565b6110e09190611290565b6110ea91906112a7565b979650505050505050565b60015460ff16610cd057604051638dfc202b60e01b815260040160405180910390fd5b60006020828403121561112a57600080fd5b81356001600160e01b03198116811461101c57600080fd5b60008060006060848603121561115757600080fd5b83359250602084013591506040840135801515811461117557600080fd5b809150509250925092565b60006020828403121561119257600080fd5b5035919050565b80356001600160a01b03811681146111b057600080fd5b919050565b600080604083850312156111c857600080fd5b823591506111d860208401611199565b90509250929050565b6000806000606084860312156111f657600080fd5b6111ff84611199565b95602085013595506040909401359392505050565b60006020828403121561122657600080fd5b5051919050565b634e487b7160e01b600052601160045260246000fd5b808201808211156104a4576104a461122d565b6001600160401b038281168282160390808211156112765761127661122d565b5092915050565b818103818111156104a4576104a461122d565b80820281158282048414176104a4576104a461122d565b6000826112c457634e487b7160e01b600052601260045260246000fd5b50049056fe97667070c54ef182b0f5858b034beac1b6f3089aa2d3188bb1e8929f4fa9b929a2646970667358221220bccb24c9ee3b6c29bbe4f74d6efdd32316a2bde325f03cbace5a65992644209664736f6c63430008180033","opcodes":"PUSH1 0xC0 PUSH1 0x40 MSTORE CALLVALUE DUP1 ISZERO PUSH3 0x11 JUMPI PUSH1 0x0 DUP1 REVERT JUMPDEST POP PUSH1 0x40 MLOAD PUSH3 0x158C CODESIZE SUB DUP1 PUSH3 0x158C DUP4 CODECOPY DUP2 ADD PUSH1 0x40 DUP2 SWAP1 MSTORE PUSH3 0x34 SWAP2 PUSH3 0x1DA JUMP JUMPDEST PUSH1 0x1 PUSH1 0x2 SSTORE PUSH1 0x1 PUSH1 0x1 PUSH1 0xA0 SHL SUB DUP4 AND ISZERO DUP1 ISZERO SWAP1 PUSH3 0x5A JUMPI POP PUSH1 0x1 PUSH1 0x1 PUSH1 0xA0 SHL SUB DUP3 AND ISZERO ISZERO JUMPDEST DUP1 ISZERO PUSH3 0x6F JUMPI POP PUSH1 0x1 PUSH1 0x1 PUSH1 0xA0 SHL SUB DUP2 AND ISZERO ISZERO JUMPDEST PUSH3 0xAC JUMPI PUSH1 0x40 MLOAD PUSH3 0x461BCD PUSH1 0xE5 SHL DUP2 MSTORE PUSH1 0x20 PUSH1 0x4 DUP3 ADD MSTORE PUSH1 0x9 PUSH1 0x24 DUP3 ADD MSTORE PUSH9 0x3D32B9379030B23239 PUSH1 0xB9 SHL PUSH1 0x44 DUP3 ADD MSTORE PUSH1 0x64 ADD PUSH1 0x40 MLOAD DUP1 SWAP2 SUB SWAP1 REVERT JUMPDEST PUSH1 0x1 PUSH1 0x1 PUSH1 0xA0 SHL SUB DUP1 DUP5 AND PUSH1 0x80 MSTORE DUP3 AND PUSH1 0xA0 MSTORE PUSH2 0x3E8 PUSH1 0x3 SSTORE PUSH1 0x1 PUSH1 0x4 SSTORE PUSH3 0xD7 PUSH1 0x0 DUP3 PUSH3 0x10E JUMP JUMPDEST POP PUSH3 0x104 PUSH32 0x97667070C54EF182B0F5858B034BEAC1B6F3089AA2D3188BB1E8929F4FA9B929 DUP3 PUSH3 0x10E JUMP JUMPDEST POP POP POP POP PUSH3 0x224 JUMP JUMPDEST PUSH1 0x0 DUP3 DUP2 MSTORE PUSH1 0x20 DUP2 DUP2 MSTORE PUSH1 0x40 DUP1 DUP4 KECCAK256 PUSH1 0x1 PUSH1 0x1 PUSH1 0xA0 SHL SUB DUP6 AND DUP5 MSTORE SWAP1 SWAP2 MSTORE DUP2 KECCAK256 SLOAD PUSH1 0xFF AND PUSH3 0x1B3 JUMPI PUSH1 0x0 DUP4 DUP2 MSTORE PUSH1 0x20 DUP2 DUP2 MSTORE PUSH1 0x40 DUP1 DUP4 KECCAK256 PUSH1 0x1 PUSH1 0x1 PUSH1 0xA0 SHL SUB DUP7 AND DUP5 MSTORE SWAP1 SWAP2 MSTORE SWAP1 KECCAK256 DUP1 SLOAD PUSH1 0xFF NOT AND PUSH1 0x1 OR SWAP1 SSTORE PUSH3 0x16A CALLER SWAP1 JUMP JUMPDEST PUSH1 0x1 PUSH1 0x1 PUSH1 0xA0 SHL SUB AND DUP3 PUSH1 0x1 PUSH1 0x1 PUSH1 0xA0 SHL SUB AND DUP5 PUSH32 0x2F8788117E7EFF1D82E926EC794901D17C78024A50270940304540A733656F0D PUSH1 0x40 MLOAD PUSH1 0x40 MLOAD DUP1 SWAP2 SUB SWAP1 LOG4 POP PUSH1 0x1 PUSH3 0x1B7 JUMP JUMPDEST POP PUSH1 0x0 JUMPDEST SWAP3 SWAP2 POP POP JUMP JUMPDEST DUP1 MLOAD PUSH1 0x1 PUSH1 0x1 PUSH1 0xA0 SHL SUB DUP2 AND DUP2 EQ PUSH3 0x1D5 JUMPI PUSH1 0x0 DUP1 REVERT JUMPDEST SWAP2 SWAP1 POP JUMP JUMPDEST PUSH1 0x0 DUP1 PUSH1 0x0 PUSH1 0x60 DUP5 DUP7 SUB SLT ISZERO PUSH3 0x1F0 JUMPI PUSH1 0x0 DUP1 REVERT JUMPDEST PUSH3 0x1FB DUP5 PUSH3 0x1BD JUMP JUMPDEST SWAP3 POP PUSH3 0x20B PUSH1 0x20 DUP6 ADD PUSH3 0x1BD JUMP JUMPDEST SWAP2 POP PUSH3 0x21B PUSH1 0x40 DUP6 ADD PUSH3 0x1BD JUMP JUMPDEST SWAP1 POP SWAP3 POP SWAP3 POP SWAP3 JUMP JUMPDEST PUSH1 0x80 MLOAD PUSH1 0xA0 MLOAD PUSH2 0x131F PUSH3 0x26D PUSH1 0x0 CODECOPY PUSH1 0x0 DUP2 DUP2 PUSH2 0x3D8 ADD MSTORE PUSH2 0x72B ADD MSTORE PUSH1 0x0 DUP2 DUP2 PUSH2 0x290 ADD MSTORE DUP2 DUP2 PUSH2 0x60A ADD MSTORE DUP2 DUP2 PUSH2 0x813 ADD MSTORE DUP2 DUP2 PUSH2 0x8E9 ADD MSTORE PUSH2 0xA81 ADD MSTORE PUSH2 0x131F PUSH1 0x0 RETURN INVALID PUSH1 0x80 PUSH1 0x40 MSTORE CALLVALUE DUP1 ISZERO PUSH2 0x10 JUMPI PUSH1 0x0 DUP1 REVERT JUMPDEST POP PUSH1 0x4 CALLDATASIZE LT PUSH2 0x1C4 JUMPI PUSH1 0x0 CALLDATALOAD PUSH1 0xE0 SHR DUP1 PUSH4 0x8456CB59 GT PUSH2 0xF9 JUMPI DUP1 PUSH4 0xB0122514 GT PUSH2 0x97 JUMPI DUP1 PUSH4 0xC06E9BE2 GT PUSH2 0x71 JUMPI DUP1 PUSH4 0xC06E9BE2 EQ PUSH2 0x418 JUMPI DUP1 PUSH4 0xC872457B EQ PUSH2 0x42B JUMPI DUP1 PUSH4 0xD547741F EQ PUSH2 0x44B JUMPI DUP1 PUSH4 0xF5B541A6 EQ PUSH2 0x45E JUMPI PUSH1 0x0 DUP1 REVERT JUMPDEST DUP1 PUSH4 0xB0122514 EQ PUSH2 0x3D3 JUMPI DUP1 PUSH4 0xB330DB28 EQ PUSH2 0x3FA JUMPI DUP1 PUSH4 0xBBD71B58 EQ PUSH2 0x405 JUMPI PUSH1 0x0 DUP1 REVERT JUMPDEST DUP1 PUSH4 0x9E216A32 GT PUSH2 0xD3 JUMPI DUP1 PUSH4 0x9E216A32 EQ PUSH2 0x359 JUMPI DUP1 PUSH4 0xA0C7F71C EQ PUSH2 0x3A5 JUMPI DUP1 PUSH4 0xA217FDDF EQ PUSH2 0x3B8 JUMPI DUP1 PUSH4 0xAB7A2252 EQ PUSH2 0x3C0 JUMPI PUSH1 0x0 DUP1 REVERT JUMPDEST DUP1 PUSH4 0x8456CB59 EQ PUSH2 0x313 JUMPI DUP1 PUSH4 0x91D14854 EQ PUSH2 0x31B JUMPI DUP1 PUSH4 0x9A157E3D EQ PUSH2 0x32E JUMPI PUSH1 0x0 DUP1 REVERT JUMPDEST DUP1 PUSH4 0x36568ABE GT PUSH2 0x166 JUMPI DUP1 PUSH4 0x3F4BA83A GT PUSH2 0x140 JUMPI DUP1 PUSH4 0x3F4BA83A EQ PUSH2 0x2CA JUMPI DUP1 PUSH4 0x5C975ABB EQ PUSH2 0x2D2 JUMPI DUP1 PUSH4 0x70B54C0A EQ PUSH2 0x2DD JUMPI DUP1 PUSH4 0x744F4CF6 EQ PUSH2 0x300 JUMPI PUSH1 0x0 DUP1 REVERT JUMPDEST DUP1 PUSH4 0x36568ABE EQ PUSH2 0x265 JUMPI DUP1 PUSH4 0x379607F5 EQ PUSH2 0x278 JUMPI DUP1 PUSH4 0x38D52E0F EQ PUSH2 0x28B JUMPI PUSH1 0x0 DUP1 REVERT JUMPDEST DUP1 PUSH4 0x249D39E9 GT PUSH2 0x1A2 JUMPI DUP1 PUSH4 0x249D39E9 EQ PUSH2 0x237 JUMPI DUP1 PUSH4 0x25AC1DF2 EQ PUSH2 0x240 JUMPI DUP1 PUSH4 0x2F2FF15D EQ PUSH2 0x249 JUMPI DUP1 PUSH4 0x330691AC EQ PUSH2 0x25C JUMPI PUSH1 0x0 DUP1 REVERT JUMPDEST DUP1 PUSH4 0x1FFC9A7 EQ PUSH2 0x1C9 JUMPI DUP1 PUSH4 0x18794931 EQ PUSH2 0x1F1 JUMPI DUP1 PUSH4 0x248A9CA3 EQ PUSH2 0x206 JUMPI JUMPDEST PUSH1 0x0 DUP1 REVERT JUMPDEST PUSH2 0x1DC PUSH2 0x1D7 CALLDATASIZE PUSH1 0x4 PUSH2 0x1118 JUMP JUMPDEST PUSH2 0x473 JUMP JUMPDEST PUSH1 0x40 MLOAD SWAP1 ISZERO ISZERO DUP2 MSTORE PUSH1 0x20 ADD JUMPDEST PUSH1 0x40 MLOAD DUP1 SWAP2 SUB SWAP1 RETURN JUMPDEST PUSH2 0x204 PUSH2 0x1FF CALLDATASIZE PUSH1 0x4 PUSH2 0x1142 JUMP JUMPDEST PUSH2 0x4AA JUMP JUMPDEST STOP JUMPDEST PUSH2 0x229 PUSH2 0x214 CALLDATASIZE PUSH1 0x4 PUSH2 0x1180 JUMP JUMPDEST PUSH1 0x0 SWAP1 DUP2 MSTORE PUSH1 0x20 DUP2 SWAP1 MSTORE PUSH1 0x40 SWAP1 KECCAK256 PUSH1 0x1 ADD SLOAD SWAP1 JUMP JUMPDEST PUSH1 0x40 MLOAD SWAP1 DUP2 MSTORE PUSH1 0x20 ADD PUSH2 0x1E8 JUMP JUMPDEST PUSH2 0x229 PUSH2 0x2710 DUP2 JUMP JUMPDEST PUSH2 0x229 PUSH1 0x3 SLOAD DUP2 JUMP JUMPDEST PUSH2 0x204 PUSH2 0x257 CALLDATASIZE PUSH1 0x4 PUSH2 0x11B5 JUMP JUMPDEST PUSH2 0x54A JUMP JUMPDEST PUSH2 0x229 PUSH1 0x4 SLOAD DUP2 JUMP JUMPDEST PUSH2 0x204 PUSH2 0x273 CALLDATASIZE PUSH1 0x4 PUSH2 0x11B5 JUMP JUMPDEST PUSH2 0x575 JUMP JUMPDEST PUSH2 0x204 PUSH2 0x286 CALLDATASIZE PUSH1 0x4 PUSH2 0x1180 JUMP JUMPDEST PUSH2 0x5AD JUMP JUMPDEST PUSH2 0x2B2 PUSH32 0x0 DUP2 JUMP JUMPDEST PUSH1 0x40 MLOAD PUSH1 0x1 PUSH1 0x1 PUSH1 0xA0 SHL SUB SWAP1 SWAP2 AND DUP2 MSTORE PUSH1 0x20 ADD PUSH2 0x1E8 JUMP JUMPDEST PUSH2 0x204 PUSH2 0x7CD JUMP JUMPDEST PUSH1 0x1 SLOAD PUSH1 0xFF AND PUSH2 0x1DC JUMP JUMPDEST PUSH2 0x1DC PUSH2 0x2EB CALLDATASIZE PUSH1 0x4 PUSH2 0x1180 JUMP JUMPDEST PUSH1 0x6 PUSH1 0x20 MSTORE PUSH1 0x0 SWAP1 DUP2 MSTORE PUSH1 0x40 SWAP1 KECCAK256 SLOAD PUSH1 0xFF AND DUP2 JUMP JUMPDEST PUSH2 0x204 PUSH2 0x30E CALLDATASIZE PUSH1 0x4 PUSH2 0x1180 JUMP JUMPDEST PUSH2 0x7ED JUMP JUMPDEST PUSH2 0x204 PUSH2 0x896 JUMP JUMPDEST PUSH2 0x1DC PUSH2 0x329 CALLDATASIZE PUSH1 0x4 PUSH2 0x11B5 JUMP JUMPDEST PUSH2 0x8B6 JUMP JUMPDEST PUSH2 0x229 PUSH2 0x33C CALLDATASIZE PUSH1 0x4 PUSH2 0x11B5 JUMP JUMPDEST PUSH1 0x7 PUSH1 0x20 SWAP1 DUP2 MSTORE PUSH1 0x0 SWAP3 DUP4 MSTORE PUSH1 0x40 DUP1 DUP5 KECCAK256 SWAP1 SWAP2 MSTORE SWAP1 DUP3 MSTORE SWAP1 KECCAK256 SLOAD DUP2 JUMP JUMPDEST PUSH2 0x38D PUSH2 0x367 CALLDATASIZE PUSH1 0x4 PUSH2 0x11B5 JUMP JUMPDEST PUSH1 0x8 PUSH1 0x20 SWAP1 DUP2 MSTORE PUSH1 0x0 SWAP3 DUP4 MSTORE PUSH1 0x40 DUP1 DUP5 KECCAK256 SWAP1 SWAP2 MSTORE SWAP1 DUP3 MSTORE SWAP1 KECCAK256 SLOAD PUSH1 0x1 PUSH1 0x1 PUSH1 0x40 SHL SUB AND DUP2 JUMP JUMPDEST PUSH1 0x40 MLOAD PUSH1 0x1 PUSH1 0x1 PUSH1 0x40 SHL SUB SWAP1 SWAP2 AND DUP2 MSTORE PUSH1 0x20 ADD PUSH2 0x1E8 JUMP JUMPDEST PUSH2 0x229 PUSH2 0x3B3 CALLDATASIZE PUSH1 0x4 PUSH2 0x11B5 JUMP JUMPDEST PUSH2 0x8DF JUMP JUMPDEST PUSH2 0x229 PUSH1 0x0 DUP2 JUMP JUMPDEST PUSH2 0x204 PUSH2 0x3CE CALLDATASIZE PUSH1 0x4 PUSH2 0x1180 JUMP JUMPDEST PUSH2 0x9C7 JUMP JUMPDEST PUSH2 0x2B2 PUSH32 0x0 DUP2 JUMP JUMPDEST PUSH2 0x229 PUSH4 0x1E13380 DUP2 JUMP JUMPDEST PUSH2 0x204 PUSH2 0x413 CALLDATASIZE PUSH1 0x4 PUSH2 0x11E1 JUMP JUMPDEST PUSH2 0xA6E JUMP JUMPDEST PUSH2 0x204 PUSH2 0x426 CALLDATASIZE PUSH1 0x4 PUSH2 0x1180 JUMP JUMPDEST PUSH2 0xACA JUMP JUMPDEST PUSH2 0x229 PUSH2 0x439 CALLDATASIZE PUSH1 0x4 PUSH2 0x1180 JUMP JUMPDEST PUSH1 0x5 PUSH1 0x20 MSTORE PUSH1 0x0 SWAP1 DUP2 MSTORE PUSH1 0x40 SWAP1 KECCAK256 SLOAD DUP2 JUMP JUMPDEST PUSH2 0x204 PUSH2 0x459 CALLDATASIZE PUSH1 0x4 PUSH2 0x11B5 JUMP JUMPDEST PUSH2 0xB58 JUMP JUMPDEST PUSH2 0x229 PUSH1 0x0 DUP1 MLOAD PUSH1 0x20 PUSH2 0x12CA DUP4 CODECOPY DUP2 MLOAD SWAP2 MSTORE DUP2 JUMP JUMPDEST PUSH1 0x0 PUSH1 0x1 PUSH1 0x1 PUSH1 0xE0 SHL SUB NOT DUP3 AND PUSH4 0x7965DB0B PUSH1 0xE0 SHL EQ DUP1 PUSH2 0x4A4 JUMPI POP PUSH4 0x1FFC9A7 PUSH1 0xE0 SHL PUSH1 0x1 PUSH1 0x1 PUSH1 0xE0 SHL SUB NOT DUP4 AND EQ JUMPDEST SWAP3 SWAP2 POP POP JUMP JUMPDEST PUSH1 0x0 DUP1 MLOAD PUSH1 0x20 PUSH2 0x12CA DUP4 CODECOPY DUP2 MLOAD SWAP2 MSTORE PUSH2 0x4C2 DUP2 PUSH2 0xB7D JUMP JUMPDEST DUP3 PUSH1 0x0 SUB PUSH2 0x4E3 JUMPI PUSH1 0x40 MLOAD PUSH4 0x6B7C759 PUSH1 0xE3 SHL DUP2 MSTORE PUSH1 0x4 ADD PUSH1 0x40 MLOAD DUP1 SWAP2 SUB SWAP1 REVERT JUMPDEST PUSH1 0x0 DUP5 DUP2 MSTORE PUSH1 0x5 PUSH1 0x20 SWAP1 DUP2 MSTORE PUSH1 0x40 DUP1 DUP4 KECCAK256 DUP7 SWAP1 SSTORE PUSH1 0x6 DUP3 MSTORE SWAP2 DUP3 SWAP1 KECCAK256 DUP1 SLOAD PUSH1 0xFF NOT AND DUP6 ISZERO ISZERO SWAP1 DUP2 OR SWAP1 SWAP2 SSTORE DUP3 MLOAD DUP7 DUP2 MSTORE SWAP2 DUP3 ADD MSTORE DUP6 SWAP2 PUSH32 0x72439830B40820B53DD72DBAF20CC72E85396AF1E22D8B1528F0C775633B3C8A SWAP2 ADD PUSH1 0x40 MLOAD DUP1 SWAP2 SUB SWAP1 LOG2 POP POP POP POP JUMP JUMPDEST PUSH1 0x0 DUP3 DUP2 MSTORE PUSH1 0x20 DUP2 SWAP1 MSTORE PUSH1 0x40 SWAP1 KECCAK256 PUSH1 0x1 ADD SLOAD PUSH2 0x565 DUP2 PUSH2 0xB7D JUMP JUMPDEST PUSH2 0x56F DUP4 DUP4 PUSH2 0xB87 JUMP JUMPDEST POP POP POP POP JUMP JUMPDEST PUSH1 0x1 PUSH1 0x1 PUSH1 0xA0 SHL SUB DUP2 AND CALLER EQ PUSH2 0x59E JUMPI PUSH1 0x40 MLOAD PUSH4 0x334BD919 PUSH1 0xE1 SHL DUP2 MSTORE PUSH1 0x4 ADD PUSH1 0x40 MLOAD DUP1 SWAP2 SUB SWAP1 REVERT JUMPDEST PUSH2 0x5A8 DUP3 DUP3 PUSH2 0xC19 JUMP JUMPDEST POP POP POP JUMP JUMPDEST PUSH2 0x5B5 PUSH2 0xC84 JUMP JUMPDEST PUSH2 0x5BD PUSH2 0xCAC JUMP JUMPDEST PUSH1 0x0 DUP2 DUP2 MSTORE PUSH1 0x6 PUSH1 0x20 MSTORE PUSH1 0x40 SWAP1 KECCAK256 SLOAD PUSH1 0xFF AND PUSH2 0x5EC JUMPI PUSH1 0x40 MLOAD PUSH4 0x248BEF1D PUSH1 0xE1 SHL DUP2 MSTORE PUSH1 0x4 ADD PUSH1 0x40 MLOAD DUP1 SWAP2 SUB SWAP1 REVERT JUMPDEST PUSH1 0x40 MLOAD PUSH3 0x7EEAC7 PUSH1 0xE1 SHL DUP2 MSTORE CALLER PUSH1 0x4 DUP3 ADD MSTORE PUSH1 0x24 DUP2 ADD DUP3 SWAP1 MSTORE PUSH1 0x0 SWAP1 PUSH32 0x0 PUSH1 0x1 PUSH1 0x1 PUSH1 0xA0 SHL SUB AND SWAP1 PUSH3 0xFDD58E SWAP1 PUSH1 0x44 ADD PUSH1 0x20 PUSH1 0x40 MLOAD DUP1 DUP4 SUB DUP2 DUP7 GAS STATICCALL ISZERO DUP1 ISZERO PUSH2 0x658 JUMPI RETURNDATASIZE PUSH1 0x0 DUP1 RETURNDATACOPY RETURNDATASIZE PUSH1 0x0 REVERT JUMPDEST POP POP POP POP PUSH1 0x40 MLOAD RETURNDATASIZE PUSH1 0x1F NOT PUSH1 0x1F DUP3 ADD AND DUP3 ADD DUP1 PUSH1 0x40 MSTORE POP DUP2 ADD SWAP1 PUSH2 0x67C SWAP2 SWAP1 PUSH2 0x1214 JUMP JUMPDEST SWAP1 POP PUSH2 0x689 DUP3 CALLER DUP4 PUSH2 0xCD2 JUMP JUMPDEST PUSH1 0x0 DUP3 DUP2 MSTORE PUSH1 0x7 PUSH1 0x20 SWAP1 DUP2 MSTORE PUSH1 0x40 DUP1 DUP4 KECCAK256 CALLER DUP5 MSTORE SWAP1 SWAP2 MSTORE SWAP1 KECCAK256 SLOAD DUP1 PUSH2 0x6E8 JUMPI PUSH1 0x40 MLOAD PUSH3 0x461BCD PUSH1 0xE5 SHL DUP2 MSTORE PUSH1 0x20 PUSH1 0x4 DUP3 ADD MSTORE PUSH1 0x10 PUSH1 0x24 DUP3 ADD MSTORE PUSH16 0x6E6F7468696E6720746F20636C61696D PUSH1 0x80 SHL PUSH1 0x44 DUP3 ADD MSTORE PUSH1 0x64 ADD JUMPDEST PUSH1 0x40 MLOAD DUP1 SWAP2 SUB SWAP1 REVERT JUMPDEST PUSH1 0x0 DUP4 DUP2 MSTORE PUSH1 0x7 PUSH1 0x20 SWAP1 DUP2 MSTORE PUSH1 0x40 DUP1 DUP4 KECCAK256 CALLER DUP1 DUP6 MSTORE SWAP3 MSTORE DUP1 DUP4 KECCAK256 SWAP3 SWAP1 SWAP3 SSTORE SWAP1 MLOAD PUSH4 0x40C10F19 PUSH1 0xE0 SHL DUP2 MSTORE PUSH1 0x4 DUP2 ADD SWAP2 SWAP1 SWAP2 MSTORE PUSH1 0x24 DUP2 ADD DUP3 SWAP1 MSTORE PUSH1 0x1 PUSH1 0x1 PUSH1 0xA0 SHL SUB PUSH32 0x0 AND SWAP1 PUSH4 0x40C10F19 SWAP1 PUSH1 0x44 ADD PUSH1 0x0 PUSH1 0x40 MLOAD DUP1 DUP4 SUB DUP2 PUSH1 0x0 DUP8 DUP1 EXTCODESIZE ISZERO DUP1 ISZERO PUSH2 0x76F JUMPI PUSH1 0x0 DUP1 REVERT JUMPDEST POP GAS CALL ISZERO DUP1 ISZERO PUSH2 0x783 JUMPI RETURNDATASIZE PUSH1 0x0 DUP1 RETURNDATACOPY RETURNDATASIZE PUSH1 0x0 REVERT JUMPDEST POP POP PUSH1 0x40 MLOAD DUP4 DUP2 MSTORE DUP6 SWAP3 POP CALLER SWAP2 POP PUSH32 0x987D620F307FF6B94D58743CB7A7509F24071586A77759B77C2D4E29F75A2F9A SWAP1 PUSH1 0x20 ADD PUSH1 0x40 MLOAD DUP1 SWAP2 SUB SWAP1 LOG3 POP POP PUSH2 0x7CA PUSH1 0x1 PUSH1 0x2 SSTORE JUMP JUMPDEST POP JUMP JUMPDEST PUSH1 0x0 DUP1 MLOAD PUSH1 0x20 PUSH2 0x12CA DUP4 CODECOPY DUP2 MLOAD SWAP2 MSTORE PUSH2 0x7E5 DUP2 PUSH2 0xB7D JUMP JUMPDEST PUSH2 0x7CA PUSH2 0xF0C JUMP JUMPDEST PUSH2 0x7F5 PUSH2 0xCAC JUMP JUMPDEST PUSH1 0x40 MLOAD PUSH3 0x7EEAC7 PUSH1 0xE1 SHL DUP2 MSTORE CALLER PUSH1 0x4 DUP3 ADD MSTORE PUSH1 0x24 DUP2 ADD DUP3 SWAP1 MSTORE PUSH1 0x0 SWAP1 PUSH32 0x0 PUSH1 0x1 PUSH1 0x1 PUSH1 0xA0 SHL SUB AND SWAP1 PUSH3 0xFDD58E SWAP1 PUSH1 0x44 ADD PUSH1 0x20 PUSH1 0x40 MLOAD DUP1 DUP4 SUB DUP2 DUP7 GAS STATICCALL ISZERO DUP1 ISZERO PUSH2 0x861 JUMPI RETURNDATASIZE PUSH1 0x0 DUP1 RETURNDATACOPY RETURNDATASIZE PUSH1 0x0 REVERT JUMPDEST POP POP POP POP PUSH1 0x40 MLOAD RETURNDATASIZE PUSH1 0x1F NOT PUSH1 0x1F DUP3 ADD AND DUP3 ADD DUP1 PUSH1 0x40 MSTORE POP DUP2 ADD SWAP1 PUSH2 0x885 SWAP2 SWAP1 PUSH2 0x1214 JUMP JUMPDEST SWAP1 POP PUSH2 0x892 DUP3 CALLER DUP4 PUSH2 0xCD2 JUMP JUMPDEST POP POP JUMP JUMPDEST PUSH1 0x0 DUP1 MLOAD PUSH1 0x20 PUSH2 0x12CA DUP4 CODECOPY DUP2 MLOAD SWAP2 MSTORE PUSH2 0x8AE DUP2 PUSH2 0xB7D JUMP JUMPDEST PUSH2 0x7CA PUSH2 0xF5E JUMP JUMPDEST PUSH1 0x0 SWAP2 DUP3 MSTORE PUSH1 0x20 DUP3 DUP2 MSTORE PUSH1 0x40 DUP1 DUP5 KECCAK256 PUSH1 0x1 PUSH1 0x1 PUSH1 0xA0 SHL SUB SWAP4 SWAP1 SWAP4 AND DUP5 MSTORE SWAP2 SWAP1 MSTORE SWAP1 KECCAK256 SLOAD PUSH1 0xFF AND SWAP1 JUMP JUMPDEST PUSH1 0x0 DUP1 PUSH2 0x98E DUP5 DUP5 PUSH32 0x0 PUSH1 0x1 PUSH1 0x1 PUSH1 0xA0 SHL SUB AND PUSH3 0xFDD58E DUP8 DUP10 PUSH1 0x40 MLOAD DUP4 PUSH4 0xFFFFFFFF AND PUSH1 0xE0 SHL DUP2 MSTORE PUSH1 0x4 ADD PUSH2 0x948 SWAP3 SWAP2 SWAP1 PUSH1 0x1 PUSH1 0x1 PUSH1 0xA0 SHL SUB SWAP3 SWAP1 SWAP3 AND DUP3 MSTORE PUSH1 0x20 DUP3 ADD MSTORE PUSH1 0x40 ADD SWAP1 JUMP JUMPDEST PUSH1 0x20 PUSH1 0x40 MLOAD DUP1 DUP4 SUB DUP2 DUP7 GAS STATICCALL ISZERO DUP1 ISZERO PUSH2 0x965 JUMPI RETURNDATASIZE PUSH1 0x0 DUP1 RETURNDATACOPY RETURNDATASIZE PUSH1 0x0 REVERT JUMPDEST POP POP POP POP PUSH1 0x40 MLOAD RETURNDATASIZE PUSH1 0x1F NOT PUSH1 0x1F DUP3 ADD AND DUP3 ADD DUP1 PUSH1 0x40 MSTORE POP DUP2 ADD SWAP1 PUSH2 0x989 SWAP2 SWAP1 PUSH2 0x1214 JUMP JUMPDEST PUSH2 0xF99 JUMP JUMPDEST PUSH1 0x0 DUP6 DUP2 MSTORE PUSH1 0x7 PUSH1 0x20 SWAP1 DUP2 MSTORE PUSH1 0x40 DUP1 DUP4 KECCAK256 PUSH1 0x1 PUSH1 0x1 PUSH1 0xA0 SHL SUB DUP9 AND DUP5 MSTORE SWAP1 SWAP2 MSTORE SWAP1 KECCAK256 SLOAD SWAP1 SWAP2 POP PUSH2 0x9BF SWAP1 DUP3 SWAP1 PUSH2 0x1243 JUMP JUMPDEST SWAP5 SWAP4 POP POP POP POP JUMP JUMPDEST PUSH1 0x0 DUP1 MLOAD PUSH1 0x20 PUSH2 0x12CA DUP4 CODECOPY DUP2 MLOAD SWAP2 MSTORE PUSH2 0x9DF DUP2 PUSH2 0xB7D JUMP JUMPDEST PUSH1 0x1 DUP3 LT ISZERO DUP1 ISZERO PUSH2 0x9F4 JUMPI POP PUSH4 0x3B9ACA00 DUP3 GT ISZERO JUMPDEST PUSH2 0xA31 JUMPI PUSH1 0x40 MLOAD PUSH3 0x461BCD PUSH1 0xE5 SHL DUP2 MSTORE PUSH1 0x20 PUSH1 0x4 DUP3 ADD MSTORE PUSH1 0xE PUSH1 0x24 DUP3 ADD MSTORE PUSH14 0x3130B21036BAB63A34B83634B2B9 PUSH1 0x91 SHL PUSH1 0x44 DUP3 ADD MSTORE PUSH1 0x64 ADD PUSH2 0x6DF JUMP JUMPDEST PUSH1 0x4 DUP3 SWAP1 SSTORE PUSH1 0x40 MLOAD DUP3 DUP2 MSTORE PUSH32 0xBF084B0C270E6C8067414189091FB5D4AF24E72945FB351280632402EE2188BC SWAP1 PUSH1 0x20 ADD JUMPDEST PUSH1 0x40 MLOAD DUP1 SWAP2 SUB SWAP1 LOG1 POP POP JUMP JUMPDEST PUSH2 0xA76 PUSH2 0xCAC JUMP JUMPDEST CALLER PUSH1 0x1 PUSH1 0x1 PUSH1 0xA0 SHL SUB PUSH32 0x0 AND EQ PUSH2 0xABF JUMPI PUSH1 0x40 MLOAD PUSH4 0x7883D19D PUSH1 0xE0 SHL DUP2 MSTORE PUSH1 0x4 ADD PUSH1 0x40 MLOAD DUP1 SWAP2 SUB SWAP1 REVERT JUMPDEST PUSH2 0x5A8 DUP3 DUP5 DUP4 PUSH2 0xCD2 JUMP JUMPDEST PUSH1 0x0 DUP1 MLOAD PUSH1 0x20 PUSH2 0x12CA DUP4 CODECOPY DUP2 MLOAD SWAP2 MSTORE PUSH2 0xAE2 DUP2 PUSH2 0xB7D JUMP JUMPDEST PUSH2 0x2710 DUP3 GT ISZERO PUSH2 0xB23 JUMPI PUSH1 0x40 MLOAD PUSH3 0x461BCD PUSH1 0xE5 SHL DUP2 MSTORE PUSH1 0x20 PUSH1 0x4 DUP3 ADD MSTORE PUSH1 0xC PUSH1 0x24 DUP3 ADD MSTORE PUSH12 0xC2E0E440E8DEDE40D0D2CED PUSH1 0xA3 SHL PUSH1 0x44 DUP3 ADD MSTORE PUSH1 0x64 ADD PUSH2 0x6DF JUMP JUMPDEST PUSH1 0x3 DUP3 SWAP1 SSTORE PUSH1 0x40 MLOAD DUP3 DUP2 MSTORE PUSH32 0x16BC525116A7EC45CF36D84A97AB6B444A8C5264CC1A9468BFAE786131561115 SWAP1 PUSH1 0x20 ADD PUSH2 0xA62 JUMP JUMPDEST PUSH1 0x0 DUP3 DUP2 MSTORE PUSH1 0x20 DUP2 SWAP1 MSTORE PUSH1 0x40 SWAP1 KECCAK256 PUSH1 0x1 ADD SLOAD PUSH2 0xB73 DUP2 PUSH2 0xB7D JUMP JUMPDEST PUSH2 0x56F DUP4 DUP4 PUSH2 0xC19 JUMP JUMPDEST PUSH2 0x7CA DUP2 CALLER PUSH2 0x1023 JUMP JUMPDEST PUSH1 0x0 PUSH2 0xB93 DUP4 DUP4 PUSH2 0x8B6 JUMP JUMPDEST PUSH2 0xC11 JUMPI PUSH1 0x0 DUP4 DUP2 MSTORE PUSH1 0x20 DUP2 DUP2 MSTORE PUSH1 0x40 DUP1 DUP4 KECCAK256 PUSH1 0x1 PUSH1 0x1 PUSH1 0xA0 SHL SUB DUP7 AND DUP5 MSTORE SWAP1 SWAP2 MSTORE SWAP1 KECCAK256 DUP1 SLOAD PUSH1 0xFF NOT AND PUSH1 0x1 OR SWAP1 SSTORE PUSH2 0xBC9 CALLER SWAP1 JUMP JUMPDEST PUSH1 0x1 PUSH1 0x1 PUSH1 0xA0 SHL SUB AND DUP3 PUSH1 0x1 PUSH1 0x1 PUSH1 0xA0 SHL SUB AND DUP5 PUSH32 0x2F8788117E7EFF1D82E926EC794901D17C78024A50270940304540A733656F0D PUSH1 0x40 MLOAD PUSH1 0x40 MLOAD DUP1 SWAP2 SUB SWAP1 LOG4 POP PUSH1 0x1 PUSH2 0x4A4 JUMP JUMPDEST POP PUSH1 0x0 PUSH2 0x4A4 JUMP JUMPDEST PUSH1 0x0 PUSH2 0xC25 DUP4 DUP4 PUSH2 0x8B6 JUMP JUMPDEST ISZERO PUSH2 0xC11 JUMPI PUSH1 0x0 DUP4 DUP2 MSTORE PUSH1 0x20 DUP2 DUP2 MSTORE PUSH1 0x40 DUP1 DUP4 KECCAK256 PUSH1 0x1 PUSH1 0x1 PUSH1 0xA0 SHL SUB DUP7 AND DUP1 DUP6 MSTORE SWAP3 MSTORE DUP1 DUP4 KECCAK256 DUP1 SLOAD PUSH1 0xFF NOT AND SWAP1 SSTORE MLOAD CALLER SWAP3 DUP7 SWAP2 PUSH32 0xF6391F5C32D9C69D2A47EA670B442974B53935D1EDC7FD64EB21E047A839171B SWAP2 SWAP1 LOG4 POP PUSH1 0x1 PUSH2 0x4A4 JUMP JUMPDEST PUSH1 0x2 DUP1 SLOAD SUB PUSH2 0xCA6 JUMPI PUSH1 0x40 MLOAD PUSH4 0x3EE5AEB5 PUSH1 0xE0 SHL DUP2 MSTORE PUSH1 0x4 ADD PUSH1 0x40 MLOAD DUP1 SWAP2 SUB SWAP1 REVERT JUMPDEST PUSH1 0x2 DUP1 SSTORE JUMP JUMPDEST PUSH1 0x1 SLOAD PUSH1 0xFF AND ISZERO PUSH2 0xCD0 JUMPI PUSH1 0x40 MLOAD PUSH4 0xD93C0665 PUSH1 0xE0 SHL DUP2 MSTORE PUSH1 0x4 ADD PUSH1 0x40 MLOAD DUP1 SWAP2 SUB SWAP1 REVERT JUMPDEST JUMP JUMPDEST PUSH1 0x1 PUSH1 0x1 PUSH1 0xA0 SHL SUB DUP3 AND PUSH2 0xCE5 JUMPI POP POP POP JUMP JUMPDEST PUSH1 0x0 DUP4 DUP2 MSTORE PUSH1 0x6 PUSH1 0x20 MSTORE PUSH1 0x40 SWAP1 KECCAK256 SLOAD PUSH1 0xFF AND PUSH2 0xD6E JUMPI PUSH1 0x0 DUP4 DUP2 MSTORE PUSH1 0x8 PUSH1 0x20 SWAP1 DUP2 MSTORE PUSH1 0x40 DUP1 DUP4 KECCAK256 PUSH1 0x1 PUSH1 0x1 PUSH1 0xA0 SHL SUB DUP7 AND DUP5 MSTORE SWAP1 SWAP2 MSTORE DUP2 KECCAK256 SLOAD PUSH1 0x1 PUSH1 0x1 PUSH1 0x40 SHL SUB AND SWAP1 SUB PUSH2 0x5A8 JUMPI POP PUSH1 0x0 SWAP2 DUP3 MSTORE PUSH1 0x8 PUSH1 0x20 SWAP1 DUP2 MSTORE PUSH1 0x40 DUP1 DUP5 KECCAK256 PUSH1 0x1 PUSH1 0x1 PUSH1 0xA0 SHL SUB SWAP4 SWAP1 SWAP4 AND DUP5 MSTORE SWAP2 SWAP1 MSTORE SWAP1 KECCAK256 DUP1 SLOAD PUSH8 0xFFFFFFFFFFFFFFFF NOT AND TIMESTAMP PUSH1 0x1 PUSH1 0x1 PUSH1 0x40 SHL SUB AND OR SWAP1 SSTORE JUMP JUMPDEST PUSH1 0x0 DUP4 DUP2 MSTORE PUSH1 0x8 PUSH1 0x20 SWAP1 DUP2 MSTORE PUSH1 0x40 DUP1 DUP4 KECCAK256 PUSH1 0x1 PUSH1 0x1 PUSH1 0xA0 SHL SUB DUP7 AND DUP5 MSTORE SWAP1 SWAP2 MSTORE DUP2 KECCAK256 SLOAD PUSH1 0x1 PUSH1 0x1 PUSH1 0x40 SHL SUB AND SWAP1 TIMESTAMP SWAP1 DUP3 SWAP1 SUB PUSH2 0xDED JUMPI PUSH1 0x0 SWAP5 DUP6 MSTORE PUSH1 0x8 PUSH1 0x20 SWAP1 DUP2 MSTORE PUSH1 0x40 DUP1 DUP8 KECCAK256 PUSH1 0x1 PUSH1 0x1 PUSH1 0xA0 SHL SUB SWAP7 SWAP1 SWAP7 AND DUP8 MSTORE SWAP5 SWAP1 MSTORE SWAP3 SWAP1 SWAP4 KECCAK256 DUP1 SLOAD PUSH8 0xFFFFFFFFFFFFFFFF NOT AND PUSH1 0x1 PUSH1 0x1 PUSH1 0x40 SHL SUB SWAP1 SWAP4 AND SWAP3 SWAP1 SWAP3 OR SWAP1 SWAP2 SSTORE POP POP JUMP JUMPDEST DUP2 PUSH1 0x1 PUSH1 0x1 PUSH1 0x40 SHL SUB AND DUP2 PUSH1 0x1 PUSH1 0x1 PUSH1 0x40 SHL SUB AND GT PUSH2 0xE0D JUMPI POP POP POP POP POP JUMP JUMPDEST PUSH1 0x0 PUSH2 0xE2C DUP7 DUP6 PUSH2 0xE1E DUP7 DUP7 PUSH2 0x1256 JUMP JUMPDEST PUSH1 0x1 PUSH1 0x1 PUSH1 0x40 SHL SUB AND PUSH2 0x105C JUMP JUMPDEST SWAP1 POP DUP1 ISZERO PUSH2 0xEC2 JUMPI PUSH1 0x0 DUP7 DUP2 MSTORE PUSH1 0x7 PUSH1 0x20 SWAP1 DUP2 MSTORE PUSH1 0x40 DUP1 DUP4 KECCAK256 PUSH1 0x1 PUSH1 0x1 PUSH1 0xA0 SHL SUB DUP10 AND DUP5 MSTORE SWAP1 SWAP2 MSTORE DUP2 KECCAK256 DUP1 SLOAD DUP4 SWAP3 SWAP1 PUSH2 0xE66 SWAP1 DUP5 SWAP1 PUSH2 0x1243 JUMP JUMPDEST SWAP1 SWAP2 SSTORE POP POP PUSH1 0x40 DUP1 MLOAD DUP3 DUP2 MSTORE PUSH1 0x1 PUSH1 0x1 PUSH1 0x40 SHL SUB DUP6 DUP2 AND PUSH1 0x20 DUP4 ADD MSTORE DUP5 AND DUP2 DUP4 ADD MSTORE SWAP1 MLOAD DUP8 SWAP2 PUSH1 0x1 PUSH1 0x1 PUSH1 0xA0 SHL SUB DUP9 AND SWAP2 PUSH32 0x911DCDCEE83DD2D754CDCA9531E952C6FE163D3B6558324822491347CFC24527 SWAP2 DUP2 SWAP1 SUB PUSH1 0x60 ADD SWAP1 LOG3 JUMPDEST POP PUSH1 0x0 SWAP5 DUP6 MSTORE PUSH1 0x8 PUSH1 0x20 SWAP1 DUP2 MSTORE PUSH1 0x40 DUP1 DUP8 KECCAK256 PUSH1 0x1 PUSH1 0x1 PUSH1 0xA0 SHL SUB SWAP7 SWAP1 SWAP7 AND DUP8 MSTORE SWAP5 SWAP1 MSTORE SWAP3 SWAP1 SWAP4 KECCAK256 DUP1 SLOAD PUSH8 0xFFFFFFFFFFFFFFFF NOT AND PUSH1 0x1 PUSH1 0x1 PUSH1 0x40 SHL SUB SWAP1 SWAP4 AND SWAP3 SWAP1 SWAP3 OR SWAP1 SWAP2 SSTORE POP POP JUMP JUMPDEST PUSH2 0xF14 PUSH2 0x10F5 JUMP JUMPDEST PUSH1 0x1 DUP1 SLOAD PUSH1 0xFF NOT AND SWAP1 SSTORE PUSH32 0x5DB9EE0A495BF2E6FF9C91A7834C1BA4FDD244A5E8AA4E537BD38AEAE4B073AA CALLER JUMPDEST PUSH1 0x40 MLOAD PUSH1 0x1 PUSH1 0x1 PUSH1 0xA0 SHL SUB SWAP1 SWAP2 AND DUP2 MSTORE PUSH1 0x20 ADD PUSH1 0x40 MLOAD DUP1 SWAP2 SUB SWAP1 LOG1 JUMP JUMPDEST PUSH2 0xF66 PUSH2 0xCAC JUMP JUMPDEST PUSH1 0x1 DUP1 SLOAD PUSH1 0xFF NOT AND DUP2 OR SWAP1 SSTORE PUSH32 0x62E78CEA01BEE320CD4E420270B5EA74000D11B0C9F74754EBDBFC544B05A258 CALLER PUSH2 0xF41 JUMP JUMPDEST PUSH1 0x0 DUP4 DUP2 MSTORE PUSH1 0x6 PUSH1 0x20 MSTORE PUSH1 0x40 DUP2 KECCAK256 SLOAD PUSH1 0xFF AND PUSH2 0xFB7 JUMPI POP PUSH1 0x0 PUSH2 0x101C JUMP JUMPDEST PUSH1 0x0 DUP5 DUP2 MSTORE PUSH1 0x8 PUSH1 0x20 SWAP1 DUP2 MSTORE PUSH1 0x40 DUP1 DUP4 KECCAK256 PUSH1 0x1 PUSH1 0x1 PUSH1 0xA0 SHL SUB DUP8 AND DUP5 MSTORE SWAP1 SWAP2 MSTORE DUP2 KECCAK256 SLOAD PUSH1 0x1 PUSH1 0x1 PUSH1 0x40 SHL SUB AND SWAP1 DUP2 SWAP1 SUB PUSH2 0xFF5 JUMPI PUSH1 0x0 SWAP2 POP POP PUSH2 0x101C JUMP JUMPDEST PUSH1 0x0 PUSH2 0x100A PUSH1 0x1 PUSH1 0x1 PUSH1 0x40 SHL SUB DUP4 AND TIMESTAMP PUSH2 0x127D JUMP JUMPDEST SWAP1 POP PUSH2 0x1017 DUP7 DUP6 DUP4 PUSH2 0x105C JUMP JUMPDEST SWAP3 POP POP POP JUMPDEST SWAP4 SWAP3 POP POP POP JUMP JUMPDEST PUSH2 0x102D DUP3 DUP3 PUSH2 0x8B6 JUMP JUMPDEST PUSH2 0x892 JUMPI PUSH1 0x40 MLOAD PUSH4 0xE2517D3F PUSH1 0xE0 SHL DUP2 MSTORE PUSH1 0x1 PUSH1 0x1 PUSH1 0xA0 SHL SUB DUP3 AND PUSH1 0x4 DUP3 ADD MSTORE PUSH1 0x24 DUP2 ADD DUP4 SWAP1 MSTORE PUSH1 0x44 ADD PUSH2 0x6DF JUMP JUMPDEST PUSH1 0x0 DUP3 ISZERO DUP1 PUSH2 0x1069 JUMPI POP DUP2 ISZERO JUMPDEST ISZERO PUSH2 0x1076 JUMPI POP PUSH1 0x0 PUSH2 0x101C JUMP JUMPDEST PUSH1 0x0 DUP5 DUP2 MSTORE PUSH1 0x5 PUSH1 0x20 MSTORE PUSH1 0x40 DUP2 KECCAK256 SLOAD SWAP1 DUP2 SWAP1 SUB PUSH2 0x1097 JUMPI PUSH1 0x0 SWAP2 POP POP PUSH2 0x101C JUMP JUMPDEST PUSH1 0x0 PUSH2 0x10A3 DUP3 DUP7 PUSH2 0x1290 JUMP JUMPDEST SWAP1 POP PUSH1 0x0 PUSH1 0x4 SLOAD DUP6 PUSH2 0x10B5 SWAP2 SWAP1 PUSH2 0x1290 JUMP JUMPDEST SWAP1 POP PUSH2 0x10C7 PUSH4 0x1E13380 PUSH2 0x2710 PUSH2 0x1290 JUMP JUMPDEST DUP2 PUSH1 0x3 SLOAD DUP5 PUSH2 0x10D6 SWAP2 SWAP1 PUSH2 0x1290 JUMP JUMPDEST PUSH2 0x10E0 SWAP2 SWAP1 PUSH2 0x1290 JUMP JUMPDEST PUSH2 0x10EA SWAP2 SWAP1 PUSH2 0x12A7 JUMP JUMPDEST SWAP8 SWAP7 POP POP POP POP POP POP POP JUMP JUMPDEST PUSH1 0x1 SLOAD PUSH1 0xFF AND PUSH2 0xCD0 JUMPI PUSH1 0x40 MLOAD PUSH4 0x8DFC202B PUSH1 0xE0 SHL DUP2 MSTORE PUSH1 0x4 ADD PUSH1 0x40 MLOAD DUP1 SWAP2 SUB SWAP1 REVERT JUMPDEST PUSH1 0x0 PUSH1 0x20 DUP3 DUP5 SUB SLT ISZERO PUSH2 0x112A JUMPI PUSH1 0x0 DUP1 REVERT JUMPDEST DUP2 CALLDATALOAD PUSH1 0x1 PUSH1 0x1 PUSH1 0xE0 SHL SUB NOT DUP2 AND DUP2 EQ PUSH2 0x101C JUMPI PUSH1 0x0 DUP1 REVERT JUMPDEST PUSH1 0x0 DUP1 PUSH1 0x0 PUSH1 0x60 DUP5 DUP7 SUB SLT ISZERO PUSH2 0x1157 JUMPI PUSH1 0x0 DUP1 REVERT JUMPDEST DUP4 CALLDATALOAD SWAP3 POP PUSH1 0x20 DUP5 ADD CALLDATALOAD SWAP2 POP PUSH1 0x40 DUP5 ADD CALLDATALOAD DUP1 ISZERO ISZERO DUP2 EQ PUSH2 0x1175 JUMPI PUSH1 0x0 DUP1 REVERT JUMPDEST DUP1 SWAP2 POP POP SWAP3 POP SWAP3 POP SWAP3 JUMP JUMPDEST PUSH1 0x0 PUSH1 0x20 DUP3 DUP5 SUB SLT ISZERO PUSH2 0x1192 JUMPI PUSH1 0x0 DUP1 REVERT JUMPDEST POP CALLDATALOAD SWAP2 SWAP1 POP JUMP JUMPDEST DUP1 CALLDATALOAD PUSH1 0x1 PUSH1 0x1 PUSH1 0xA0 SHL SUB DUP2 AND DUP2 EQ PUSH2 0x11B0 JUMPI PUSH1 0x0 DUP1 REVERT JUMPDEST SWAP2 SWAP1 POP JUMP JUMPDEST PUSH1 0x0 DUP1 PUSH1 0x40 DUP4 DUP6 SUB SLT ISZERO PUSH2 0x11C8 JUMPI PUSH1 0x0 DUP1 REVERT JUMPDEST DUP3 CALLDATALOAD SWAP2 POP PUSH2 0x11D8 PUSH1 0x20 DUP5 ADD PUSH2 0x1199 JUMP JUMPDEST SWAP1 POP SWAP3 POP SWAP3 SWAP1 POP JUMP JUMPDEST PUSH1 0x0 DUP1 PUSH1 0x0 PUSH1 0x60 DUP5 DUP7 SUB SLT ISZERO PUSH2 0x11F6 JUMPI PUSH1 0x0 DUP1 REVERT JUMPDEST PUSH2 0x11FF DUP5 PUSH2 0x1199 JUMP JUMPDEST SWAP6 PUSH1 0x20 DUP6 ADD CALLDATALOAD SWAP6 POP PUSH1 0x40 SWAP1 SWAP5 ADD CALLDATALOAD SWAP4 SWAP3 POP POP POP JUMP JUMPDEST PUSH1 0x0 PUSH1 0x20 DUP3 DUP5 SUB SLT ISZERO PUSH2 0x1226 JUMPI PUSH1 0x0 DUP1 REVERT JUMPDEST POP MLOAD SWAP2 SWAP1 POP JUMP JUMPDEST PUSH4 0x4E487B71 PUSH1 0xE0 SHL PUSH1 0x0 MSTORE PUSH1 0x11 PUSH1 0x4 MSTORE PUSH1 0x24 PUSH1 0x0 REVERT JUMPDEST DUP1 DUP3 ADD DUP1 DUP3 GT ISZERO PUSH2 0x4A4 JUMPI PUSH2 0x4A4 PUSH2 0x122D JUMP JUMPDEST PUSH1 0x1 PUSH1 0x1 PUSH1 0x40 SHL SUB DUP3 DUP2 AND DUP3 DUP3 AND SUB SWAP1 DUP1 DUP3 GT ISZERO PUSH2 0x1276 JUMPI PUSH2 0x1276 PUSH2 0x122D JUMP JUMPDEST POP SWAP3 SWAP2 POP POP JUMP JUMPDEST DUP2 DUP2 SUB DUP2 DUP2 GT ISZERO PUSH2 0x4A4 JUMPI PUSH2 0x4A4 PUSH2 0x122D JUMP JUMPDEST DUP1 DUP3 MUL DUP2 ISZERO DUP3 DUP3 DIV DUP5 EQ OR PUSH2 0x4A4 JUMPI PUSH2 0x4A4 PUSH2 0x122D JUMP JUMPDEST PUSH1 0x0 DUP3 PUSH2 0x12C4 JUMPI PUSH4 0x4E487B71 PUSH1 0xE0 SHL PUSH1 0x0 MSTORE PUSH1 0x12 PUSH1 0x4 MSTORE PUSH1 0x24 PUSH1 0x0 REVERT JUMPDEST POP DIV SWAP1 JUMP INVALID SWAP8 PUSH7 0x7070C54EF182B0 CREATE2 DUP6 DUP12 SUB 0x4B 0xEA 0xC1 0xB6 RETURN ADDMOD SWAP11 LOG2 0xD3 XOR DUP12 0xB1 0xE8 SWAP3 SWAP16 0x4F 0xA9 0xB9 0x29 LOG2 PUSH5 0x6970667358 0x22 SLT KECCAK256 0xBC 0xCB 0x24 0xC9 0xEE EXTCODESIZE PUSH13 0x29BBE4F74D6EFDD32316A2BDE3 0x25 CREATE EXTCODECOPY 0xBA 0xCE GAS PUSH6 0x992644209664 PUSH20 0x6F6C634300081800330000000000000000000000 "},"methodIdentifiers":{"BPS()":"249d39e9","DEFAULT_ADMIN_ROLE()":"a217fddf","OPERATOR_ROLE()":"f5b541a6","YEAR_SECONDS()":"b330db28","accrue(uint256)":"744f4cf6","accrueFromAsset(address,uint256,uint256)":"bbd71b58","accrued(uint256,address)":"9a157e3d","aprBps()":"25ac1df2","asset()":"38d52e0f","claim(uint256)":"379607f5","claimable(uint256,address)":"a0c7f71c","configureSeries(uint256,uint256,bool)":"18794931","getRoleAdmin(bytes32)":"248a9ca3","grantRole(bytes32,address)":"2f2ff15d","hasRole(bytes32,address)":"91d14854","lastAccruedAt(uint256,address)":"9e216a32","pause()":"8456cb59","paused()":"5c975abb","rateMultiplier()":"330691ac","renounceRole(bytes32,address)":"36568abe","revokeRole(bytes32,address)":"d547741f","seriesEnabled(uint256)":"70b54c0a","setAprBps(uint256)":"c06e9be2","setRateMultiplier(uint256)":"ab7a2252","supportsInterface(bytes4)":"01ffc9a7","unitPriceWeiByTokenId(uint256)":"c872457b","unpause()":"3f4ba83a","wft()":"b0122514"}},"storageLayout":{"storage":[{"astId":27,"contract":"contracts/rbt/RBTInterestVault.sol:RBTInterestVault","label":"_roles","offset":0,"slot":"0","type":"t_mapping(t_bytes32,t_struct(RoleData)22_storage)"},{"astId":3129,"contract":"contracts/rbt/RBTInterestVault.sol:RBTInterestVault","label":"_paused","offset":0,"slot":"1","type":"t_bool"},{"astId":3239,"contract":"contracts/rbt/RBTInterestVault.sol:RBTInterestVault","label":"_status","offset":0,"slot":"2","type":"t_uint256"},{"astId":8567,"contract":"contracts/rbt/RBTInterestVault.sol:RBTInterestVault","label":"aprBps","offset":0,"slot":"3","type":"t_uint256"},{"astId":8569,"contract":"contracts/rbt/RBTInterestVault.sol:RBTInterestVault","label":"rateMultiplier","offset":0,"slot":"4","type":"t_uint256"},{"astId":8573,"contract":"contracts/rbt/RBTInterestVault.sol:RBTInterestVault","label":"unitPriceWeiByTokenId","offset":0,"slot":"5","type":"t_mapping(t_uint256,t_uint256)"},{"astId":8577,"contract":"contracts/rbt/RBTInterestVault.sol:RBTInterestVault","label":"seriesEnabled","offset":0,"slot":"6","type":"t_mapping(t_uint256,t_bool)"},{"astId":8583,"contract":"contracts/rbt/RBTInterestVault.sol:RBTInterestVault","label":"accrued","offset":0,"slot":"7","type":"t_mapping(t_uint256,t_mapping(t_address,t_uint256))"},{"astId":8589,"contract":"contracts/rbt/RBTInterestVault.sol:RBTInterestVault","label":"lastAccruedAt","offset":0,"slot":"8","type":"t_mapping(t_uint256,t_mapping(t_address,t_uint64))"}],"types":{"t_address":{"encoding":"inplace","label":"address","numberOfBytes":"20"},"t_bool":{"encoding":"inplace","label":"bool","numberOfBytes":"1"},"t_bytes32":{"encoding":"inplace","label":"bytes32","numberOfBytes":"32"},"t_mapping(t_address,t_bool)":{"encoding":"mapping","key":"t_address","label":"mapping(address => bool)","numberOfBytes":"32","value":"t_bool"},"t_mapping(t_address,t_uint256)":{"encoding":"mapping","key":"t_address","label":"mapping(address => uint256)","numberOfBytes":"32","value":"t_uint256"},"t_mapping(t_address,t_uint64)":{"encoding":"mapping","key":"t_address","label":"mapping(address => uint64)","numberOfBytes":"32","value":"t_uint64"},"t_mapping(t_bytes32,t_struct(RoleData)22_storage)":{"encoding":"mapping","key":"t_bytes32","label":"mapping(bytes32 => struct AccessControl.RoleData)","numberOfBytes":"32","value":"t_struct(RoleData)22_storage"},"t_mapping(t_uint256,t_bool)":{"encoding":"mapping","key":"t_uint256","label":"mapping(uint256 => bool)","numberOfBytes":"32","value":"t_bool"},"t_mapping(t_uint256,t_mapping(t_address,t_uint256))":{"encoding":"mapping","key":"t_uint256","label":"mapping(uint256 => mapping(address => uint256))","numberOfBytes":"32","value":"t_mapping(t_address,t_uint256)"},"t_mapping(t_uint256,t_mapping(t_address,t_uint64))":{"encoding":"mapping","key":"t_uint256","label":"mapping(uint256 => mapping(address => uint64))","numberOfBytes":"32","value":"t_mapping(t_address,t_uint64)"},"t_mapping(t_uint256,t_uint256)":{"encoding":"mapping","key":"t_uint256","label":"mapping(uint256 => uint256)","numberOfBytes":"32","value":"t_uint256"},"t_struct(RoleData)22_storage":{"encoding":"inplace","label":"struct AccessControl.RoleData","members":[{"astId":19,"contract":"contracts/rbt/RBTInterestVault.sol:RBTInterestVault","label":"hasRole","offset":0,"slot":"0","type":"t_mapping(t_address,t_bool)"},{"astId":21,"contract":"contracts/rbt/RBTInterestVault.sol:RBTInterestVault","label":"adminRole","offset":0,"slot":"1","type":"t_bytes32"}],"numberOfBytes":"64"},"t_uint256":{"encoding":"inplace","label":"uint256","numberOfBytes":"32"},"t_uint64":{"encoding":"inplace","label":"uint64","numberOfBytes":"8"}}}}}}