{
  "_format": "hh-sol-artifact-1",
  "contractName": "WFTToken",
  "sourceName": "contracts/wft/WFTToken.sol",
  "abi": [
    {
      "inputs": [],
      "name": "AccessControlBadConfirmation",
      "type": "error"
    },
    {
      "inputs": [
        {
          "internalType": "address",
          "name": "account",
          "type": "address"
        },
        {
          "internalType": "bytes32",
          "name": "neededRole",
          "type": "bytes32"
        }
      ],
      "name": "AccessControlUnauthorizedAccount",
      "type": "error"
    },
    {
      "inputs": [
        {
          "internalType": "address",
          "name": "target",
          "type": "address"
        }
      ],
      "name": "AddressEmptyCode",
      "type": "error"
    },
    {
      "inputs": [],
      "name": "CheckpointUnorderedInsertion",
      "type": "error"
    },
    {
      "inputs": [],
      "name": "ECDSAInvalidSignature",
      "type": "error"
    },
    {
      "inputs": [
        {
          "internalType": "uint256",
          "name": "length",
          "type": "uint256"
        }
      ],
      "name": "ECDSAInvalidSignatureLength",
      "type": "error"
    },
    {
      "inputs": [
        {
          "internalType": "bytes32",
          "name": "s",
          "type": "bytes32"
        }
      ],
      "name": "ECDSAInvalidSignatureS",
      "type": "error"
    },
    {
      "inputs": [
        {
          "internalType": "address",
          "name": "implementation",
          "type": "address"
        }
      ],
      "name": "ERC1967InvalidImplementation",
      "type": "error"
    },
    {
      "inputs": [],
      "name": "ERC1967NonPayable",
      "type": "error"
    },
    {
      "inputs": [
        {
          "internalType": "uint256",
          "name": "increasedSupply",
          "type": "uint256"
        },
        {
          "internalType": "uint256",
          "name": "cap",
          "type": "uint256"
        }
      ],
      "name": "ERC20ExceededSafeSupply",
      "type": "error"
    },
    {
      "inputs": [
        {
          "internalType": "address",
          "name": "spender",
          "type": "address"
        },
        {
          "internalType": "uint256",
          "name": "allowance",
          "type": "uint256"
        },
        {
          "internalType": "uint256",
          "name": "needed",
          "type": "uint256"
        }
      ],
      "name": "ERC20InsufficientAllowance",
      "type": "error"
    },
    {
      "inputs": [
        {
          "internalType": "address",
          "name": "sender",
          "type": "address"
        },
        {
          "internalType": "uint256",
          "name": "balance",
          "type": "uint256"
        },
        {
          "internalType": "uint256",
          "name": "needed",
          "type": "uint256"
        }
      ],
      "name": "ERC20InsufficientBalance",
      "type": "error"
    },
    {
      "inputs": [
        {
          "internalType": "address",
          "name": "approver",
          "type": "address"
        }
      ],
      "name": "ERC20InvalidApprover",
      "type": "error"
    },
    {
      "inputs": [
        {
          "internalType": "address",
          "name": "receiver",
          "type": "address"
        }
      ],
      "name": "ERC20InvalidReceiver",
      "type": "error"
    },
    {
      "inputs": [
        {
          "internalType": "address",
          "name": "sender",
          "type": "address"
        }
      ],
      "name": "ERC20InvalidSender",
      "type": "error"
    },
    {
      "inputs": [
        {
          "internalType": "address",
          "name": "spender",
          "type": "address"
        }
      ],
      "name": "ERC20InvalidSpender",
      "type": "error"
    },
    {
      "inputs": [
        {
          "internalType": "uint256",
          "name": "deadline",
          "type": "uint256"
        }
      ],
      "name": "ERC2612ExpiredSignature",
      "type": "error"
    },
    {
      "inputs": [
        {
          "internalType": "address",
          "name": "signer",
          "type": "address"
        },
        {
          "internalType": "address",
          "name": "owner",
          "type": "address"
        }
      ],
      "name": "ERC2612InvalidSigner",
      "type": "error"
    },
    {
      "inputs": [
        {
          "internalType": "uint256",
          "name": "timepoint",
          "type": "uint256"
        },
        {
          "internalType": "uint48",
          "name": "clock",
          "type": "uint48"
        }
      ],
      "name": "ERC5805FutureLookup",
      "type": "error"
    },
    {
      "inputs": [],
      "name": "ERC6372InconsistentClock",
      "type": "error"
    },
    {
      "inputs": [],
      "name": "EnforcedPause",
      "type": "error"
    },
    {
      "inputs": [],
      "name": "ExpectedPause",
      "type": "error"
    },
    {
      "inputs": [],
      "name": "FailedCall",
      "type": "error"
    },
    {
      "inputs": [
        {
          "internalType": "address",
          "name": "account",
          "type": "address"
        },
        {
          "internalType": "uint256",
          "name": "currentNonce",
          "type": "uint256"
        }
      ],
      "name": "InvalidAccountNonce",
      "type": "error"
    },
    {
      "inputs": [],
      "name": "InvalidInitialization",
      "type": "error"
    },
    {
      "inputs": [],
      "name": "NotInitializing",
      "type": "error"
    },
    {
      "inputs": [
        {
          "internalType": "uint8",
          "name": "bits",
          "type": "uint8"
        },
        {
          "internalType": "uint256",
          "name": "value",
          "type": "uint256"
        }
      ],
      "name": "SafeCastOverflowedUintDowncast",
      "type": "error"
    },
    {
      "inputs": [],
      "name": "UUPSUnauthorizedCallContext",
      "type": "error"
    },
    {
      "inputs": [
        {
          "internalType": "bytes32",
          "name": "slot",
          "type": "bytes32"
        }
      ],
      "name": "UUPSUnsupportedProxiableUUID",
      "type": "error"
    },
    {
      "inputs": [
        {
          "internalType": "uint256",
          "name": "expiry",
          "type": "uint256"
        }
      ],
      "name": "VotesExpiredSignature",
      "type": "error"
    },
    {
      "anonymous": false,
      "inputs": [
        {
          "indexed": true,
          "internalType": "address",
          "name": "owner",
          "type": "address"
        },
        {
          "indexed": true,
          "internalType": "address",
          "name": "spender",
          "type": "address"
        },
        {
          "indexed": false,
          "internalType": "uint256",
          "name": "value",
          "type": "uint256"
        }
      ],
      "name": "Approval",
      "type": "event"
    },
    {
      "anonymous": false,
      "inputs": [
        {
          "indexed": true,
          "internalType": "address",
          "name": "delegator",
          "type": "address"
        },
        {
          "indexed": true,
          "internalType": "address",
          "name": "fromDelegate",
          "type": "address"
        },
        {
          "indexed": true,
          "internalType": "address",
          "name": "toDelegate",
          "type": "address"
        }
      ],
      "name": "DelegateChanged",
      "type": "event"
    },
    {
      "anonymous": false,
      "inputs": [
        {
          "indexed": true,
          "internalType": "address",
          "name": "delegate",
          "type": "address"
        },
        {
          "indexed": false,
          "internalType": "uint256",
          "name": "previousVotes",
          "type": "uint256"
        },
        {
          "indexed": false,
          "internalType": "uint256",
          "name": "newVotes",
          "type": "uint256"
        }
      ],
      "name": "DelegateVotesChanged",
      "type": "event"
    },
    {
      "anonymous": false,
      "inputs": [],
      "name": "EIP712DomainChanged",
      "type": "event"
    },
    {
      "anonymous": false,
      "inputs": [
        {
          "indexed": false,
          "internalType": "uint64",
          "name": "version",
          "type": "uint64"
        }
      ],
      "name": "Initialized",
      "type": "event"
    },
    {
      "anonymous": false,
      "inputs": [
        {
          "indexed": false,
          "internalType": "address",
          "name": "account",
          "type": "address"
        }
      ],
      "name": "Paused",
      "type": "event"
    },
    {
      "anonymous": false,
      "inputs": [
        {
          "indexed": true,
          "internalType": "bytes32",
          "name": "role",
          "type": "bytes32"
        },
        {
          "indexed": true,
          "internalType": "bytes32",
          "name": "previousAdminRole",
          "type": "bytes32"
        },
        {
          "indexed": true,
          "internalType": "bytes32",
          "name": "newAdminRole",
          "type": "bytes32"
        }
      ],
      "name": "RoleAdminChanged",
      "type": "event"
    },
    {
      "anonymous": false,
      "inputs": [
        {
          "indexed": true,
          "internalType": "bytes32",
          "name": "role",
          "type": "bytes32"
        },
        {
          "indexed": true,
          "internalType": "address",
          "name": "account",
          "type": "address"
        },
        {
          "indexed": true,
          "internalType": "address",
          "name": "sender",
          "type": "address"
        }
      ],
      "name": "RoleGranted",
      "type": "event"
    },
    {
      "anonymous": false,
      "inputs": [
        {
          "indexed": true,
          "internalType": "bytes32",
          "name": "role",
          "type": "bytes32"
        },
        {
          "indexed": true,
          "internalType": "address",
          "name": "account",
          "type": "address"
        },
        {
          "indexed": true,
          "internalType": "address",
          "name": "sender",
          "type": "address"
        }
      ],
      "name": "RoleRevoked",
      "type": "event"
    },
    {
      "anonymous": false,
      "inputs": [
        {
          "indexed": true,
          "internalType": "address",
          "name": "from",
          "type": "address"
        },
        {
          "indexed": true,
          "internalType": "address",
          "name": "to",
          "type": "address"
        },
        {
          "indexed": false,
          "internalType": "uint256",
          "name": "value",
          "type": "uint256"
        }
      ],
      "name": "Transfer",
      "type": "event"
    },
    {
      "anonymous": false,
      "inputs": [
        {
          "indexed": false,
          "internalType": "address",
          "name": "account",
          "type": "address"
        }
      ],
      "name": "Unpaused",
      "type": "event"
    },
    {
      "anonymous": false,
      "inputs": [
        {
          "indexed": true,
          "internalType": "address",
          "name": "implementation",
          "type": "address"
        }
      ],
      "name": "Upgraded",
      "type": "event"
    },
    {
      "inputs": [],
      "name": "CLOCK_MODE",
      "outputs": [
        {
          "internalType": "string",
          "name": "",
          "type": "string"
        }
      ],
      "stateMutability": "view",
      "type": "function"
    },
    {
      "inputs": [],
      "name": "DEFAULT_ADMIN_ROLE",
      "outputs": [
        {
          "internalType": "bytes32",
          "name": "",
          "type": "bytes32"
        }
      ],
      "stateMutability": "view",
      "type": "function"
    },
    {
      "inputs": [],
      "name": "DOMAIN_SEPARATOR",
      "outputs": [
        {
          "internalType": "bytes32",
          "name": "",
          "type": "bytes32"
        }
      ],
      "stateMutability": "view",
      "type": "function"
    },
    {
      "inputs": [],
      "name": "MINTER_ROLE",
      "outputs": [
        {
          "internalType": "bytes32",
          "name": "",
          "type": "bytes32"
        }
      ],
      "stateMutability": "view",
      "type": "function"
    },
    {
      "inputs": [],
      "name": "PAUSER_ROLE",
      "outputs": [
        {
          "internalType": "bytes32",
          "name": "",
          "type": "bytes32"
        }
      ],
      "stateMutability": "view",
      "type": "function"
    },
    {
      "inputs": [],
      "name": "UPGRADE_INTERFACE_VERSION",
      "outputs": [
        {
          "internalType": "string",
          "name": "",
          "type": "string"
        }
      ],
      "stateMutability": "view",
      "type": "function"
    },
    {
      "inputs": [
        {
          "internalType": "address",
          "name": "owner",
          "type": "address"
        },
        {
          "internalType": "address",
          "name": "spender",
          "type": "address"
        }
      ],
      "name": "allowance",
      "outputs": [
        {
          "internalType": "uint256",
          "name": "",
          "type": "uint256"
        }
      ],
      "stateMutability": "view",
      "type": "function"
    },
    {
      "inputs": [
        {
          "internalType": "address",
          "name": "spender",
          "type": "address"
        },
        {
          "internalType": "uint256",
          "name": "value",
          "type": "uint256"
        }
      ],
      "name": "approve",
      "outputs": [
        {
          "internalType": "bool",
          "name": "",
          "type": "bool"
        }
      ],
      "stateMutability": "nonpayable",
      "type": "function"
    },
    {
      "inputs": [
        {
          "internalType": "address",
          "name": "account",
          "type": "address"
        }
      ],
      "name": "balanceOf",
      "outputs": [
        {
          "internalType": "uint256",
          "name": "",
          "type": "uint256"
        }
      ],
      "stateMutability": "view",
      "type": "function"
    },
    {
      "inputs": [
        {
          "internalType": "uint256",
          "name": "amount",
          "type": "uint256"
        }
      ],
      "name": "burn",
      "outputs": [],
      "stateMutability": "nonpayable",
      "type": "function"
    },
    {
      "inputs": [
        {
          "internalType": "address",
          "name": "account",
          "type": "address"
        },
        {
          "internalType": "uint256",
          "name": "amount",
          "type": "uint256"
        }
      ],
      "name": "burnFrom",
      "outputs": [],
      "stateMutability": "nonpayable",
      "type": "function"
    },
    {
      "inputs": [
        {
          "internalType": "address",
          "name": "account",
          "type": "address"
        },
        {
          "internalType": "uint32",
          "name": "pos",
          "type": "uint32"
        }
      ],
      "name": "checkpoints",
      "outputs": [
        {
          "components": [
            {
              "internalType": "uint48",
              "name": "_key",
              "type": "uint48"
            },
            {
              "internalType": "uint208",
              "name": "_value",
              "type": "uint208"
            }
          ],
          "internalType": "struct Checkpoints.Checkpoint208",
          "name": "",
          "type": "tuple"
        }
      ],
      "stateMutability": "view",
      "type": "function"
    },
    {
      "inputs": [],
      "name": "clock",
      "outputs": [
        {
          "internalType": "uint48",
          "name": "",
          "type": "uint48"
        }
      ],
      "stateMutability": "view",
      "type": "function"
    },
    {
      "inputs": [],
      "name": "decimals",
      "outputs": [
        {
          "internalType": "uint8",
          "name": "",
          "type": "uint8"
        }
      ],
      "stateMutability": "view",
      "type": "function"
    },
    {
      "inputs": [
        {
          "internalType": "address",
          "name": "delegatee",
          "type": "address"
        }
      ],
      "name": "delegate",
      "outputs": [],
      "stateMutability": "nonpayable",
      "type": "function"
    },
    {
      "inputs": [
        {
          "internalType": "address",
          "name": "delegatee",
          "type": "address"
        },
        {
          "internalType": "uint256",
          "name": "nonce",
          "type": "uint256"
        },
        {
          "internalType": "uint256",
          "name": "expiry",
          "type": "uint256"
        },
        {
          "internalType": "uint8",
          "name": "v",
          "type": "uint8"
        },
        {
          "internalType": "bytes32",
          "name": "r",
          "type": "bytes32"
        },
        {
          "internalType": "bytes32",
          "name": "s",
          "type": "bytes32"
        }
      ],
      "name": "delegateBySig",
      "outputs": [],
      "stateMutability": "nonpayable",
      "type": "function"
    },
    {
      "inputs": [
        {
          "internalType": "address",
          "name": "account",
          "type": "address"
        }
      ],
      "name": "delegates",
      "outputs": [
        {
          "internalType": "address",
          "name": "",
          "type": "address"
        }
      ],
      "stateMutability": "view",
      "type": "function"
    },
    {
      "inputs": [],
      "name": "eip712Domain",
      "outputs": [
        {
          "internalType": "bytes1",
          "name": "fields",
          "type": "bytes1"
        },
        {
          "internalType": "string",
          "name": "name",
          "type": "string"
        },
        {
          "internalType": "string",
          "name": "version",
          "type": "string"
        },
        {
          "internalType": "uint256",
          "name": "chainId",
          "type": "uint256"
        },
        {
          "internalType": "address",
          "name": "verifyingContract",
          "type": "address"
        },
        {
          "internalType": "bytes32",
          "name": "salt",
          "type": "bytes32"
        },
        {
          "internalType": "uint256[]",
          "name": "extensions",
          "type": "uint256[]"
        }
      ],
      "stateMutability": "view",
      "type": "function"
    },
    {
      "inputs": [
        {
          "internalType": "uint256",
          "name": "timepoint",
          "type": "uint256"
        }
      ],
      "name": "getPastTotalSupply",
      "outputs": [
        {
          "internalType": "uint256",
          "name": "",
          "type": "uint256"
        }
      ],
      "stateMutability": "view",
      "type": "function"
    },
    {
      "inputs": [
        {
          "internalType": "address",
          "name": "account",
          "type": "address"
        },
        {
          "internalType": "uint256",
          "name": "timepoint",
          "type": "uint256"
        }
      ],
      "name": "getPastVotes",
      "outputs": [
        {
          "internalType": "uint256",
          "name": "",
          "type": "uint256"
        }
      ],
      "stateMutability": "view",
      "type": "function"
    },
    {
      "inputs": [
        {
          "internalType": "bytes32",
          "name": "role",
          "type": "bytes32"
        }
      ],
      "name": "getRoleAdmin",
      "outputs": [
        {
          "internalType": "bytes32",
          "name": "",
          "type": "bytes32"
        }
      ],
      "stateMutability": "view",
      "type": "function"
    },
    {
      "inputs": [
        {
          "internalType": "address",
          "name": "account",
          "type": "address"
        }
      ],
      "name": "getVotes",
      "outputs": [
        {
          "internalType": "uint256",
          "name": "",
          "type": "uint256"
        }
      ],
      "stateMutability": "view",
      "type": "function"
    },
    {
      "inputs": [
        {
          "internalType": "bytes32",
          "name": "role",
          "type": "bytes32"
        },
        {
          "internalType": "address",
          "name": "account",
          "type": "address"
        }
      ],
      "name": "grantRole",
      "outputs": [],
      "stateMutability": "nonpayable",
      "type": "function"
    },
    {
      "inputs": [
        {
          "internalType": "bytes32",
          "name": "role",
          "type": "bytes32"
        },
        {
          "internalType": "address",
          "name": "account",
          "type": "address"
        }
      ],
      "name": "hasRole",
      "outputs": [
        {
          "internalType": "bool",
          "name": "",
          "type": "bool"
        }
      ],
      "stateMutability": "view",
      "type": "function"
    },
    {
      "inputs": [
        {
          "internalType": "address",
          "name": "admin",
          "type": "address"
        },
        {
          "internalType": "string",
          "name": "_termsURI",
          "type": "string"
        }
      ],
      "name": "initialize",
      "outputs": [],
      "stateMutability": "nonpayable",
      "type": "function"
    },
    {
      "inputs": [
        {
          "internalType": "address",
          "name": "to",
          "type": "address"
        },
        {
          "internalType": "uint256",
          "name": "amount",
          "type": "uint256"
        }
      ],
      "name": "mint",
      "outputs": [],
      "stateMutability": "nonpayable",
      "type": "function"
    },
    {
      "inputs": [],
      "name": "name",
      "outputs": [
        {
          "internalType": "string",
          "name": "",
          "type": "string"
        }
      ],
      "stateMutability": "view",
      "type": "function"
    },
    {
      "inputs": [
        {
          "internalType": "address",
          "name": "owner",
          "type": "address"
        }
      ],
      "name": "nonces",
      "outputs": [
        {
          "internalType": "uint256",
          "name": "",
          "type": "uint256"
        }
      ],
      "stateMutability": "view",
      "type": "function"
    },
    {
      "inputs": [
        {
          "internalType": "address",
          "name": "account",
          "type": "address"
        }
      ],
      "name": "numCheckpoints",
      "outputs": [
        {
          "internalType": "uint32",
          "name": "",
          "type": "uint32"
        }
      ],
      "stateMutability": "view",
      "type": "function"
    },
    {
      "inputs": [],
      "name": "pause",
      "outputs": [],
      "stateMutability": "nonpayable",
      "type": "function"
    },
    {
      "inputs": [],
      "name": "paused",
      "outputs": [
        {
          "internalType": "bool",
          "name": "",
          "type": "bool"
        }
      ],
      "stateMutability": "view",
      "type": "function"
    },
    {
      "inputs": [
        {
          "internalType": "address",
          "name": "owner",
          "type": "address"
        },
        {
          "internalType": "address",
          "name": "spender",
          "type": "address"
        },
        {
          "internalType": "uint256",
          "name": "value",
          "type": "uint256"
        },
        {
          "internalType": "uint256",
          "name": "deadline",
          "type": "uint256"
        },
        {
          "internalType": "uint8",
          "name": "v",
          "type": "uint8"
        },
        {
          "internalType": "bytes32",
          "name": "r",
          "type": "bytes32"
        },
        {
          "internalType": "bytes32",
          "name": "s",
          "type": "bytes32"
        }
      ],
      "name": "permit",
      "outputs": [],
      "stateMutability": "nonpayable",
      "type": "function"
    },
    {
      "inputs": [],
      "name": "proxiableUUID",
      "outputs": [
        {
          "internalType": "bytes32",
          "name": "",
          "type": "bytes32"
        }
      ],
      "stateMutability": "view",
      "type": "function"
    },
    {
      "inputs": [
        {
          "internalType": "bytes32",
          "name": "role",
          "type": "bytes32"
        },
        {
          "internalType": "address",
          "name": "callerConfirmation",
          "type": "address"
        }
      ],
      "name": "renounceRole",
      "outputs": [],
      "stateMutability": "nonpayable",
      "type": "function"
    },
    {
      "inputs": [
        {
          "internalType": "bytes32",
          "name": "role",
          "type": "bytes32"
        },
        {
          "internalType": "address",
          "name": "account",
          "type": "address"
        }
      ],
      "name": "revokeRole",
      "outputs": [],
      "stateMutability": "nonpayable",
      "type": "function"
    },
    {
      "inputs": [
        {
          "internalType": "string",
          "name": "_termsURI",
          "type": "string"
        }
      ],
      "name": "setTermsURI",
      "outputs": [],
      "stateMutability": "nonpayable",
      "type": "function"
    },
    {
      "inputs": [
        {
          "internalType": "bytes4",
          "name": "interfaceId",
          "type": "bytes4"
        }
      ],
      "name": "supportsInterface",
      "outputs": [
        {
          "internalType": "bool",
          "name": "",
          "type": "bool"
        }
      ],
      "stateMutability": "view",
      "type": "function"
    },
    {
      "inputs": [],
      "name": "symbol",
      "outputs": [
        {
          "internalType": "string",
          "name": "",
          "type": "string"
        }
      ],
      "stateMutability": "view",
      "type": "function"
    },
    {
      "inputs": [],
      "name": "termsURI",
      "outputs": [
        {
          "internalType": "string",
          "name": "",
          "type": "string"
        }
      ],
      "stateMutability": "view",
      "type": "function"
    },
    {
      "inputs": [],
      "name": "totalSupply",
      "outputs": [
        {
          "internalType": "uint256",
          "name": "",
          "type": "uint256"
        }
      ],
      "stateMutability": "view",
      "type": "function"
    },
    {
      "inputs": [
        {
          "internalType": "address",
          "name": "to",
          "type": "address"
        },
        {
          "internalType": "uint256",
          "name": "value",
          "type": "uint256"
        }
      ],
      "name": "transfer",
      "outputs": [
        {
          "internalType": "bool",
          "name": "",
          "type": "bool"
        }
      ],
      "stateMutability": "nonpayable",
      "type": "function"
    },
    {
      "inputs": [
        {
          "internalType": "address",
          "name": "from",
          "type": "address"
        },
        {
          "internalType": "address",
          "name": "to",
          "type": "address"
        },
        {
          "internalType": "uint256",
          "name": "value",
          "type": "uint256"
        }
      ],
      "name": "transferFrom",
      "outputs": [
        {
          "internalType": "bool",
          "name": "",
          "type": "bool"
        }
      ],
      "stateMutability": "nonpayable",
      "type": "function"
    },
    {
      "inputs": [],
      "name": "unpause",
      "outputs": [],
      "stateMutability": "nonpayable",
      "type": "function"
    },
    {
      "inputs": [
        {
          "internalType": "address",
          "name": "newImplementation",
          "type": "address"
        },
        {
          "internalType": "bytes",
          "name": "data",
          "type": "bytes"
        }
      ],
      "name": "upgradeToAndCall",
      "outputs": [],
      "stateMutability": "payable",
      "type": "function"
    }
  ],
  "bytecode": "0x60a06040523060805234801561001457600080fd5b5060805161349161003e600039600081816116c8015281816116f1015261183701526134916000f3fe6080604052600436106102675760003560e01c806379cc679011610144578063ad3cb1cc116100b6578063d547741f1161007a578063d547741f14610770578063dd62ed3e14610790578063e63ab1e9146107b0578063f1127ed8146107d2578063f399e22e1461081e578063f5c925d91461083e57600080fd5b8063ad3cb1cc146106ab578063b81095a0146106dc578063c3cda520146106fc578063d505accf1461071c578063d53913931461073c57600080fd5b806391d148541161010857806391d14854146105f557806391ddadf41461061557806395d89b41146106415780639ab24eb014610656578063a217fddf14610676578063a9059cbb1461068b57600080fd5b806379cc6790146105585780637ecebe00146105785780638456cb591461059857806384b0196e146105ad5780638e539e8c146105d557600080fd5b80633f4ba83a116101dd57806352d1902d116101a157806352d1902d14610471578063587cde1e146104865780635c19a95c146104be5780635c975abb146104de5780636fcfff451461050357806370a082311461053857600080fd5b80633f4ba83a146103f457806340c10f191461040957806342966c68146104295780634bf5d7e9146104495780634f1ef2861461045e57600080fd5b8063248a9ca31161022f578063248a9ca3146103415780632f2ff15d14610361578063313ce567146103835780633644e5151461039f57806336568abe146103b45780633a46b1a8146103d457600080fd5b806301ffc9a71461026c57806306fdde03146102a1578063095ea7b3146102c357806318160ddd146102e357806323b872dd14610321575b600080fd5b34801561027857600080fd5b5061028c610287366004612b61565b610853565b60405190151581526020015b60405180910390f35b3480156102ad57600080fd5b506102b661088a565b6040516102989190612bdb565b3480156102cf57600080fd5b5061028c6102de366004612c0a565b610933565b3480156102ef57600080fd5b507f52c63247e1f47db19d5ce0460030c497f067ca4cebf71ba98eeadabe20bace02545b604051908152602001610298565b34801561032d57600080fd5b5061028c61033c366004612c34565b61094b565b34801561034d57600080fd5b5061031361035c366004612c70565b610971565b34801561036d57600080fd5b5061038161037c366004612c89565b610993565b005b34801561038f57600080fd5b5060405160128152602001610298565b3480156103ab57600080fd5b506103136109b5565b3480156103c057600080fd5b506103816103cf366004612c89565b6109c4565b3480156103e057600080fd5b506103136103ef366004612c0a565b6109fc565b34801561040057600080fd5b50610381610a4a565b34801561041557600080fd5b50610381610424366004612c0a565b610a6d565b34801561043557600080fd5b50610381610444366004612c70565b610aa1565b34801561045557600080fd5b506102b6610aab565b61038161046c366004612ccb565b610b23565b34801561047d57600080fd5b50610313610b42565b34801561049257600080fd5b506104a66104a1366004612d8d565b610b5f565b6040516001600160a01b039091168152602001610298565b3480156104ca57600080fd5b506103816104d9366004612d8d565b610b8a565b3480156104ea57600080fd5b5060008051602061343c8339815191525460ff1661028c565b34801561050f57600080fd5b5061052361051e366004612d8d565b610b95565b60405163ffffffff9091168152602001610298565b34801561054457600080fd5b50610313610553366004612d8d565b610ba0565b34801561056457600080fd5b50610381610573366004612c0a565b610bd3565b34801561058457600080fd5b50610313610593366004612d8d565b610be8565b3480156105a457600080fd5b50610381610bf3565b3480156105b957600080fd5b506105c2610c13565b6040516102989796959493929190612da8565b3480156105e157600080fd5b506103136105f0366004612c70565b610cc4565b34801561060157600080fd5b5061028c610610366004612c89565b610cfb565b34801561062157600080fd5b5061062a610d33565b60405165ffffffffffff9091168152602001610298565b34801561064d57600080fd5b506102b6610d3d565b34801561066257600080fd5b50610313610671366004612d8d565b610d7c565b34801561068257600080fd5b50610313600081565b34801561069757600080fd5b5061028c6106a6366004612c0a565b610dcc565b3480156106b757600080fd5b506102b6604051806040016040528060058152602001640352e302e360dc1b81525081565b3480156106e857600080fd5b506103816106f7366004612e8a565b610dda565b34801561070857600080fd5b50610381610717366004612edd565b610df2565b34801561072857600080fd5b50610381610737366004612f35565b610eaf565b34801561074857600080fd5b506103137f9f2df0fed2c77648de5860a4cc508cd0818c85b8b8a1ab4ceeef8d981c8956a681565b34801561077c57600080fd5b5061038161078b366004612c89565b610fcb565b34801561079c57600080fd5b506103136107ab366004612f9f565b610fe7565b3480156107bc57600080fd5b506103136000805160206133fc83398151915281565b3480156107de57600080fd5b506107f26107ed366004612fc9565b611031565b60408051825165ffffffffffff1681526020928301516001600160d01b03169281019290925201610298565b34801561082a57600080fd5b50610381610839366004613009565b61104f565b34801561084a57600080fd5b506102b661124a565b60006001600160e01b03198216637965db0b60e01b148061088457506301ffc9a760e01b6001600160e01b03198316145b92915050565b6060600060008051602061339c8339815191525b90508060030180546108af9061305c565b80601f01602080910402602001604051908101604052809291908181526020018280546108db9061305c565b80156109285780601f106108fd57610100808354040283529160200191610928565b820191906000526020600020905b81548152906001019060200180831161090b57829003601f168201915b505050505091505090565b6000336109418185856112d8565b5060019392505050565b6000336109598582856112e5565b610964858585611346565b60019150505b9392505050565b600090815260008051602061341c833981519152602052604090206001015490565b61099c82610971565b6109a5816113a5565b6109af83836113af565b50505050565b60006109bf61145b565b905090565b6001600160a01b03811633146109ed5760405163334bd91960e11b815260040160405180910390fd5b6109f78282611465565b505050565b600060008051602061337c833981519152610a39610a19846114e1565b6001600160a01b0386166000908152600184016020526040902090611530565b6001600160d01b0316949350505050565b6000805160206133fc833981519152610a62816113a5565b610a6a6115e6565b50565b7f9f2df0fed2c77648de5860a4cc508cd0818c85b8b8a1ab4ceeef8d981c8956a6610a97816113a5565b6109f78383611646565b610a6a338261167c565b6060610ab56116b2565b65ffffffffffff16610ac5610d33565b65ffffffffffff1614610aeb576040516301bfc1c560e61b815260040160405180910390fd5b5060408051808201909152601d81527f6d6f64653d626c6f636b6e756d6265722666726f6d3d64656661756c74000000602082015290565b610b2b6116bd565b610b3482611764565b610b3e828261176f565b5050565b6000610b4c61182c565b506000805160206133dc83398151915290565b6001600160a01b03908116600090815260008051602061337c83398151915260205260409020541690565b33610b3e8183611875565b6000610884826118ff565b60008060008051602061339c8339815191525b6001600160a01b0390931660009081526020939093525050604090205490565b610bde8233836112e5565b610b3e828261167c565b600061088482611950565b6000805160206133fc833981519152610c0b816113a5565b610a6a61195b565b600060608082808083816000805160206133bc8339815191528054909150158015610c4057506001810154155b610c895760405162461bcd60e51b81526020600482015260156024820152741152540dcc4c8e88155b9a5b9a5d1a585b1a5e9959605a1b60448201526064015b60405180910390fd5b610c916119a4565b610c996119e3565b60408051600080825260208201909252600f60f81b9c939b5091995046985030975095509350915050565b600060008051602061337c833981519152610ceb610ce1846114e1565b6002830190611530565b6001600160d01b03169392505050565b600091825260008051602061341c833981519152602090815260408084206001600160a01b0393909316845291905290205460ff1690565b60006109bf6116b2565b7f52c63247e1f47db19d5ce0460030c497f067ca4cebf71ba98eeadabe20bace04805460609160008051602061339c833981519152916108af9061305c565b6001600160a01b03811660009081527fe8b26c30fad74198956032a3533d903385d56dd795af560196f9c78d4af40d016020526040812060008051602061337c83398151915290610ceb906119fb565b600033610941818585611346565b6000610de5816113a5565b60006109af8385836130e6565b83421115610e1657604051632341d78760e11b815260048101859052602401610c80565b604080517fe48329057bfd03d55e49b547132e39cffd9c1820ad7b9d4c5307691425d15adf60208201526001600160a01b038816918101919091526060810186905260808101859052600090610e9090610e889060a00160405160208183030381529060405280519060200120611a34565b858585611a61565b9050610e9c8187611a8f565b610ea68188611875565b50505050505050565b83421115610ed35760405163313c898160e11b815260048101859052602401610c80565b60007f6e71edae12b1b97f4d1f60370fef10105fa2faae0126114a169c64845d6126c9888888610f028c611ace565b6040805160208101969096526001600160a01b0394851690860152929091166060840152608083015260a082015260c0810186905260e0016040516020818303038152906040528051906020012090506000610f5d82611a34565b90506000610f6d82878787611a61565b9050896001600160a01b0316816001600160a01b031614610fb4576040516325c0072360e11b81526001600160a01b0380831660048301528b166024820152604401610c80565b610fbf8a8a8a6112d8565b50505050505050505050565b610fd482610971565b610fdd816113a5565b6109af8383611465565b6001600160a01b0391821660009081527f52c63247e1f47db19d5ce0460030c497f067ca4cebf71ba98eeadabe20bace016020908152604080832093909416825291909152205490565b604080518082019091526000808252602082015261096a8383611b10565b6000611059611b7b565b805490915060ff600160401b820416159067ffffffffffffffff166000811580156110815750825b905060008267ffffffffffffffff16600114801561109e5750303b155b9050811580156110ac575080155b156110ca5760405163f92ee8a960e01b815260040160405180910390fd5b845467ffffffffffffffff1916600117855583156110f457845460ff60401b1916600160401b1785555b611146604051806040016040528060158152602001742bb2a13637b1b5902aba34b634ba3c902a37b5b2b760591b8152506040518060400160405280600381526020016215d19560ea1b815250611ba4565b61117c604051806040016040528060158152602001742bb2a13637b1b5902aba34b634ba3c902a37b5b2b760591b815250611bb6565b611184611be1565b61118c611be1565b611194611be1565b61119c611be1565b6111a76000896113af565b506111d27f9f2df0fed2c77648de5860a4cc508cd0818c85b8b8a1ab4ceeef8d981c8956a6896113af565b506111eb6000805160206133fc833981519152896113af565b5060006111f98789836130e6565b50831561124057845460ff60401b19168555604051600181527fc7f505b2f371ae2175ee4913f4499e1f2633a7b5936321eed1cdaeb6115181d29060200160405180910390a15b5050505050505050565b600080546112579061305c565b80601f01602080910402602001604051908101604052809291908181526020018280546112839061305c565b80156112d05780601f106112a5576101008083540402835291602001916112d0565b820191906000526020600020905b8154815290600101906020018083116112b357829003601f168201915b505050505081565b6109f78383836001611be9565b60006112f18484610fe7565b90506000198110156109af578181101561133757604051637dc7a0d960e11b81526001600160a01b03841660048201526024810182905260448101839052606401610c80565b6109af84848484036000611be9565b6001600160a01b03831661137057604051634b637e8f60e11b815260006004820152602401610c80565b6001600160a01b03821661139a5760405163ec442f0560e01b815260006004820152602401610c80565b6109f7838383611cd1565b610a6a8133611ce4565b600060008051602061341c8339815191526113ca8484610cfb565b61144a576000848152602082815260408083206001600160a01b03871684529091529020805460ff191660011790556114003390565b6001600160a01b0316836001600160a01b0316857f2f8788117e7eff1d82e926ec794901d17c78024a50270940304540a733656f0d60405160405180910390a46001915050610884565b6000915050610884565b5092915050565b60006109bf611d1d565b600060008051602061341c8339815191526114808484610cfb565b1561144a576000848152602082815260408083206001600160a01b0387168085529252808320805460ff1916905551339287917ff6391f5c32d9c69d2a47ea670b442974b53935d1edc7fd64eb21e047a839171b9190a46001915050610884565b6000806114ec610d33565b90508065ffffffffffff16831061152757604051637669fc0f60e11b81526004810184905265ffffffffffff82166024820152604401610c80565b61096a83611d91565b81546000908181600581111561158f57600061154b84611dc8565b61155590856131bc565b60008881526020902090915081015465ffffffffffff908116908716101561157f5780915061158d565b61158a8160016131cf565b92505b505b600061159d87878585611f1c565b905080156115d8576115c2876115b46001846131bc565b600091825260209091200190565b54600160301b90046001600160d01b03166115db565b60005b979650505050505050565b6115ee611f7e565b60008051602061343c833981519152805460ff191681557f5db9ee0a495bf2e6ff9c91a7834c1ba4fdd244a5e8aa4e537bd38aeae4b073aa335b6040516001600160a01b03909116815260200160405180910390a150565b6001600160a01b0382166116705760405163ec442f0560e01b815260006004820152602401610c80565b610b3e60008383611cd1565b6001600160a01b0382166116a657604051634b637e8f60e11b815260006004820152602401610c80565b610b3e82600083611cd1565b60006109bf43611d91565b306001600160a01b037f000000000000000000000000000000000000000000000000000000000000000016148061174457507f00000000000000000000000000000000000000000000000000000000000000006001600160a01b03166117386000805160206133dc833981519152546001600160a01b031690565b6001600160a01b031614155b156117625760405163703e46dd60e11b815260040160405180910390fd5b565b6000610b3e816113a5565b816001600160a01b03166352d1902d6040518163ffffffff1660e01b8152600401602060405180830381865afa9250505080156117c9575060408051601f3d908101601f191682019092526117c6918101906131e2565b60015b6117f157604051634c9c8ce360e01b81526001600160a01b0383166004820152602401610c80565b6000805160206133dc833981519152811461182257604051632a87526960e21b815260048101829052602401610c80565b6109f78383611fae565b306001600160a01b037f000000000000000000000000000000000000000000000000000000000000000016146117625760405163703e46dd60e11b815260040160405180910390fd5b60008051602061337c833981519152600061188f84610b5f565b6001600160a01b0385811660008181526020869052604080822080546001600160a01b031916898616908117909155905194955093928516927f3134e8a2e6d97e929a7e54011ea5485d7d196dd5f0ba4d4ef95803e8e3fc257f9190a46109af81846118fa87612004565b61200f565b6001600160a01b03811660009081527fe8b26c30fad74198956032a3533d903385d56dd795af560196f9c78d4af40d01602052604081205460008051602061337c8339815191529061096a90612189565b6000610884826121ba565b6119636121e3565b60008051602061343c833981519152805460ff191660011781557f62e78cea01bee320cd4e420270b5ea74000d11b0c9f74754ebdbfc544b05a25833611628565b7fa16a46d94261c7517cc8ff89f61c0ce93598e3c849801011dee649a6a557d10280546060916000805160206133bc833981519152916108af9061305c565b606060006000805160206133bc83398151915261089e565b80546000908015611a2b57611a15836115b46001846131bc565b54600160301b90046001600160d01b031661096a565b60009392505050565b6000610884611a4161145b565b8360405161190160f01b8152600281019290925260228201526042902090565b600080600080611a7388888888612214565b925092509250611a8382826122e3565b50909695505050505050565b6000611a9a83611ace565b90508082146109f7576040516301d4b62360e61b81526001600160a01b038416600482015260248101829052604401610c80565b6001600160a01b031660009081527f5ab42ced628888259c08ac98db1eb0cf702fc1501344311d8b100cd1bfe4bb006020526040902080546001810190915590565b604080518082018252600080825260208083018290526001600160a01b03861682527fe8b26c30fad74198956032a3533d903385d56dd795af560196f9c78d4af40d0190529190912060008051602061337c83398151915290611b73908461239c565b949350505050565b6000807ff0c57e16840df040f15088dc2f81fe391c3923bec73e23a9662efc9c229c6a00610884565b611bac61240c565b610b3e8282612431565b611bbe61240c565b610a6a81604051806040016040528060018152602001603160f81b815250612482565b61176261240c565b60008051602061339c8339815191526001600160a01b038516611c225760405163e602df0560e01b815260006004820152602401610c80565b6001600160a01b038416611c4c57604051634a1406b160e11b815260006004820152602401610c80565b6001600160a01b03808616600090815260018301602090815260408083209388168352929052208390558115611cca57836001600160a01b0316856001600160a01b03167f8c5be1e5ebec7d5bd14f71427d1e84f3dd0314c0f7b2291e5b200ac8c7c3b92585604051611cc191815260200190565b60405180910390a35b5050505050565b611cd96121e3565b6109f78383836124e3565b611cee8282610cfb565b610b3e5760405163e2517d3f60e01b81526001600160a01b038216600482015260248101839052604401610c80565b60007f8b73c3c69bb8fe3d512ecc4cf759cc79239f7b179b0ffacaa9a75d522b39400f611d48612569565b611d506125d3565b60408051602081019490945283019190915260608201524660808201523060a082015260c00160405160208183030381529060405280519060200120905090565b600065ffffffffffff821115611dc4576040516306dfcc6560e41b81526030600482015260248101839052604401610c80565b5090565b600060018211611dd6575090565b816001600160801b8210611def5760809190911c9060401b5b600160401b8210611e055760409190911c9060201b5b6401000000008210611e1c5760209190911c9060101b5b620100008210611e315760109190911c9060081b5b6101008210611e455760089190911c9060041b5b60108210611e585760049190911c9060021b5b60048210611e645760011b5b600302600190811c90818581611e7c57611e7c6131fb565b048201901c90506001818581611e9457611e946131fb565b048201901c90506001818581611eac57611eac6131fb565b048201901c90506001818581611ec457611ec46131fb565b048201901c90506001818581611edc57611edc6131fb565b048201901c90506001818581611ef457611ef46131fb565b048201901c9050611f13818581611f0d57611f0d6131fb565b04821190565b90039392505050565b60005b81831015611f76576000611f338484612617565b60008781526020902090915065ffffffffffff86169082015465ffffffffffff161115611f6257809250611f70565b611f6d8160016131cf565b93505b50611f1f565b509392505050565b60008051602061343c8339815191525460ff1661176257604051638dfc202b60e01b815260040160405180910390fd5b611fb782612632565b6040516001600160a01b038316907fbc7cd75a20ee27fd9adebab32041f755214dbc6bffa90cc0225b39da2e5c2d3b90600090a2805115611ffc576109f78282612697565b610b3e61270d565b600061088482610ba0565b60008051602061337c8339815191526001600160a01b038481169084161480159061203a5750600082115b156109af576001600160a01b038416156120e4576001600160a01b03841660009081526001820160205260408120819061207f9061272c61207a87612738565b61276c565b6001600160d01b031691506001600160d01b03169150856001600160a01b03167fdec2bacdd2f05b59de34da9b523dff8be42e5e38e818c82fdb0bae774387a72483836040516120d9929190918252602082015260400190565b60405180910390a250505b6001600160a01b038316156109af576001600160a01b03831660009081526001820160205260408120819061211f906127a561207a87612738565b6001600160d01b031691506001600160d01b03169150846001600160a01b03167fdec2bacdd2f05b59de34da9b523dff8be42e5e38e818c82fdb0bae774387a7248383604051612179929190918252602082015260400190565b60405180910390a2505050505050565b600063ffffffff821115611dc4576040516306dfcc6560e41b81526020600482015260248101839052604401610c80565b6000807f5ab42ced628888259c08ac98db1eb0cf702fc1501344311d8b100cd1bfe4bb00610bb3565b60008051602061343c8339815191525460ff16156117625760405163d93c066560e01b815260040160405180910390fd5b600080807f7fffffffffffffffffffffffffffffff5d576e7357a4501ddfe92f46681b20a084111561224f57506000915060039050826122d9565b604080516000808252602082018084528a905260ff891692820192909252606081018790526080810186905260019060a0016020604051602081039080840390855afa1580156122a3573d6000803e3d6000fd5b5050604051601f1901519150506001600160a01b0381166122cf575060009250600191508290506122d9565b9250600091508190505b9450945094915050565b60008260038111156122f7576122f7613211565b03612300575050565b600182600381111561231457612314613211565b036123325760405163f645eedf60e01b815260040160405180910390fd5b600282600381111561234657612346613211565b036123675760405163fce698f760e01b815260048101829052602401610c80565b600382600381111561237b5761237b613211565b03610b3e576040516335e2f38360e21b815260048101829052602401610c80565b6040805180820190915260008082526020820152826000018263ffffffff16815481106123cb576123cb613227565b60009182526020918290206040805180820190915291015465ffffffffffff81168252600160301b90046001600160d01b0316918101919091529392505050565b6124146127b1565b61176257604051631afcd79f60e31b815260040160405180910390fd5b61243961240c565b60008051602061339c8339815191527f52c63247e1f47db19d5ce0460030c497f067ca4cebf71ba98eeadabe20bace03612473848261323d565b50600481016109af838261323d565b61248a61240c565b6000805160206133bc8339815191527fa16a46d94261c7517cc8ff89f61c0ce93598e3c849801011dee649a6a557d1026124c4848261323d565b50600381016124d3838261323d565b5060008082556001909101555050565b6124ee8383836127cb565b6001600160a01b03831661255e5760006125267f52c63247e1f47db19d5ce0460030c497f067ca4cebf71ba98eeadabe20bace025490565b90506001600160d01b038082111561255b57604051630e58ae9360e11b81526004810183905260248101829052604401610c80565b50505b6109f7838383612909565b60006000805160206133bc833981519152816125836119a4565b80519091501561259b57805160209091012092915050565b815480156125aa579392505050565b7fc5d2460186f7233c927e7db2dcc703c0e500b653ca82273b7bfad8045d85a470935050505090565b60006000805160206133bc833981519152816125ed6119e3565b80519091501561260557805160209091012092915050565b600182015480156125aa579392505050565b600061262660028484186132fd565b61096a908484166131cf565b806001600160a01b03163b60000361266857604051634c9c8ce360e01b81526001600160a01b0382166004820152602401610c80565b6000805160206133dc83398151915280546001600160a01b0319166001600160a01b0392909216919091179055565b6060600080846001600160a01b0316846040516126b4919061331f565b600060405180830381855af49150503d80600081146126ef576040519150601f19603f3d011682016040523d82523d6000602084013e6126f4565b606091505b509150915061270485838361297b565b95945050505050565b34156117625760405163b398979f60e01b815260040160405180910390fd5b600061096a828461333b565b60006001600160d01b03821115611dc4576040516306dfcc6560e41b815260d0600482015260248101839052604401610c80565b60008061279861277a610d33565b612790612786886119fb565b868863ffffffff16565b8791906129d7565b915091505b935093915050565b600061096a828461335b565b60006127bb611b7b565b54600160401b900460ff16919050565b60008051602061339c8339815191526001600160a01b03841661280757818160020160008282546127fc91906131cf565b909155506128799050565b6001600160a01b0384166000908152602082905260409020548281101561285a5760405163391434e360e21b81526001600160a01b03861660048201526024810182905260448101849052606401610c80565b6001600160a01b03851660009081526020839052604090209083900390555b6001600160a01b0383166128975760028101805483900390556128b6565b6001600160a01b03831660009081526020829052604090208054830190555b826001600160a01b0316846001600160a01b03167fddf252ad1be2c89b69c2b068fc378daa952ba7f163c4a11628f55a4df523b3ef846040516128fb91815260200190565b60405180910390a350505050565b60008051602061337c8339815191526001600160a01b03841661293c57612939816002016127a561207a85612738565b50505b6001600160a01b0383166129605761295d8160020161272c61207a85612738565b50505b6109af61296c85610b5f565b61297585610b5f565b8461200f565b6060826129905761298b826129e5565b61096a565b81511580156129a757506001600160a01b0384163b155b156129d057604051639996b31560e01b81526001600160a01b0385166004820152602401610c80565b508061096a565b600080612798858585612a0d565b8051156129f457805160208201fd5b60405163d6bda27560e01b815260040160405180910390fd5b825460009081908015612b06576000612a2b876115b46001856131bc565b805490915065ffffffffffff80821691600160301b90046001600160d01b0316908816821115612a6e57604051632520601d60e01b815260040160405180910390fd5b8765ffffffffffff168265ffffffffffff1603612aa757825465ffffffffffff16600160301b6001600160d01b03891602178355612af8565b6040805180820190915265ffffffffffff808a1682526001600160d01b03808a1660208085019182528d54600181018f5560008f81529190912094519151909216600160301b029216919091179101555b945085935061279d92505050565b50506040805180820190915265ffffffffffff80851682526001600160d01b0380851660208085019182528854600181018a5560008a815291822095519251909316600160301b02919093161792019190915590508161279d565b600060208284031215612b7357600080fd5b81356001600160e01b03198116811461096a57600080fd5b60005b83811015612ba6578181015183820152602001612b8e565b50506000910152565b60008151808452612bc7816020860160208601612b8b565b601f01601f19169290920160200192915050565b60208152600061096a6020830184612baf565b80356001600160a01b0381168114612c0557600080fd5b919050565b60008060408385031215612c1d57600080fd5b612c2683612bee565b946020939093013593505050565b600080600060608486031215612c4957600080fd5b612c5284612bee565b9250612c6060208501612bee565b9150604084013590509250925092565b600060208284031215612c8257600080fd5b5035919050565b60008060408385031215612c9c57600080fd5b82359150612cac60208401612bee565b90509250929050565b634e487b7160e01b600052604160045260246000fd5b60008060408385031215612cde57600080fd5b612ce783612bee565b9150602083013567ffffffffffffffff80821115612d0457600080fd5b818501915085601f830112612d1857600080fd5b813581811115612d2a57612d2a612cb5565b604051601f8201601f19908116603f01168101908382118183101715612d5257612d52612cb5565b81604052828152886020848701011115612d6b57600080fd5b8260208601602083013760006020848301015280955050505050509250929050565b600060208284031215612d9f57600080fd5b61096a82612bee565b60ff60f81b881681526000602060e06020840152612dc960e084018a612baf565b8381036040850152612ddb818a612baf565b606085018990526001600160a01b038816608086015260a0850187905284810360c08601528551808252602080880193509091019060005b81811015612e2f57835183529284019291840191600101612e13565b50909c9b505050505050505050505050565b60008083601f840112612e5357600080fd5b50813567ffffffffffffffff811115612e6b57600080fd5b602083019150836020828501011115612e8357600080fd5b9250929050565b60008060208385031215612e9d57600080fd5b823567ffffffffffffffff811115612eb457600080fd5b612ec085828601612e41565b90969095509350505050565b803560ff81168114612c0557600080fd5b60008060008060008060c08789031215612ef657600080fd5b612eff87612bee565b95506020870135945060408701359350612f1b60608801612ecc565b92506080870135915060a087013590509295509295509295565b600080600080600080600060e0888a031215612f5057600080fd5b612f5988612bee565b9650612f6760208901612bee565b95506040880135945060608801359350612f8360808901612ecc565b925060a0880135915060c0880135905092959891949750929550565b60008060408385031215612fb257600080fd5b612fbb83612bee565b9150612cac60208401612bee565b60008060408385031215612fdc57600080fd5b612fe583612bee565b9150602083013563ffffffff81168114612ffe57600080fd5b809150509250929050565b60008060006040848603121561301e57600080fd5b61302784612bee565b9250602084013567ffffffffffffffff81111561304357600080fd5b61304f86828701612e41565b9497909650939450505050565b600181811c9082168061307057607f821691505b60208210810361309057634e487b7160e01b600052602260045260246000fd5b50919050565b601f8211156109f7576000816000526020600020601f850160051c810160208610156130bf5750805b601f850160051c820191505b818110156130de578281556001016130cb565b505050505050565b67ffffffffffffffff8311156130fe576130fe612cb5565b6131128361310c835461305c565b83613096565b6000601f841160018114613146576000851561312e5750838201355b600019600387901b1c1916600186901b178355611cca565b600083815260209020601f19861690835b828110156131775786850135825560209485019460019092019101613157565b50868210156131945760001960f88860031b161c19848701351681555b505060018560011b0183555050505050565b634e487b7160e01b600052601160045260246000fd5b81810381811115610884576108846131a6565b80820180821115610884576108846131a6565b6000602082840312156131f457600080fd5b5051919050565b634e487b7160e01b600052601260045260246000fd5b634e487b7160e01b600052602160045260246000fd5b634e487b7160e01b600052603260045260246000fd5b815167ffffffffffffffff81111561325757613257612cb5565b61326b81613265845461305c565b84613096565b602080601f8311600181146132a057600084156132885750858301515b600019600386901b1c1916600185901b1785556130de565b600085815260208120601f198616915b828110156132cf578886015182559484019460019091019084016132b0565b50858210156132ed5787850151600019600388901b60f8161c191681555b5050505050600190811b01905550565b60008261331a57634e487b7160e01b600052601260045260246000fd5b500490565b60008251613331818460208701612b8b565b9190910192915050565b6001600160d01b03828116828216039080821115611454576114546131a6565b6001600160d01b03818116838216019080821115611454576114546131a656fee8b26c30fad74198956032a3533d903385d56dd795af560196f9c78d4af40d0052c63247e1f47db19d5ce0460030c497f067ca4cebf71ba98eeadabe20bace00a16a46d94261c7517cc8ff89f61c0ce93598e3c849801011dee649a6a557d100360894a13ba1a3210667c828492db98dca3e2076cc3735a920a3ca505d382bbc65d7a28e3265b37a6474929f336521b332c1681b933f6cb9f3376673440d862a02dd7bc7dec4dceedda775e58dd541e08a116c6c53815c0bd028192f7b626800cd5ed15c6e187e77e9aee88184c21f4f2182ab5827cb3b7e07fbedcd63f03300a2646970667358221220830a6ae8b3cc1f1b0b0b2cd00b7008582828451b68b9879a6ba006f28dd12cc464736f6c63430008180033",
  "linkReferences": {},
  "deployedLinkReferences": {}
}