{
  "_format": "hh-sol-artifact-1",
  "contractName": "RBTInvestmentRouter",
  "sourceName": "contracts/rbt/RBTInvestmentRouter.sol",
  "abi": [
    {
      "inputs": [
        {
          "internalType": "address",
          "name": "admin",
          "type": "address"
        }
      ],
      "stateMutability": "nonpayable",
      "type": "constructor"
    },
    {
      "inputs": [],
      "name": "AccessControlBadConfirmation",
      "type": "error"
    },
    {
      "inputs": [
        {
          "internalType": "address",
          "name": "account",
          "type": "address"
        },
        {
          "internalType": "bytes32",
          "name": "neededRole",
          "type": "bytes32"
        }
      ],
      "name": "AccessControlUnauthorizedAccount",
      "type": "error"
    },
    {
      "inputs": [
        {
          "internalType": "uint256",
          "name": "cost",
          "type": "uint256"
        },
        {
          "internalType": "uint256",
          "name": "maxCost",
          "type": "uint256"
        }
      ],
      "name": "CostExceeded",
      "type": "error"
    },
    {
      "inputs": [],
      "name": "EnforcedPause",
      "type": "error"
    },
    {
      "inputs": [],
      "name": "ExpectedPause",
      "type": "error"
    },
    {
      "inputs": [],
      "name": "InsufficientRemaining",
      "type": "error"
    },
    {
      "inputs": [],
      "name": "InvalidAddress",
      "type": "error"
    },
    {
      "inputs": [],
      "name": "InvalidPrice",
      "type": "error"
    },
    {
      "inputs": [],
      "name": "InvalidUnits",
      "type": "error"
    },
    {
      "inputs": [],
      "name": "NotEnabled",
      "type": "error"
    },
    {
      "inputs": [],
      "name": "NotInSaleTime",
      "type": "error"
    },
    {
      "inputs": [],
      "name": "ReentrancyGuardReentrantCall",
      "type": "error"
    },
    {
      "inputs": [
        {
          "internalType": "address",
          "name": "token",
          "type": "address"
        }
      ],
      "name": "SafeERC20FailedOperation",
      "type": "error"
    },
    {
      "anonymous": false,
      "inputs": [
        {
          "indexed": true,
          "internalType": "uint256",
          "name": "offeringId",
          "type": "uint256"
        },
        {
          "indexed": true,
          "internalType": "address",
          "name": "asset",
          "type": "address"
        },
        {
          "indexed": true,
          "internalType": "uint256",
          "name": "seriesId",
          "type": "uint256"
        },
        {
          "indexed": false,
          "internalType": "address",
          "name": "paymentToken",
          "type": "address"
        },
        {
          "indexed": false,
          "internalType": "uint256",
          "name": "unitPrice",
          "type": "uint256"
        },
        {
          "indexed": false,
          "internalType": "uint256",
          "name": "remainingUnits",
          "type": "uint256"
        },
        {
          "indexed": false,
          "internalType": "uint64",
          "name": "startAt",
          "type": "uint64"
        },
        {
          "indexed": false,
          "internalType": "uint64",
          "name": "endAt",
          "type": "uint64"
        },
        {
          "indexed": false,
          "internalType": "address",
          "name": "treasury",
          "type": "address"
        },
        {
          "indexed": false,
          "internalType": "bool",
          "name": "enabled",
          "type": "bool"
        }
      ],
      "name": "OfferingUpserted",
      "type": "event"
    },
    {
      "anonymous": false,
      "inputs": [
        {
          "indexed": false,
          "internalType": "address",
          "name": "account",
          "type": "address"
        }
      ],
      "name": "Paused",
      "type": "event"
    },
    {
      "anonymous": false,
      "inputs": [
        {
          "indexed": true,
          "internalType": "uint256",
          "name": "offeringId",
          "type": "uint256"
        },
        {
          "indexed": true,
          "internalType": "address",
          "name": "buyer",
          "type": "address"
        },
        {
          "indexed": true,
          "internalType": "address",
          "name": "asset",
          "type": "address"
        },
        {
          "indexed": false,
          "internalType": "uint256",
          "name": "seriesId",
          "type": "uint256"
        },
        {
          "indexed": false,
          "internalType": "address",
          "name": "paymentToken",
          "type": "address"
        },
        {
          "indexed": false,
          "internalType": "uint256",
          "name": "units",
          "type": "uint256"
        },
        {
          "indexed": false,
          "internalType": "uint256",
          "name": "cost",
          "type": "uint256"
        },
        {
          "indexed": false,
          "internalType": "address",
          "name": "treasury",
          "type": "address"
        }
      ],
      "name": "Purchased",
      "type": "event"
    },
    {
      "anonymous": false,
      "inputs": [
        {
          "indexed": true,
          "internalType": "bytes32",
          "name": "role",
          "type": "bytes32"
        },
        {
          "indexed": true,
          "internalType": "bytes32",
          "name": "previousAdminRole",
          "type": "bytes32"
        },
        {
          "indexed": true,
          "internalType": "bytes32",
          "name": "newAdminRole",
          "type": "bytes32"
        }
      ],
      "name": "RoleAdminChanged",
      "type": "event"
    },
    {
      "anonymous": false,
      "inputs": [
        {
          "indexed": true,
          "internalType": "bytes32",
          "name": "role",
          "type": "bytes32"
        },
        {
          "indexed": true,
          "internalType": "address",
          "name": "account",
          "type": "address"
        },
        {
          "indexed": true,
          "internalType": "address",
          "name": "sender",
          "type": "address"
        }
      ],
      "name": "RoleGranted",
      "type": "event"
    },
    {
      "anonymous": false,
      "inputs": [
        {
          "indexed": true,
          "internalType": "bytes32",
          "name": "role",
          "type": "bytes32"
        },
        {
          "indexed": true,
          "internalType": "address",
          "name": "account",
          "type": "address"
        },
        {
          "indexed": true,
          "internalType": "address",
          "name": "sender",
          "type": "address"
        }
      ],
      "name": "RoleRevoked",
      "type": "event"
    },
    {
      "anonymous": false,
      "inputs": [
        {
          "indexed": false,
          "internalType": "address",
          "name": "account",
          "type": "address"
        }
      ],
      "name": "Unpaused",
      "type": "event"
    },
    {
      "inputs": [],
      "name": "DEFAULT_ADMIN_ROLE",
      "outputs": [
        {
          "internalType": "bytes32",
          "name": "",
          "type": "bytes32"
        }
      ],
      "stateMutability": "view",
      "type": "function"
    },
    {
      "inputs": [],
      "name": "PAUSER_ROLE",
      "outputs": [
        {
          "internalType": "bytes32",
          "name": "",
          "type": "bytes32"
        }
      ],
      "stateMutability": "view",
      "type": "function"
    },
    {
      "inputs": [],
      "name": "SALE_MANAGER_ROLE",
      "outputs": [
        {
          "internalType": "bytes32",
          "name": "",
          "type": "bytes32"
        }
      ],
      "stateMutability": "view",
      "type": "function"
    },
    {
      "inputs": [
        {
          "internalType": "uint256",
          "name": "offeringId",
          "type": "uint256"
        },
        {
          "internalType": "uint256",
          "name": "units",
          "type": "uint256"
        },
        {
          "internalType": "uint256",
          "name": "maxCost",
          "type": "uint256"
        }
      ],
      "name": "buy",
      "outputs": [],
      "stateMutability": "nonpayable",
      "type": "function"
    },
    {
      "inputs": [
        {
          "internalType": "bytes32",
          "name": "role",
          "type": "bytes32"
        }
      ],
      "name": "getRoleAdmin",
      "outputs": [
        {
          "internalType": "bytes32",
          "name": "",
          "type": "bytes32"
        }
      ],
      "stateMutability": "view",
      "type": "function"
    },
    {
      "inputs": [
        {
          "internalType": "bytes32",
          "name": "role",
          "type": "bytes32"
        },
        {
          "internalType": "address",
          "name": "account",
          "type": "address"
        }
      ],
      "name": "grantRole",
      "outputs": [],
      "stateMutability": "nonpayable",
      "type": "function"
    },
    {
      "inputs": [
        {
          "internalType": "bytes32",
          "name": "role",
          "type": "bytes32"
        },
        {
          "internalType": "address",
          "name": "account",
          "type": "address"
        }
      ],
      "name": "hasRole",
      "outputs": [
        {
          "internalType": "bool",
          "name": "",
          "type": "bool"
        }
      ],
      "stateMutability": "view",
      "type": "function"
    },
    {
      "inputs": [
        {
          "internalType": "uint256",
          "name": "",
          "type": "uint256"
        }
      ],
      "name": "offerings",
      "outputs": [
        {
          "internalType": "address",
          "name": "asset",
          "type": "address"
        },
        {
          "internalType": "uint256",
          "name": "seriesId",
          "type": "uint256"
        },
        {
          "internalType": "address",
          "name": "paymentToken",
          "type": "address"
        },
        {
          "internalType": "uint256",
          "name": "unitPrice",
          "type": "uint256"
        },
        {
          "internalType": "uint256",
          "name": "remainingUnits",
          "type": "uint256"
        },
        {
          "internalType": "uint64",
          "name": "startAt",
          "type": "uint64"
        },
        {
          "internalType": "uint64",
          "name": "endAt",
          "type": "uint64"
        },
        {
          "internalType": "address",
          "name": "treasury",
          "type": "address"
        },
        {
          "internalType": "bool",
          "name": "enabled",
          "type": "bool"
        }
      ],
      "stateMutability": "view",
      "type": "function"
    },
    {
      "inputs": [],
      "name": "pause",
      "outputs": [],
      "stateMutability": "nonpayable",
      "type": "function"
    },
    {
      "inputs": [],
      "name": "paused",
      "outputs": [
        {
          "internalType": "bool",
          "name": "",
          "type": "bool"
        }
      ],
      "stateMutability": "view",
      "type": "function"
    },
    {
      "inputs": [
        {
          "internalType": "bytes32",
          "name": "role",
          "type": "bytes32"
        },
        {
          "internalType": "address",
          "name": "callerConfirmation",
          "type": "address"
        }
      ],
      "name": "renounceRole",
      "outputs": [],
      "stateMutability": "nonpayable",
      "type": "function"
    },
    {
      "inputs": [
        {
          "internalType": "address",
          "name": "token",
          "type": "address"
        },
        {
          "internalType": "address",
          "name": "to",
          "type": "address"
        },
        {
          "internalType": "uint256",
          "name": "amount",
          "type": "uint256"
        }
      ],
      "name": "rescueERC20",
      "outputs": [],
      "stateMutability": "nonpayable",
      "type": "function"
    },
    {
      "inputs": [
        {
          "internalType": "bytes32",
          "name": "role",
          "type": "bytes32"
        },
        {
          "internalType": "address",
          "name": "account",
          "type": "address"
        }
      ],
      "name": "revokeRole",
      "outputs": [],
      "stateMutability": "nonpayable",
      "type": "function"
    },
    {
      "inputs": [
        {
          "internalType": "bytes4",
          "name": "interfaceId",
          "type": "bytes4"
        }
      ],
      "name": "supportsInterface",
      "outputs": [
        {
          "internalType": "bool",
          "name": "",
          "type": "bool"
        }
      ],
      "stateMutability": "view",
      "type": "function"
    },
    {
      "inputs": [],
      "name": "unpause",
      "outputs": [],
      "stateMutability": "nonpayable",
      "type": "function"
    },
    {
      "inputs": [
        {
          "internalType": "uint256",
          "name": "offeringId",
          "type": "uint256"
        },
        {
          "internalType": "address",
          "name": "asset",
          "type": "address"
        },
        {
          "internalType": "uint256",
          "name": "seriesId",
          "type": "uint256"
        },
        {
          "internalType": "address",
          "name": "paymentToken",
          "type": "address"
        },
        {
          "internalType": "uint256",
          "name": "unitPrice",
          "type": "uint256"
        },
        {
          "internalType": "uint256",
          "name": "remainingUnits",
          "type": "uint256"
        },
        {
          "internalType": "uint64",
          "name": "startAt",
          "type": "uint64"
        },
        {
          "internalType": "uint64",
          "name": "endAt",
          "type": "uint64"
        },
        {
          "internalType": "address",
          "name": "treasury",
          "type": "address"
        },
        {
          "internalType": "bool",
          "name": "enabled",
          "type": "bool"
        }
      ],
      "name": "upsertOffering",
      "outputs": [],
      "stateMutability": "nonpayable",
      "type": "function"
    }
  ],
  "bytecode": "0x60806040523480156200001157600080fd5b50604051620011e7380380620011e783398101604081905262000034916200017f565b60016002556001600160a01b038116620000615760405163e6c4247b60e01b815260040160405180910390fd5b6200006e600082620000d0565b506200009b7f988301af8238f779281a300de031815cd01b48e9f1ae47a0f91ed6584213624a82620000d0565b50620000c87f65d7a28e3265b37a6474929f336521b332c1681b933f6cb9f3376673440d862a82620000d0565b5050620001b1565b6000828152602081815260408083206001600160a01b038516845290915281205460ff1662000175576000838152602081815260408083206001600160a01b03861684529091529020805460ff191660011790556200012c3390565b6001600160a01b0316826001600160a01b0316847f2f8788117e7eff1d82e926ec794901d17c78024a50270940304540a733656f0d60405160405180910390a450600162000179565b5060005b92915050565b6000602082840312156200019257600080fd5b81516001600160a01b0381168114620001aa57600080fd5b9392505050565b61102680620001c16000396000f3fe608060405234801561001057600080fd5b50600436106101005760003560e01c80638456cb5911610097578063c9b021fc11610066578063c9b021fc14610209578063d547741f1461021c578063e34fec1d1461022f578063e63ab1e91461030d57600080fd5b80638456cb59146101d357806391d14854146101db578063a217fddf146101ee578063b2118a8d146101f657600080fd5b80633f4ba83a116100d35780633f4ba83a1461018657806340993b261461018e578063551b42a8146101a15780635c975abb146101c857600080fd5b806301ffc9a714610105578063248a9ca31461012d5780632f2ff15d1461015e57806336568abe14610173575b600080fd5b610118610113366004610df8565b610334565b60405190151581526020015b60405180910390f35b61015061013b366004610e29565b60009081526020819052604090206001015490565b604051908152602001610124565b61017161016c366004610e5e565b61036b565b005b610171610181366004610e5e565b610396565b6101716103ce565b61017161019c366004610e8a565b610403565b6101507f988301af8238f779281a300de031815cd01b48e9f1ae47a0f91ed6584213624a81565b60015460ff16610118565b6101716106af565b6101186101e9366004610e5e565b6106e1565b610150600081565b610171610204366004610eb6565b61070a565b610171610217366004610f09565b610764565b61017161022a366004610e5e565b610a88565b6102aa61023d366004610e29565b600360208190526000918252604090912080546001820154600283015493830154600484015460058501546006909501546001600160a01b0394851696939593851694929391926001600160401b0380841693600160401b9004169190811690600160a01b900460ff1689565b604080516001600160a01b039a8b168152602081019990995296891696880196909652606087019490945260808601929092526001600160401b0390811660a08601521660c084015290921660e082015290151561010082015261012001610124565b6101507f65d7a28e3265b37a6474929f336521b332c1681b933f6cb9f3376673440d862a81565b60006001600160e01b03198216637965db0b60e01b148061036557506301ffc9a760e01b6001600160e01b03198316145b92915050565b60008281526020819052604090206001015461038681610aad565b6103908383610ab7565b50505050565b6001600160a01b03811633146103bf5760405163334bd91960e11b815260040160405180910390fd5b6103c98282610b49565b505050565b7f65d7a28e3265b37a6474929f336521b332c1681b933f6cb9f3376673440d862a6103f881610aad565b610400610bb4565b50565b61040b610c06565b610413610c2e565b8160000361043457604051630e433c2360e31b815260040160405180910390fd5b60008381526003602052604090206006810154600160a01b900460ff1661046e57604051633f54562b60e11b815260040160405180910390fd5b600581015442906001600160401b03161580159061049c575060058201546001600160401b03908116908216105b156104ba5760405163c867bfaf60e01b815260040160405180910390fd5b6005820154600160401b90046001600160401b0316158015906104f4575060058201546001600160401b03600160401b9091048116908216115b156105125760405163c867bfaf60e01b815260040160405180910390fd5b60048201541561055b578382600401541015610541576040516304fce4c160e21b815260040160405180910390fd5b838260040160008282546105559190610fc6565b90915550505b600082600301548561056d9190610fd9565b90508381111561059f5760405163571797b560e11b815260048101829052602481018590526044015b60405180910390fd5b600683015460028401546105c2916001600160a01b039182169133911684610c54565b82546001840154604051630ffea21360e21b81526004810191909152336024820152604481018790526001600160a01b0390911690633ffa884c90606401600060405180830381600087803b15801561061a57600080fd5b505af115801561062e573d6000803e3d6000fd5b50508454600186015460028701546006880154604080519384526001600160a01b03928316602085015283018b90526060830187905281166080830152909116925033915088907f0930fad8af148338b1561aa864adab39f5bebacaf13eba536e2dfd4c342bb6879060a00160405180910390a45050506103c96001600255565b7f65d7a28e3265b37a6474929f336521b332c1681b933f6cb9f3376673440d862a6106d981610aad565b610400610cbb565b6000918252602082815260408084206001600160a01b0393909316845291905290205460ff1690565b600061071581610aad565b6001600160a01b038416158061073257506001600160a01b038316155b156107505760405163e6c4247b60e01b815260040160405180910390fd5b6103906001600160a01b0385168484610cf6565b7f988301af8238f779281a300de031815cd01b48e9f1ae47a0f91ed6584213624a61078e81610aad565b6001600160a01b038a1615806107ab57506001600160a01b038816155b806107bd57506001600160a01b038316155b156107db5760405163e6c4247b60e01b815260040160405180910390fd5b866000036107fb5760405162bfc92160e01b815260040160405180910390fd5b6001600160401b038416158015906108245750846001600160401b0316846001600160401b0316105b156108425760405163c867bfaf60e01b815260040160405180910390fd5b6040518061012001604052808b6001600160a01b031681526020018a8152602001896001600160a01b03168152602001888152602001878152602001866001600160401b03168152602001856001600160401b03168152602001846001600160a01b03168152602001831515815250600360008d815260200190815260200160002060008201518160000160006101000a8154816001600160a01b0302191690836001600160a01b031602179055506020820151816001015560408201518160020160006101000a8154816001600160a01b0302191690836001600160a01b03160217905550606082015181600301556080820151816004015560a08201518160050160006101000a8154816001600160401b0302191690836001600160401b0316021790555060c08201518160050160086101000a8154816001600160401b0302191690836001600160401b0316021790555060e08201518160060160006101000a8154816001600160a01b0302191690836001600160a01b031602179055506101008201518160060160146101000a81548160ff021916908315150217905550905050888a6001600160a01b03168c7faba0d4b074cb9fd7d037eb955c80838b9286843eb112b10e6740f6105931a4468b8b8b8b8b8b8b604051610a7397969594939291906001600160a01b039788168152602081019690965260408601949094526001600160401b0392831660608601529116608084015290921660a082015290151560c082015260e00190565b60405180910390a45050505050505050505050565b600082815260208190526040902060010154610aa381610aad565b6103908383610b49565b6104008133610d27565b6000610ac383836106e1565b610b41576000838152602081815260408083206001600160a01b03861684529091529020805460ff19166001179055610af93390565b6001600160a01b0316826001600160a01b0316847f2f8788117e7eff1d82e926ec794901d17c78024a50270940304540a733656f0d60405160405180910390a4506001610365565b506000610365565b6000610b5583836106e1565b15610b41576000838152602081815260408083206001600160a01b0386168085529252808320805460ff1916905551339286917ff6391f5c32d9c69d2a47ea670b442974b53935d1edc7fd64eb21e047a839171b9190a4506001610365565b610bbc610d64565b6001805460ff191690557f5db9ee0a495bf2e6ff9c91a7834c1ba4fdd244a5e8aa4e537bd38aeae4b073aa335b6040516001600160a01b03909116815260200160405180910390a1565b6002805403610c2857604051633ee5aeb560e01b815260040160405180910390fd5b60028055565b60015460ff1615610c525760405163d93c066560e01b815260040160405180910390fd5b565b6040516001600160a01b0384811660248301528381166044830152606482018390526103909186918216906323b872dd906084015b604051602081830303815290604052915060e01b6020820180516001600160e01b038381831617835250505050610d87565b610cc3610c2e565b6001805460ff1916811790557f62e78cea01bee320cd4e420270b5ea74000d11b0c9f74754ebdbfc544b05a25833610be9565b6040516001600160a01b038381166024830152604482018390526103c991859182169063a9059cbb90606401610c89565b610d3182826106e1565b610d605760405163e2517d3f60e01b81526001600160a01b038216600482015260248101839052604401610596565b5050565b60015460ff16610c5257604051638dfc202b60e01b815260040160405180910390fd5b600080602060008451602086016000885af180610daa576040513d6000823e3d81fd5b50506000513d91508115610dc2578060011415610dcf565b6001600160a01b0384163b155b1561039057604051635274afe760e01b81526001600160a01b0385166004820152602401610596565b600060208284031215610e0a57600080fd5b81356001600160e01b031981168114610e2257600080fd5b9392505050565b600060208284031215610e3b57600080fd5b5035919050565b80356001600160a01b0381168114610e5957600080fd5b919050565b60008060408385031215610e7157600080fd5b82359150610e8160208401610e42565b90509250929050565b600080600060608486031215610e9f57600080fd5b505081359360208301359350604090920135919050565b600080600060608486031215610ecb57600080fd5b610ed484610e42565b9250610ee260208501610e42565b9150604084013590509250925092565b80356001600160401b0381168114610e5957600080fd5b6000806000806000806000806000806101408b8d031215610f2957600080fd5b8a359950610f3960208c01610e42565b985060408b01359750610f4e60608c01610e42565b965060808b0135955060a08b01359450610f6a60c08c01610ef2565b9350610f7860e08c01610ef2565b9250610f876101008c01610e42565b91506101208b01358015158114610f9d57600080fd5b809150509295989b9194979a5092959850565b634e487b7160e01b600052601160045260246000fd5b8181038181111561036557610365610fb0565b808202811582820484141761036557610365610fb056fea2646970667358221220d76ce83d28f2205acfda303327db877ba16e075b95f36768b9175a8c152fa15e64736f6c63430008180033",
  "linkReferences": {},
  "deployedLinkReferences": {}
}