{
  "_format": "hh-sol-artifact-1",
  "contractName": "RBTPropertyToken",
  "sourceName": "contracts/rbt/RBTPropertyToken.sol",
  "abi": [
    {
      "inputs": [],
      "stateMutability": "nonpayable",
      "type": "constructor"
    },
    {
      "inputs": [],
      "name": "AccessControlBadConfirmation",
      "type": "error"
    },
    {
      "inputs": [
        {
          "internalType": "address",
          "name": "account",
          "type": "address"
        },
        {
          "internalType": "bytes32",
          "name": "neededRole",
          "type": "bytes32"
        }
      ],
      "name": "AccessControlUnauthorizedAccount",
      "type": "error"
    },
    {
      "inputs": [
        {
          "internalType": "address",
          "name": "sender",
          "type": "address"
        },
        {
          "internalType": "uint256",
          "name": "balance",
          "type": "uint256"
        },
        {
          "internalType": "uint256",
          "name": "needed",
          "type": "uint256"
        },
        {
          "internalType": "uint256",
          "name": "tokenId",
          "type": "uint256"
        }
      ],
      "name": "ERC1155InsufficientBalance",
      "type": "error"
    },
    {
      "inputs": [
        {
          "internalType": "address",
          "name": "approver",
          "type": "address"
        }
      ],
      "name": "ERC1155InvalidApprover",
      "type": "error"
    },
    {
      "inputs": [
        {
          "internalType": "uint256",
          "name": "idsLength",
          "type": "uint256"
        },
        {
          "internalType": "uint256",
          "name": "valuesLength",
          "type": "uint256"
        }
      ],
      "name": "ERC1155InvalidArrayLength",
      "type": "error"
    },
    {
      "inputs": [
        {
          "internalType": "address",
          "name": "operator",
          "type": "address"
        }
      ],
      "name": "ERC1155InvalidOperator",
      "type": "error"
    },
    {
      "inputs": [
        {
          "internalType": "address",
          "name": "receiver",
          "type": "address"
        }
      ],
      "name": "ERC1155InvalidReceiver",
      "type": "error"
    },
    {
      "inputs": [
        {
          "internalType": "address",
          "name": "sender",
          "type": "address"
        }
      ],
      "name": "ERC1155InvalidSender",
      "type": "error"
    },
    {
      "inputs": [
        {
          "internalType": "address",
          "name": "operator",
          "type": "address"
        },
        {
          "internalType": "address",
          "name": "owner",
          "type": "address"
        }
      ],
      "name": "ERC1155MissingApprovalForAll",
      "type": "error"
    },
    {
      "inputs": [],
      "name": "EnforcedPause",
      "type": "error"
    },
    {
      "inputs": [],
      "name": "ExpectedPause",
      "type": "error"
    },
    {
      "inputs": [],
      "name": "ReentrancyGuardReentrantCall",
      "type": "error"
    },
    {
      "anonymous": false,
      "inputs": [
        {
          "indexed": true,
          "internalType": "address",
          "name": "account",
          "type": "address"
        },
        {
          "indexed": true,
          "internalType": "address",
          "name": "operator",
          "type": "address"
        },
        {
          "indexed": false,
          "internalType": "bool",
          "name": "approved",
          "type": "bool"
        }
      ],
      "name": "ApprovalForAll",
      "type": "event"
    },
    {
      "anonymous": false,
      "inputs": [
        {
          "indexed": false,
          "internalType": "string",
          "name": "baseURI",
          "type": "string"
        }
      ],
      "name": "BaseURIUpdated",
      "type": "event"
    },
    {
      "anonymous": false,
      "inputs": [
        {
          "indexed": true,
          "internalType": "address",
          "name": "account",
          "type": "address"
        },
        {
          "indexed": false,
          "internalType": "bool",
          "name": "blacklisted",
          "type": "bool"
        }
      ],
      "name": "BlacklistUpdated",
      "type": "event"
    },
    {
      "anonymous": false,
      "inputs": [
        {
          "indexed": true,
          "internalType": "address",
          "name": "account",
          "type": "address"
        },
        {
          "indexed": false,
          "internalType": "bool",
          "name": "frozen",
          "type": "bool"
        }
      ],
      "name": "FrozenUpdated",
      "type": "event"
    },
    {
      "anonymous": false,
      "inputs": [
        {
          "indexed": true,
          "internalType": "address",
          "name": "interestVault",
          "type": "address"
        }
      ],
      "name": "InterestVaultUpdated",
      "type": "event"
    },
    {
      "anonymous": false,
      "inputs": [
        {
          "indexed": true,
          "internalType": "uint256",
          "name": "tokenId",
          "type": "uint256"
        },
        {
          "indexed": true,
          "internalType": "address",
          "name": "to",
          "type": "address"
        },
        {
          "indexed": false,
          "internalType": "uint256",
          "name": "amount",
          "type": "uint256"
        }
      ],
      "name": "Issued",
      "type": "event"
    },
    {
      "anonymous": false,
      "inputs": [
        {
          "indexed": false,
          "internalType": "address",
          "name": "account",
          "type": "address"
        }
      ],
      "name": "Paused",
      "type": "event"
    },
    {
      "anonymous": false,
      "inputs": [
        {
          "indexed": true,
          "internalType": "uint256",
          "name": "tokenId",
          "type": "uint256"
        },
        {
          "indexed": true,
          "internalType": "address",
          "name": "account",
          "type": "address"
        },
        {
          "indexed": false,
          "internalType": "uint256",
          "name": "amount",
          "type": "uint256"
        }
      ],
      "name": "RevenueClaimed",
      "type": "event"
    },
    {
      "anonymous": false,
      "inputs": [
        {
          "indexed": true,
          "internalType": "uint256",
          "name": "tokenId",
          "type": "uint256"
        },
        {
          "indexed": false,
          "internalType": "uint256",
          "name": "amount",
          "type": "uint256"
        },
        {
          "indexed": false,
          "internalType": "uint256",
          "name": "newCumulativePerToken",
          "type": "uint256"
        }
      ],
      "name": "RevenueDeposited",
      "type": "event"
    },
    {
      "anonymous": false,
      "inputs": [
        {
          "indexed": true,
          "internalType": "bytes32",
          "name": "role",
          "type": "bytes32"
        },
        {
          "indexed": true,
          "internalType": "bytes32",
          "name": "previousAdminRole",
          "type": "bytes32"
        },
        {
          "indexed": true,
          "internalType": "bytes32",
          "name": "newAdminRole",
          "type": "bytes32"
        }
      ],
      "name": "RoleAdminChanged",
      "type": "event"
    },
    {
      "anonymous": false,
      "inputs": [
        {
          "indexed": true,
          "internalType": "bytes32",
          "name": "role",
          "type": "bytes32"
        },
        {
          "indexed": true,
          "internalType": "address",
          "name": "account",
          "type": "address"
        },
        {
          "indexed": true,
          "internalType": "address",
          "name": "sender",
          "type": "address"
        }
      ],
      "name": "RoleGranted",
      "type": "event"
    },
    {
      "anonymous": false,
      "inputs": [
        {
          "indexed": true,
          "internalType": "bytes32",
          "name": "role",
          "type": "bytes32"
        },
        {
          "indexed": true,
          "internalType": "address",
          "name": "account",
          "type": "address"
        },
        {
          "indexed": true,
          "internalType": "address",
          "name": "sender",
          "type": "address"
        }
      ],
      "name": "RoleRevoked",
      "type": "event"
    },
    {
      "anonymous": false,
      "inputs": [
        {
          "indexed": true,
          "internalType": "uint256",
          "name": "tokenId",
          "type": "uint256"
        },
        {
          "indexed": false,
          "internalType": "string",
          "name": "label",
          "type": "string"
        },
        {
          "indexed": false,
          "internalType": "uint256",
          "name": "unitPrice",
          "type": "uint256"
        },
        {
          "indexed": false,
          "internalType": "uint256",
          "name": "maxSupply",
          "type": "uint256"
        }
      ],
      "name": "SeriesCreated",
      "type": "event"
    },
    {
      "anonymous": false,
      "inputs": [
        {
          "indexed": true,
          "internalType": "uint256",
          "name": "tokenId",
          "type": "uint256"
        },
        {
          "indexed": false,
          "internalType": "bool",
          "name": "active",
          "type": "bool"
        }
      ],
      "name": "SeriesStatusChanged",
      "type": "event"
    },
    {
      "anonymous": false,
      "inputs": [
        {
          "indexed": true,
          "internalType": "address",
          "name": "operator",
          "type": "address"
        },
        {
          "indexed": true,
          "internalType": "address",
          "name": "from",
          "type": "address"
        },
        {
          "indexed": true,
          "internalType": "address",
          "name": "to",
          "type": "address"
        },
        {
          "indexed": false,
          "internalType": "uint256[]",
          "name": "ids",
          "type": "uint256[]"
        },
        {
          "indexed": false,
          "internalType": "uint256[]",
          "name": "values",
          "type": "uint256[]"
        }
      ],
      "name": "TransferBatch",
      "type": "event"
    },
    {
      "anonymous": false,
      "inputs": [
        {
          "indexed": true,
          "internalType": "address",
          "name": "operator",
          "type": "address"
        },
        {
          "indexed": true,
          "internalType": "address",
          "name": "from",
          "type": "address"
        },
        {
          "indexed": true,
          "internalType": "address",
          "name": "to",
          "type": "address"
        },
        {
          "indexed": false,
          "internalType": "uint256",
          "name": "id",
          "type": "uint256"
        },
        {
          "indexed": false,
          "internalType": "uint256",
          "name": "value",
          "type": "uint256"
        }
      ],
      "name": "TransferSingle",
      "type": "event"
    },
    {
      "anonymous": false,
      "inputs": [
        {
          "indexed": false,
          "internalType": "string",
          "name": "value",
          "type": "string"
        },
        {
          "indexed": true,
          "internalType": "uint256",
          "name": "id",
          "type": "uint256"
        }
      ],
      "name": "URI",
      "type": "event"
    },
    {
      "anonymous": false,
      "inputs": [
        {
          "indexed": false,
          "internalType": "address",
          "name": "account",
          "type": "address"
        }
      ],
      "name": "Unpaused",
      "type": "event"
    },
    {
      "anonymous": false,
      "inputs": [
        {
          "indexed": true,
          "internalType": "address",
          "name": "account",
          "type": "address"
        },
        {
          "indexed": false,
          "internalType": "bool",
          "name": "allowed",
          "type": "bool"
        }
      ],
      "name": "WhitelistUpdated",
      "type": "event"
    },
    {
      "inputs": [],
      "name": "DEFAULT_ADMIN_ROLE",
      "outputs": [
        {
          "internalType": "bytes32",
          "name": "",
          "type": "bytes32"
        }
      ],
      "stateMutability": "view",
      "type": "function"
    },
    {
      "inputs": [],
      "name": "ISSUER_ROLE",
      "outputs": [
        {
          "internalType": "bytes32",
          "name": "",
          "type": "bytes32"
        }
      ],
      "stateMutability": "view",
      "type": "function"
    },
    {
      "inputs": [],
      "name": "OPERATOR_ROLE",
      "outputs": [
        {
          "internalType": "bytes32",
          "name": "",
          "type": "bytes32"
        }
      ],
      "stateMutability": "view",
      "type": "function"
    },
    {
      "inputs": [],
      "name": "assetLabel",
      "outputs": [
        {
          "internalType": "string",
          "name": "",
          "type": "string"
        }
      ],
      "stateMutability": "view",
      "type": "function"
    },
    {
      "inputs": [],
      "name": "assetName",
      "outputs": [
        {
          "internalType": "string",
          "name": "",
          "type": "string"
        }
      ],
      "stateMutability": "view",
      "type": "function"
    },
    {
      "inputs": [],
      "name": "assetSymbol",
      "outputs": [
        {
          "internalType": "string",
          "name": "",
          "type": "string"
        }
      ],
      "stateMutability": "view",
      "type": "function"
    },
    {
      "inputs": [
        {
          "internalType": "address",
          "name": "account",
          "type": "address"
        },
        {
          "internalType": "uint256",
          "name": "id",
          "type": "uint256"
        }
      ],
      "name": "balanceOf",
      "outputs": [
        {
          "internalType": "uint256",
          "name": "",
          "type": "uint256"
        }
      ],
      "stateMutability": "view",
      "type": "function"
    },
    {
      "inputs": [
        {
          "internalType": "address[]",
          "name": "accounts",
          "type": "address[]"
        },
        {
          "internalType": "uint256[]",
          "name": "ids",
          "type": "uint256[]"
        }
      ],
      "name": "balanceOfBatch",
      "outputs": [
        {
          "internalType": "uint256[]",
          "name": "",
          "type": "uint256[]"
        }
      ],
      "stateMutability": "view",
      "type": "function"
    },
    {
      "inputs": [],
      "name": "baseURI",
      "outputs": [
        {
          "internalType": "string",
          "name": "",
          "type": "string"
        }
      ],
      "stateMutability": "view",
      "type": "function"
    },
    {
      "inputs": [
        {
          "internalType": "address",
          "name": "",
          "type": "address"
        }
      ],
      "name": "blacklisted",
      "outputs": [
        {
          "internalType": "bool",
          "name": "",
          "type": "bool"
        }
      ],
      "stateMutability": "view",
      "type": "function"
    },
    {
      "inputs": [
        {
          "internalType": "uint256",
          "name": "tokenId",
          "type": "uint256"
        }
      ],
      "name": "claim",
      "outputs": [],
      "stateMutability": "nonpayable",
      "type": "function"
    },
    {
      "inputs": [
        {
          "internalType": "uint256",
          "name": "tokenId",
          "type": "uint256"
        },
        {
          "internalType": "address",
          "name": "account",
          "type": "address"
        }
      ],
      "name": "claimable",
      "outputs": [
        {
          "internalType": "uint256",
          "name": "",
          "type": "uint256"
        }
      ],
      "stateMutability": "view",
      "type": "function"
    },
    {
      "inputs": [
        {
          "internalType": "string",
          "name": "label",
          "type": "string"
        },
        {
          "internalType": "uint256",
          "name": "unitPrice",
          "type": "uint256"
        },
        {
          "internalType": "uint256",
          "name": "maxSupply",
          "type": "uint256"
        }
      ],
      "name": "createSeries",
      "outputs": [
        {
          "internalType": "uint256",
          "name": "tokenId",
          "type": "uint256"
        }
      ],
      "stateMutability": "nonpayable",
      "type": "function"
    },
    {
      "inputs": [
        {
          "internalType": "uint256",
          "name": "",
          "type": "uint256"
        }
      ],
      "name": "cumulativeRevenuePerToken",
      "outputs": [
        {
          "internalType": "uint256",
          "name": "",
          "type": "uint256"
        }
      ],
      "stateMutability": "view",
      "type": "function"
    },
    {
      "inputs": [
        {
          "internalType": "uint256",
          "name": "tokenId",
          "type": "uint256"
        },
        {
          "internalType": "uint256",
          "name": "amount",
          "type": "uint256"
        }
      ],
      "name": "depositRevenue",
      "outputs": [],
      "stateMutability": "nonpayable",
      "type": "function"
    },
    {
      "inputs": [
        {
          "internalType": "uint256",
          "name": "id",
          "type": "uint256"
        }
      ],
      "name": "exists",
      "outputs": [
        {
          "internalType": "bool",
          "name": "",
          "type": "bool"
        }
      ],
      "stateMutability": "view",
      "type": "function"
    },
    {
      "inputs": [
        {
          "internalType": "address",
          "name": "",
          "type": "address"
        }
      ],
      "name": "frozen",
      "outputs": [
        {
          "internalType": "bool",
          "name": "",
          "type": "bool"
        }
      ],
      "stateMutability": "view",
      "type": "function"
    },
    {
      "inputs": [
        {
          "internalType": "bytes32",
          "name": "role",
          "type": "bytes32"
        }
      ],
      "name": "getRoleAdmin",
      "outputs": [
        {
          "internalType": "bytes32",
          "name": "",
          "type": "bytes32"
        }
      ],
      "stateMutability": "view",
      "type": "function"
    },
    {
      "inputs": [
        {
          "internalType": "bytes32",
          "name": "role",
          "type": "bytes32"
        },
        {
          "internalType": "address",
          "name": "account",
          "type": "address"
        }
      ],
      "name": "grantRole",
      "outputs": [],
      "stateMutability": "nonpayable",
      "type": "function"
    },
    {
      "inputs": [
        {
          "internalType": "bytes32",
          "name": "role",
          "type": "bytes32"
        },
        {
          "internalType": "address",
          "name": "account",
          "type": "address"
        }
      ],
      "name": "hasRole",
      "outputs": [
        {
          "internalType": "bool",
          "name": "",
          "type": "bool"
        }
      ],
      "stateMutability": "view",
      "type": "function"
    },
    {
      "inputs": [
        {
          "internalType": "string",
          "name": "_assetName",
          "type": "string"
        },
        {
          "internalType": "string",
          "name": "_assetSymbol",
          "type": "string"
        },
        {
          "internalType": "string",
          "name": "_assetLabel",
          "type": "string"
        },
        {
          "internalType": "address",
          "name": "_settlementToken",
          "type": "address"
        },
        {
          "internalType": "address",
          "name": "admin",
          "type": "address"
        }
      ],
      "name": "initialize",
      "outputs": [],
      "stateMutability": "nonpayable",
      "type": "function"
    },
    {
      "inputs": [],
      "name": "interestVault",
      "outputs": [
        {
          "internalType": "address",
          "name": "",
          "type": "address"
        }
      ],
      "stateMutability": "view",
      "type": "function"
    },
    {
      "inputs": [
        {
          "internalType": "address",
          "name": "account",
          "type": "address"
        },
        {
          "internalType": "address",
          "name": "operator",
          "type": "address"
        }
      ],
      "name": "isApprovedForAll",
      "outputs": [
        {
          "internalType": "bool",
          "name": "",
          "type": "bool"
        }
      ],
      "stateMutability": "view",
      "type": "function"
    },
    {
      "inputs": [
        {
          "internalType": "uint256",
          "name": "tokenId",
          "type": "uint256"
        },
        {
          "internalType": "address",
          "name": "to",
          "type": "address"
        },
        {
          "internalType": "uint256",
          "name": "amount",
          "type": "uint256"
        }
      ],
      "name": "issue",
      "outputs": [],
      "stateMutability": "nonpayable",
      "type": "function"
    },
    {
      "inputs": [],
      "name": "nextSeriesId",
      "outputs": [
        {
          "internalType": "uint256",
          "name": "",
          "type": "uint256"
        }
      ],
      "stateMutability": "view",
      "type": "function"
    },
    {
      "inputs": [],
      "name": "pause",
      "outputs": [],
      "stateMutability": "nonpayable",
      "type": "function"
    },
    {
      "inputs": [],
      "name": "paused",
      "outputs": [
        {
          "internalType": "bool",
          "name": "",
          "type": "bool"
        }
      ],
      "stateMutability": "view",
      "type": "function"
    },
    {
      "inputs": [
        {
          "internalType": "uint256",
          "name": "",
          "type": "uint256"
        },
        {
          "internalType": "address",
          "name": "",
          "type": "address"
        }
      ],
      "name": "pendingRevenue",
      "outputs": [
        {
          "internalType": "uint256",
          "name": "",
          "type": "uint256"
        }
      ],
      "stateMutability": "view",
      "type": "function"
    },
    {
      "inputs": [
        {
          "internalType": "bytes32",
          "name": "role",
          "type": "bytes32"
        },
        {
          "internalType": "address",
          "name": "callerConfirmation",
          "type": "address"
        }
      ],
      "name": "renounceRole",
      "outputs": [],
      "stateMutability": "nonpayable",
      "type": "function"
    },
    {
      "inputs": [
        {
          "internalType": "bytes32",
          "name": "role",
          "type": "bytes32"
        },
        {
          "internalType": "address",
          "name": "account",
          "type": "address"
        }
      ],
      "name": "revokeRole",
      "outputs": [],
      "stateMutability": "nonpayable",
      "type": "function"
    },
    {
      "inputs": [
        {
          "internalType": "address",
          "name": "from",
          "type": "address"
        },
        {
          "internalType": "address",
          "name": "to",
          "type": "address"
        },
        {
          "internalType": "uint256[]",
          "name": "ids",
          "type": "uint256[]"
        },
        {
          "internalType": "uint256[]",
          "name": "values",
          "type": "uint256[]"
        },
        {
          "internalType": "bytes",
          "name": "data",
          "type": "bytes"
        }
      ],
      "name": "safeBatchTransferFrom",
      "outputs": [],
      "stateMutability": "nonpayable",
      "type": "function"
    },
    {
      "inputs": [
        {
          "internalType": "address",
          "name": "from",
          "type": "address"
        },
        {
          "internalType": "address",
          "name": "to",
          "type": "address"
        },
        {
          "internalType": "uint256",
          "name": "id",
          "type": "uint256"
        },
        {
          "internalType": "uint256",
          "name": "value",
          "type": "uint256"
        },
        {
          "internalType": "bytes",
          "name": "data",
          "type": "bytes"
        }
      ],
      "name": "safeTransferFrom",
      "outputs": [],
      "stateMutability": "nonpayable",
      "type": "function"
    },
    {
      "inputs": [
        {
          "internalType": "uint256",
          "name": "",
          "type": "uint256"
        }
      ],
      "name": "series",
      "outputs": [
        {
          "internalType": "string",
          "name": "label",
          "type": "string"
        },
        {
          "internalType": "uint256",
          "name": "unitPrice",
          "type": "uint256"
        },
        {
          "internalType": "uint256",
          "name": "maxSupply",
          "type": "uint256"
        },
        {
          "internalType": "bool",
          "name": "active",
          "type": "bool"
        }
      ],
      "stateMutability": "view",
      "type": "function"
    },
    {
      "inputs": [
        {
          "internalType": "address",
          "name": "operator",
          "type": "address"
        },
        {
          "internalType": "bool",
          "name": "approved",
          "type": "bool"
        }
      ],
      "name": "setApprovalForAll",
      "outputs": [],
      "stateMutability": "nonpayable",
      "type": "function"
    },
    {
      "inputs": [
        {
          "internalType": "string",
          "name": "uri_",
          "type": "string"
        }
      ],
      "name": "setBaseURI",
      "outputs": [],
      "stateMutability": "nonpayable",
      "type": "function"
    },
    {
      "inputs": [
        {
          "internalType": "address",
          "name": "account",
          "type": "address"
        },
        {
          "internalType": "bool",
          "name": "_blacklisted",
          "type": "bool"
        }
      ],
      "name": "setBlacklisted",
      "outputs": [],
      "stateMutability": "nonpayable",
      "type": "function"
    },
    {
      "inputs": [
        {
          "internalType": "address",
          "name": "account",
          "type": "address"
        },
        {
          "internalType": "bool",
          "name": "_frozen",
          "type": "bool"
        }
      ],
      "name": "setFrozen",
      "outputs": [],
      "stateMutability": "nonpayable",
      "type": "function"
    },
    {
      "inputs": [
        {
          "internalType": "address",
          "name": "vault",
          "type": "address"
        }
      ],
      "name": "setInterestVault",
      "outputs": [],
      "stateMutability": "nonpayable",
      "type": "function"
    },
    {
      "inputs": [
        {
          "internalType": "uint256",
          "name": "tokenId",
          "type": "uint256"
        },
        {
          "internalType": "bool",
          "name": "active",
          "type": "bool"
        }
      ],
      "name": "setSeriesActive",
      "outputs": [],
      "stateMutability": "nonpayable",
      "type": "function"
    },
    {
      "inputs": [
        {
          "internalType": "address",
          "name": "account",
          "type": "address"
        },
        {
          "internalType": "bool",
          "name": "allowed",
          "type": "bool"
        }
      ],
      "name": "setWhitelist",
      "outputs": [],
      "stateMutability": "nonpayable",
      "type": "function"
    },
    {
      "inputs": [],
      "name": "settlementToken",
      "outputs": [
        {
          "internalType": "contract IERC20",
          "name": "",
          "type": "address"
        }
      ],
      "stateMutability": "view",
      "type": "function"
    },
    {
      "inputs": [
        {
          "internalType": "bytes4",
          "name": "interfaceId",
          "type": "bytes4"
        }
      ],
      "name": "supportsInterface",
      "outputs": [
        {
          "internalType": "bool",
          "name": "",
          "type": "bool"
        }
      ],
      "stateMutability": "view",
      "type": "function"
    },
    {
      "inputs": [],
      "name": "totalSupply",
      "outputs": [
        {
          "internalType": "uint256",
          "name": "",
          "type": "uint256"
        }
      ],
      "stateMutability": "view",
      "type": "function"
    },
    {
      "inputs": [
        {
          "internalType": "uint256",
          "name": "id",
          "type": "uint256"
        }
      ],
      "name": "totalSupply",
      "outputs": [
        {
          "internalType": "uint256",
          "name": "",
          "type": "uint256"
        }
      ],
      "stateMutability": "view",
      "type": "function"
    },
    {
      "inputs": [],
      "name": "unpause",
      "outputs": [],
      "stateMutability": "nonpayable",
      "type": "function"
    },
    {
      "inputs": [
        {
          "internalType": "uint256",
          "name": "tokenId",
          "type": "uint256"
        }
      ],
      "name": "uri",
      "outputs": [
        {
          "internalType": "string",
          "name": "",
          "type": "string"
        }
      ],
      "stateMutability": "view",
      "type": "function"
    },
    {
      "inputs": [
        {
          "internalType": "uint256",
          "name": "",
          "type": "uint256"
        },
        {
          "internalType": "address",
          "name": "",
          "type": "address"
        }
      ],
      "name": "userRevenueCredited",
      "outputs": [
        {
          "internalType": "uint256",
          "name": "",
          "type": "uint256"
        }
      ],
      "stateMutability": "view",
      "type": "function"
    },
    {
      "inputs": [
        {
          "internalType": "address",
          "name": "",
          "type": "address"
        }
      ],
      "name": "whitelisted",
      "outputs": [
        {
          "internalType": "bool",
          "name": "",
          "type": "bool"
        }
      ],
      "stateMutability": "view",
      "type": "function"
    }
  ],
  "bytecode": "0x60806040523480156200001157600080fd5b506040805160208101909152600081526200002c8162000038565b506001600755620001bd565b6002620000468282620000f1565b5050565b634e487b7160e01b600052604160045260246000fd5b600181811c908216806200007557607f821691505b6020821081036200009657634e487b7160e01b600052602260045260246000fd5b50919050565b601f821115620000ec576000816000526020600020601f850160051c81016020861015620000c75750805b601f850160051c820191505b81811015620000e857828155600101620000d3565b5050505b505050565b81516001600160401b038111156200010d576200010d6200004a565b62000125816200011e845462000060565b846200009c565b602080601f8311600181146200015d5760008415620001445750858301515b600019600386901b1c1916600185901b178555620000e8565b600085815260208120601f198616915b828110156200018e578886015182559484019460019091019084016200016d565b5085821015620001ad5787850151600019600388901b60f8161c191681555b5050505050600190811b01905550565b6133cd80620001cd6000396000f3fe608060405234801561001057600080fd5b506004361061029f5760003560e01c80638baeb23d11610167578063c9230c5d116100ce578063dbac26e911610087578063dbac26e91461063a578063dc22cb6a1461065d578063e985e9c514610680578063f242432a14610693578063f38dab60146106a6578063f5b541a6146106b957600080fd5b8063c9230c5d146105b3578063d01dd6d2146105bb578063d0516650146105ce578063d547741f146105f1578063d6d0faee14610604578063d936547e1461061757600080fd5b8063a22cb46511610120578063a22cb46514610504578063ac869cd814610517578063bb0bc5141461052a578063bb70516014610555578063bd85b03914610568578063c4f0da7b1461058857600080fd5b80638baeb23d1461049057806391d14854146104a3578063945a3bad146104b65780639b7f8019146104d6578063a0c7f71c146104e9578063a217fddf146104fc57600080fd5b80633ffa884c1161020b5780635c975abb116101c45780635c975abb1461042c5780636c0360eb146104375780636ed3e3e31461043f5780637b9e618d1461044857806382aefa24146104735780638456cb591461048857600080fd5b80633ffa884c146103a95780634e1273f4146103bc5780634f558e79146103dc57806353d6fd59146103fe57806355f804b3146104115780635b2e374f1461042457600080fd5b8063248a9ca31161025d578063248a9ca3146103325780632eb2c2d6146103555780632f2ff15d1461036857806336568abe1461037b578063379607f51461038e5780633f4ba83a146103a157600080fd5b8062fdd58e146102a457806301ffc9a7146102ca5780630cae7afc146102ed5780630e89341c14610302578063176de7a81461032257806318160ddd1461032a575b600080fd5b6102b76102b2366004612704565b6106ce565b6040519081526020015b60405180910390f35b6102dd6102d8366004612744565b6106f6565b60405190151581526020016102c1565b6103006102fb366004612768565b610701565b005b61031561031036600461278a565b61093c565b6040516102c191906127f3565b61031561099a565b6004546102b7565b6102b761034036600461278a565b60009081526005602052604090206001015490565b61030061036336600461294d565b610a28565b6103006103763660046129f6565b610a8f565b6103006103893660046129f6565b610aba565b61030061039c36600461278a565b610af2565b610300610cad565b6103006103b7366004612a22565b610ccd565b6103cf6103ca366004612a57565b610f0d565b6040516102c19190612b52565b6102dd6103ea36600461278a565b600090815260036020526040902054151590565b61030061040c366004612b73565b610fd9565b61030061041f366004612bf2565b611052565b6103156110b6565b60065460ff166102dd565b6103156110c3565b6102b760115481565b600b5461045b906001600160a01b031681565b6040516001600160a01b0390911681526020016102c1565b6102b760008051602061335883398151915281565b6103006110d0565b61030061049e366004612c33565b6110f0565b6102dd6104b13660046129f6565b611195565b6102b76104c436600461278a565b60136020526000908152604090205481565b600c5461045b906001600160a01b031681565b6102b76104f73660046129f6565b6111c0565b6102b7600081565b610300610512366004612b73565b611273565b610300610525366004612b73565b611282565b6102b76105383660046129f6565b601560209081526000928352604080842090915290825290205481565b610300610563366004612c58565b6112f2565b6102b761057636600461278a565b60009081526003602052604090205490565b6102b76105963660046129f6565b601460209081526000928352604080842090915290825290205481565b610315611355565b6103006105c9366004612b73565b611362565b6102dd6105dc366004612c58565b600f6020526000908152604090205460ff1681565b6103006105ff3660046129f6565b6113d2565b610300610612366004612c73565b6113f7565b6102dd610625366004612c58565b600e6020526000908152604090205460ff1681565b6102dd610648366004612c58565b60106020526000908152604090205460ff1681565b61067061066b36600461278a565b611501565b6040516102c19493929190612d2d565b6102dd61068e366004612d5e565b6115b6565b6103006106a1366004612d88565b6115e4565b6102b76106b4366004612dec565b611643565b6102b760008051602061337883398151915281565b6000818152602081815260408083206001600160a01b03861684529091529020545b92915050565b60006106f082611797565b600080516020613378833981519152610719816117bc565b600082116107595760405162461bcd60e51b81526020600482015260086024820152670616d6f756e743d360c41b60448201526064015b60405180910390fd5b600083815260036020526040812054116107a15760405162461bcd60e51b81526020600482015260096024820152686e6f20737570706c7960b81b6044820152606401610750565b600083815260126020526040902080546107ba90612e3c565b90506000036107db5760405162461bcd60e51b815260040161075090612e76565b600b546040516323b872dd60e01b8152336004820152306024820152604481018490526001600160a01b03909116906323b872dd906064016020604051808303816000875af1158015610832573d6000803e3d6000fd5b505050506040513d601f19601f820116820180604052508101906108569190612ea0565b6108985760405162461bcd60e51b81526020600482015260136024820152721d1c985b9cd9995c919c9bdb4819985a5b1959606a1b6044820152606401610750565b6000838152600360205260408120546108b984670de0b6b3a7640000612ed3565b6108c39190612eea565b9050806013600086815260200190815260200160002060008282546108e89190612f0c565b90915550506000848152601360209081526040918290205482518681529182015285917f271447a7fc6bd5726818ce06a9d9ffdecd61963481f678d3903cc5bacc523c86910160405180910390a250505050565b6060600d805461094b90612e3c565b905060000361096857505060408051602081019091526000815290565b600d610973836117c6565b604051602001610984929190612f1f565b6040516020818303038152906040529050919050565b600980546109a790612e3c565b80601f01602080910402602001604051908101604052809291908181526020018280546109d390612e3c565b8015610a205780601f106109f557610100808354040283529160200191610a20565b820191906000526020600020905b815481529060010190602001808311610a0357829003601f168201915b505050505081565b336001600160a01b0386168114801590610a495750610a4786826115b6565b155b15610a7a5760405163711bec9160e11b81526001600160a01b03808316600483015287166024820152604401610750565b610a878686868686611858565b505050505050565b600082815260056020526040902060010154610aaa816117bc565b610ab483836118bf565b50505050565b6001600160a01b0381163314610ae35760405163334bd91960e11b815260040160405180910390fd5b610aed8282611953565b505050565b610afa6119c0565b610b026119ea565b610b0b33611a10565b610b275760405162461bcd60e51b815260040161075090612fa6565b6000610b3382336111c0565b905060008111610b785760405162461bcd60e51b815260206004820152601060248201526f6e6f7468696e6720746f20636c61696d60801b6044820152606401610750565b6000828152601560209081526040808320338085529083528184208490558584526013835281842054601484528285208286529093529281902091909155600b54905163a9059cbb60e01b81526004810192909252602482018390526001600160a01b03169063a9059cbb906044016020604051808303816000875af1158015610c06573d6000803e3d6000fd5b505050506040513d601f19601f82011682018060405250810190610c2a9190612ea0565b610c685760405162461bcd60e51b815260206004820152600f60248201526e1d1c985b9cd9995c8819985a5b1959608a1b6044820152606401610750565b604051818152339083907fb9e8470097faa00e83252475f2ee4b69007b0bb2405268ebec248676998a21b39060200160405180910390a350610caa6001600755565b50565b600080516020613378833981519152610cc5816117bc565b610caa611a92565b600080516020613358833981519152610ce5816117bc565b600084815260126020526040808220815160808101909252805482908290610d0c90612e3c565b80601f0160208091040260200160405190810160405280929190818152602001828054610d3890612e3c565b8015610d855780601f10610d5a57610100808354040283529160200191610d85565b820191906000526020600020905b815481529060010190602001808311610d6857829003601f168201915b5050509183525050600182015460208201526002820154604082015260039091015460ff161515606090910152805151909150600003610dd75760405162461bcd60e51b815260040161075090612e76565b8060600151610e1a5760405162461bcd60e51b815260206004820152600f60248201526e73657269657320696e61637469766560881b6044820152606401610750565b806040015183610e368760009081526003602052604090205490565b610e409190612f0c565b1115610e825760405162461bcd60e51b815260206004820152601160248201527065786365656473206d6178537570706c7960781b6044820152606401610750565b610e8b84611ae4565b610ea75760405162461bcd60e51b815260040161075090612fd2565b610ec284868560405180602001604052806000815250611aef565b836001600160a01b0316857f317f5fcebc6292737b7bf155c74847bfde3facfb62681e7b754c7eedb9eef87585604051610efe91815260200190565b60405180910390a35050505050565b60608151835114610f3e5781518351604051635b05999160e01b815260048101929092526024820152604401610750565b600083516001600160401b03811115610f5957610f59612806565b604051908082528060200260200182016040528015610f82578160200160208202803683370190505b50905060005b8451811015610fd157602080820286010151610fac906020808402870101516106ce565b828281518110610fbe57610fbe613000565b6020908102919091010152600101610f88565b509392505050565b600080516020613378833981519152610ff1816117bc565b6001600160a01b0383166000818152600e6020908152604091829020805460ff191686151590811790915591519182527ff93f9a76c1bf3444d22400a00cb9fe990e6abe9dbb333fda48859cfee864543d91015b60405180910390a2505050565b60008051602061337883398151915261106a816117bc565b600d61107783858361305e565b507f6741b2fc379fad678116fe3d4d4b9a1a184ab53ba36b86ad0fa66340b1ab41ad83836040516110a9929190613146565b60405180910390a1505050565b600a80546109a790612e3c565b600d80546109a790612e3c565b6000805160206133788339815191526110e8816117bc565b610caa611b4c565b600080516020613378833981519152611108816117bc565b6000838152601260205260409020805461112190612e3c565b90506000036111425760405162461bcd60e51b815260040161075090612e76565b600083815260126020908152604091829020600301805460ff1916851515908117909155915191825284917fc28b90a416ff3b17c6686905293ae1f597be96b9ad4488f3dcc48a7fe4043a739101611045565b60009182526005602090815260408084206001600160a01b0393909316845291905290205460ff1690565b6000806111cd83856106ce565b600085815260136020908152604080832054601483528184206001600160a01b03891685529092528220549293509190831580159061120b57508183115b1561123a57670de0b6b3a76400006112238385613162565b61122d9086612ed3565b6112379190612eea565b90505b60008781526015602090815260408083206001600160a01b038a168452909152902054611268908290612f0c565b979650505050505050565b61127e338383611b89565b5050565b60008051602061337883398151915261129a816117bc565b6001600160a01b0383166000818152600f6020908152604091829020805460ff191686151590811790915591519182527f3fdf348e931eca704dcfa3857f82af4904ebc7a2898428f61b37252a2cc71d2a9101611045565b60008051602061337883398151915261130a816117bc565b600c80546001600160a01b0319166001600160a01b0384169081179091556040517f986f7e525b542faf0ca6424ec448626390e0acc514dc84a02092e03350b1f71590600090a25050565b600880546109a790612e3c565b60008051602061337883398151915261137a816117bc565b6001600160a01b038316600081815260106020908152604091829020805460ff191686151590811790915591519182527f6a12b3df6cba4203bd7fd06b816789f87de8c594299aed5717ae070fac781bac9101611045565b6000828152600560205260409020600101546113ed816117bc565b610ab48383611953565b60165460ff16156114405760405162461bcd60e51b8152602060048201526013602482015272185b1c9958591e481a5b9a5d1a585b1a5e9959606a1b6044820152606401610750565b6016805460ff19166001179055600861145a888a8361305e565b50600961146886888361305e565b50600a61147684868361305e565b50600b80546001600160a01b0319166001600160a01b03841617905561149d6000826118bf565b506114b6600080516020613378833981519152826118bf565b506114cf600080516020613358833981519152826118bf565b506001600160a01b03166000908152600e60205260409020805460ff1916600190811790915560115550505050505050565b60126020526000908152604090208054819061151c90612e3c565b80601f016020809104026020016040519081016040528092919081815260200182805461154890612e3c565b80156115955780601f1061156a57610100808354040283529160200191611595565b820191906000526020600020905b81548152906001019060200180831161157857829003601f168201915b50505050600183015460028401546003909401549293909290915060ff1684565b6001600160a01b03918216600090815260016020908152604080832093909416825291909152205460ff1690565b336001600160a01b0386168114801590611605575061160386826115b6565b155b156116365760405163711bec9160e11b81526001600160a01b03808316600483015287166024820152604401610750565b610a878686868686611c1f565b600060008051602061335883398151915261165d816117bc565b6000831161169b5760405162461bcd60e51b815260206004820152600b60248201526a06d6178537570706c793d360ac1b6044820152606401610750565b601180549060006116ab83613175565b909155506040805160a06020601f8a0181900402820181019092526080810188815292945091829189908990819085018382808284376000920182905250938552505050602080830188905260408084018890526001606090940193909352858252601290522081518190611720908261318e565b506020820151600182015560408083015160028301556060909201516003909101805460ff19169115159190911790555182907fb0086ef6a899a5b335d43711ce99cd3531b617f30db912afe75841b84627a1929061178690899089908990899061324d565b60405180910390a250949350505050565b60006001600160e01b03198216637965db0b60e01b14806106f057506106f082611cad565b610caa8133611cfd565b606060006117d383611d36565b60010190506000816001600160401b038111156117f2576117f2612806565b6040519080825280601f01601f19166020018201604052801561181c576020820181803683370190505b5090508181016020015b600019016f181899199a1a9b1b9c1cb0b131b232b360811b600a86061a8153600a850494508461182657509392505050565b6001600160a01b03841661188257604051632bfa23e760e11b815260006004820152602401610750565b6001600160a01b0385166118ab57604051626a0d4560e21b815260006004820152602401610750565b6118b88585858585611e0e565b5050505050565b60006118cb8383611195565b61194b5760008381526005602090815260408083206001600160a01b03861684529091529020805460ff191660011790556119033390565b6001600160a01b0316826001600160a01b0316847f2f8788117e7eff1d82e926ec794901d17c78024a50270940304540a733656f0d60405160405180910390a45060016106f0565b5060006106f0565b600061195f8383611195565b1561194b5760008381526005602090815260408083206001600160a01b0386168085529252808320805460ff1916905551339286917ff6391f5c32d9c69d2a47ea670b442974b53935d1edc7fd64eb21e047a839171b9190a45060016106f0565b6002600754036119e357604051633ee5aeb560e01b815260040160405180910390fd5b6002600755565b60065460ff1615611a0e5760405163d93c066560e01b815260040160405180910390fd5b565b6001600160a01b03811660009081526010602052604081205460ff1615611a3957506000919050565b6001600160a01b0382166000908152600f602052604090205460ff1615611a6257506000919050565b6001600160a01b0382166000908152600e602052604090205460ff16611a8a57506000919050565b506001919050565b611a9a611e61565b6006805460ff191690557f5db9ee0a495bf2e6ff9c91a7834c1ba4fdd244a5e8aa4e537bd38aeae4b073aa335b6040516001600160a01b03909116815260200160405180910390a1565b60006106f082611a10565b6001600160a01b038416611b1957604051632bfa23e760e11b815260006004820152602401610750565b60408051600180825260208201869052818301908152606082018590526080820190925290610a87600087848487611e0e565b611b546119ea565b6006805460ff191660011790557f62e78cea01bee320cd4e420270b5ea74000d11b0c9f74754ebdbfc544b05a258611ac73390565b6001600160a01b038216611bb25760405162ced3e160e81b815260006004820152602401610750565b6001600160a01b03838116600081815260016020908152604080832094871680845294825291829020805460ff191686151590811790915591519182527f17307eab39ab6107e8899845ad3d59bd9653f200f220920489ca2b5937696c31910160405180910390a3505050565b6001600160a01b038416611c4957604051632bfa23e760e11b815260006004820152602401610750565b6001600160a01b038516611c7257604051626a0d4560e21b815260006004820152602401610750565b60408051600180825260208201869052818301908152606082018590526080820190925290611ca48787848487611e0e565b50505050505050565b60006001600160e01b03198216636cdb3d1360e11b1480611cde57506001600160e01b031982166303a24d0760e21b145b806106f057506301ffc9a760e01b6001600160e01b03198316146106f0565b611d078282611195565b61127e5760405163e2517d3f60e01b81526001600160a01b038216600482015260248101839052604401610750565b60008072184f03e93ff9f4daa797ed6e38ed64bf6a1f0160401b8310611d755772184f03e93ff9f4daa797ed6e38ed64bf6a1f0160401b830492506040015b6d04ee2d6d415b85acef81000000008310611da1576d04ee2d6d415b85acef8100000000830492506020015b662386f26fc100008310611dbf57662386f26fc10000830492506010015b6305f5e1008310611dd7576305f5e100830492506008015b6127108310611deb57612710830492506004015b60648310611dfd576064830492506002015b600a83106106f05760010192915050565b611e1a85858585611e84565b6001600160a01b038416156118b85782513390600103611e535760208481015190840151611e4c8389898585896120ec565b5050610a87565b610a87818787878787612210565b60065460ff16611a0e57604051638dfc202b60e01b815260040160405180910390fd5b611e8c6119ea565b60005b825181101561201e576000838281518110611eac57611eac613000565b6020908102919091010151600c549091506001600160a01b031615611fe3576001600160a01b03861615611f57576000611ee687836106ce565b600c5460405163177ae36b60e31b81526001600160a01b038a81166004830152602482018690526044820184905292935091169063bbd71b5890606401600060405180830381600087803b158015611f3d57600080fd5b505af1158015611f51573d6000803e3d6000fd5b50505050505b6001600160a01b03851615611fe3576000611f7286836106ce565b600c5460405163177ae36b60e31b81526001600160a01b038981166004830152602482018690526044820184905292935091169063bbd71b5890606401600060405180830381600087803b158015611fc957600080fd5b505af1158015611fdd573d6000803e3d6000fd5b50505050505b6001600160a01b03861615611ffc57611ffc81876122f9565b6001600160a01b038516156120155761201581866122f9565b50600101611e8f565b506001600160a01b0384166120635761203683611ae4565b6120525760405162461bcd60e51b815260040161075090612fd2565b61205e848484846123e8565b610ab4565b6001600160a01b0383166120965761207a84611a10565b6120525760405162461bcd60e51b815260040161075090612fa6565b61209f84611a10565b6120bb5760405162461bcd60e51b815260040161075090612fa6565b6120c483611ae4565b6120e05760405162461bcd60e51b815260040161075090612fd2565b610ab4848484846123e8565b6001600160a01b0384163b15610a875760405163f23a6e6160e01b81526001600160a01b0385169063f23a6e61906121309089908990889088908890600401613274565b6020604051808303816000875af192505050801561216b575060408051601f3d908101601f19168201909252612168918101906132ae565b60015b6121d4573d808015612199576040519150601f19603f3d011682016040523d82523d6000602084013e61219e565b606091505b5080516000036121cc57604051632bfa23e760e11b81526001600160a01b0386166004820152602401610750565b805160208201fd5b6001600160e01b0319811663f23a6e6160e01b14611ca457604051632bfa23e760e11b81526001600160a01b0386166004820152602401610750565b6001600160a01b0384163b15610a875760405163bc197c8160e01b81526001600160a01b0385169063bc197c819061225490899089908890889088906004016132cb565b6020604051808303816000875af192505050801561228f575060408051601f3d908101601f1916820190925261228c918101906132ae565b60015b6122bd573d808015612199576040519150601f19603f3d011682016040523d82523d6000602084013e61219e565b6001600160e01b0319811663bc197c8160e01b14611ca457604051632bfa23e760e11b81526001600160a01b0386166004820152602401610750565b6001600160a01b03811661230b575050565b600061231782846106ce565b600084815260136020908152604080832054601483528184206001600160a01b03881685529092529091205491925090821580159061235557508082115b156123be5760006123668284613162565b9050670de0b6b3a764000061237b8286612ed3565b6123859190612eea565b60008781526015602090815260408083206001600160a01b038a168452909152812080549091906123b7908490612f0c565b9091555050505b5060009384526014602090815260408086206001600160a01b039095168652939052919092205550565b6123f4848484846124d4565b6001600160a01b038416612474576000805b835181101561245a576020818102848101820151908601820151600090815260039092526040822080549192839261243f908490612f0c565b9091555061244f90508184612f0c565b925050600101612406565b50806004600082825461246d9190612f0c565b9091555050505b6001600160a01b038316610ab4576000805b83518110156124c3576020818102848101820151908601820151600090815260039092526040909120805482900390559190910190600101612486565b506004805491909103905550505050565b80518251146125035781518151604051635b05999160e01b815260048101929092526024820152604401610750565b3360005b8351811015612609576020818102858101820151908501909101516001600160a01b038816156125ba576000828152602081815260408083206001600160a01b038c16845290915290205481811015612593576040516303dee4c560e01b81526001600160a01b038a166004820152602481018290526044810183905260648101849052608401610750565b6000838152602081815260408083206001600160a01b038d16845290915290209082900390555b6001600160a01b038716156125ff576000828152602081815260408083206001600160a01b038b168452909152812080548392906125f9908490612f0c565b90915550505b5050600101612507565b50825160010361268a5760208301516000906020840151909150856001600160a01b0316876001600160a01b0316846001600160a01b03167fc3d58168c5ae7397731d063d5bbf3d657854427343f4c083240f7aacaa2d0f62858560405161267b929190918252602082015260400190565b60405180910390a450506118b8565b836001600160a01b0316856001600160a01b0316826001600160a01b03167f4a39dc06d4c0dbc64b70af90fd698a233a518aa5d07e595d983b8c0526c8f7fb86866040516126d9929190613329565b60405180910390a45050505050565b80356001600160a01b03811681146126ff57600080fd5b919050565b6000806040838503121561271757600080fd5b612720836126e8565b946020939093013593505050565b6001600160e01b031981168114610caa57600080fd5b60006020828403121561275657600080fd5b81356127618161272e565b9392505050565b6000806040838503121561277b57600080fd5b50508035926020909101359150565b60006020828403121561279c57600080fd5b5035919050565b60005b838110156127be5781810151838201526020016127a6565b50506000910152565b600081518084526127df8160208601602086016127a3565b601f01601f19169290920160200192915050565b60208152600061276160208301846127c7565b634e487b7160e01b600052604160045260246000fd5b604051601f8201601f191681016001600160401b038111828210171561284457612844612806565b604052919050565b60006001600160401b0382111561286557612865612806565b5060051b60200190565b600082601f83011261288057600080fd5b813560206128956128908361284c565b61281c565b8083825260208201915060208460051b8701019350868411156128b757600080fd5b602086015b848110156128d357803583529183019183016128bc565b509695505050505050565b600082601f8301126128ef57600080fd5b81356001600160401b0381111561290857612908612806565b61291b601f8201601f191660200161281c565b81815284602083860101111561293057600080fd5b816020850160208301376000918101602001919091529392505050565b600080600080600060a0868803121561296557600080fd5b61296e866126e8565b945061297c602087016126e8565b935060408601356001600160401b038082111561299857600080fd5b6129a489838a0161286f565b945060608801359150808211156129ba57600080fd5b6129c689838a0161286f565b935060808801359150808211156129dc57600080fd5b506129e9888289016128de565b9150509295509295909350565b60008060408385031215612a0957600080fd5b82359150612a19602084016126e8565b90509250929050565b600080600060608486031215612a3757600080fd5b83359250612a47602085016126e8565b9150604084013590509250925092565b60008060408385031215612a6a57600080fd5b82356001600160401b0380821115612a8157600080fd5b818501915085601f830112612a9557600080fd5b81356020612aa56128908361284c565b82815260059290921b84018101918181019089841115612ac457600080fd5b948201945b83861015612ae957612ada866126e8565b82529482019490820190612ac9565b96505086013592505080821115612aff57600080fd5b50612b0c8582860161286f565b9150509250929050565b60008151808452602080850194506020840160005b83811015612b4757815187529582019590820190600101612b2b565b509495945050505050565b6020815260006127616020830184612b16565b8015158114610caa57600080fd5b60008060408385031215612b8657600080fd5b612b8f836126e8565b91506020830135612b9f81612b65565b809150509250929050565b60008083601f840112612bbc57600080fd5b5081356001600160401b03811115612bd357600080fd5b602083019150836020828501011115612beb57600080fd5b9250929050565b60008060208385031215612c0557600080fd5b82356001600160401b03811115612c1b57600080fd5b612c2785828601612baa565b90969095509350505050565b60008060408385031215612c4657600080fd5b823591506020830135612b9f81612b65565b600060208284031215612c6a57600080fd5b612761826126e8565b60008060008060008060008060a0898b031215612c8f57600080fd5b88356001600160401b0380821115612ca657600080fd5b612cb28c838d01612baa565b909a50985060208b0135915080821115612ccb57600080fd5b612cd78c838d01612baa565b909850965060408b0135915080821115612cf057600080fd5b50612cfd8b828c01612baa565b9095509350612d10905060608a016126e8565b9150612d1e60808a016126e8565b90509295985092959890939650565b608081526000612d4060808301876127c7565b60208301959095525060408101929092521515606090910152919050565b60008060408385031215612d7157600080fd5b612d7a836126e8565b9150612a19602084016126e8565b600080600080600060a08688031215612da057600080fd5b612da9866126e8565b9450612db7602087016126e8565b9350604086013592506060860135915060808601356001600160401b03811115612de057600080fd5b6129e9888289016128de565b60008060008060608587031215612e0257600080fd5b84356001600160401b03811115612e1857600080fd5b612e2487828801612baa565b90989097506020870135966040013595509350505050565b600181811c90821680612e5057607f821691505b602082108103612e7057634e487b7160e01b600052602260045260246000fd5b50919050565b60208082526010908201526f1cd95c9a595cc81b9bdd08199bdd5b9960821b604082015260600190565b600060208284031215612eb257600080fd5b815161276181612b65565b634e487b7160e01b600052601160045260246000fd5b80820281158282048414176106f0576106f0612ebd565b600082612f0757634e487b7160e01b600052601260045260246000fd5b500490565b808201808211156106f0576106f0612ebd565b6000808454612f2d81612e3c565b60018281168015612f455760018114612f5a57612f89565b60ff1984168752821515830287019450612f89565b8860005260208060002060005b85811015612f805781548a820152908401908201612f67565b50505082870194505b505050508351612f9d8183602088016127a3565b01949350505050565b6020808252601290820152711cd95b99195c881b9bdd08185b1b1bddd95960721b604082015260600190565b6020808252601490820152731c9958d95a5d995c881b9bdd08185b1b1bddd95960621b604082015260600190565b634e487b7160e01b600052603260045260246000fd5b601f821115610aed576000816000526020600020601f850160051c8101602086101561303f5750805b601f850160051c820191505b81811015610a875782815560010161304b565b6001600160401b0383111561307557613075612806565b613089836130838354612e3c565b83613016565b6000601f8411600181146130bd57600085156130a55750838201355b600019600387901b1c1916600186901b1783556118b8565b600083815260209020601f19861690835b828110156130ee57868501358255602094850194600190920191016130ce565b508682101561310b5760001960f88860031b161c19848701351681555b505060018560011b0183555050505050565b81835281816020850137506000828201602090810191909152601f909101601f19169091010190565b60208152600061315a60208301848661311d565b949350505050565b818103818111156106f0576106f0612ebd565b60006001820161318757613187612ebd565b5060010190565b81516001600160401b038111156131a7576131a7612806565b6131bb816131b58454612e3c565b84613016565b602080601f8311600181146131f057600084156131d85750858301515b600019600386901b1c1916600185901b178555610a87565b600085815260208120601f198616915b8281101561321f57888601518255948401946001909101908401613200565b508582101561323d5787850151600019600388901b60f8161c191681555b5050505050600190811b01905550565b60608152600061326160608301868861311d565b6020830194909452506040015292915050565b6001600160a01b03868116825285166020820152604081018490526060810183905260a060808201819052600090611268908301846127c7565b6000602082840312156132c057600080fd5b81516127618161272e565b6001600160a01b0386811682528516602082015260a0604082018190526000906132f790830186612b16565b82810360608401526133098186612b16565b9050828103608084015261331d81856127c7565b98975050505050505050565b60408152600061333c6040830185612b16565b828103602084015261334e8185612b16565b9594505050505056fe114e74f6ea3bd819998f78687bfcb11b140da08e9b7d222fa9c1f1ba1f2aa12297667070c54ef182b0f5858b034beac1b6f3089aa2d3188bb1e8929f4fa9b929a264697066735822122090de205b81cd2e0d472c0df463ae30b435a2e7795d026e7f38cde423c460926564736f6c63430008180033",
  "linkReferences": {},
  "deployedLinkReferences": {}
}