{
  "_format": "hh-sol-artifact-1",
  "contractName": "RBTPropertyToken",
  "sourceName": "contracts/rbt/RBTPropertyToken.sol",
  "abi": [
    {
      "inputs": [],
      "stateMutability": "nonpayable",
      "type": "constructor"
    },
    {
      "inputs": [],
      "name": "AccessControlBadConfirmation",
      "type": "error"
    },
    {
      "inputs": [
        {
          "internalType": "address",
          "name": "account",
          "type": "address"
        },
        {
          "internalType": "bytes32",
          "name": "neededRole",
          "type": "bytes32"
        }
      ],
      "name": "AccessControlUnauthorizedAccount",
      "type": "error"
    },
    {
      "inputs": [
        {
          "internalType": "address",
          "name": "sender",
          "type": "address"
        },
        {
          "internalType": "uint256",
          "name": "balance",
          "type": "uint256"
        },
        {
          "internalType": "uint256",
          "name": "needed",
          "type": "uint256"
        },
        {
          "internalType": "uint256",
          "name": "tokenId",
          "type": "uint256"
        }
      ],
      "name": "ERC1155InsufficientBalance",
      "type": "error"
    },
    {
      "inputs": [
        {
          "internalType": "address",
          "name": "approver",
          "type": "address"
        }
      ],
      "name": "ERC1155InvalidApprover",
      "type": "error"
    },
    {
      "inputs": [
        {
          "internalType": "uint256",
          "name": "idsLength",
          "type": "uint256"
        },
        {
          "internalType": "uint256",
          "name": "valuesLength",
          "type": "uint256"
        }
      ],
      "name": "ERC1155InvalidArrayLength",
      "type": "error"
    },
    {
      "inputs": [
        {
          "internalType": "address",
          "name": "operator",
          "type": "address"
        }
      ],
      "name": "ERC1155InvalidOperator",
      "type": "error"
    },
    {
      "inputs": [
        {
          "internalType": "address",
          "name": "receiver",
          "type": "address"
        }
      ],
      "name": "ERC1155InvalidReceiver",
      "type": "error"
    },
    {
      "inputs": [
        {
          "internalType": "address",
          "name": "sender",
          "type": "address"
        }
      ],
      "name": "ERC1155InvalidSender",
      "type": "error"
    },
    {
      "inputs": [
        {
          "internalType": "address",
          "name": "operator",
          "type": "address"
        },
        {
          "internalType": "address",
          "name": "owner",
          "type": "address"
        }
      ],
      "name": "ERC1155MissingApprovalForAll",
      "type": "error"
    },
    {
      "inputs": [],
      "name": "EnforcedPause",
      "type": "error"
    },
    {
      "inputs": [],
      "name": "ExpectedPause",
      "type": "error"
    },
    {
      "inputs": [],
      "name": "ReentrancyGuardReentrantCall",
      "type": "error"
    },
    {
      "anonymous": false,
      "inputs": [
        {
          "indexed": true,
          "internalType": "address",
          "name": "account",
          "type": "address"
        },
        {
          "indexed": true,
          "internalType": "address",
          "name": "operator",
          "type": "address"
        },
        {
          "indexed": false,
          "internalType": "bool",
          "name": "approved",
          "type": "bool"
        }
      ],
      "name": "ApprovalForAll",
      "type": "event"
    },
    {
      "anonymous": false,
      "inputs": [
        {
          "indexed": false,
          "internalType": "string",
          "name": "baseURI",
          "type": "string"
        }
      ],
      "name": "BaseURIUpdated",
      "type": "event"
    },
    {
      "anonymous": false,
      "inputs": [
        {
          "indexed": true,
          "internalType": "address",
          "name": "account",
          "type": "address"
        },
        {
          "indexed": false,
          "internalType": "bool",
          "name": "blacklisted",
          "type": "bool"
        }
      ],
      "name": "BlacklistUpdated",
      "type": "event"
    },
    {
      "anonymous": false,
      "inputs": [
        {
          "indexed": true,
          "internalType": "address",
          "name": "account",
          "type": "address"
        },
        {
          "indexed": false,
          "internalType": "bool",
          "name": "frozen",
          "type": "bool"
        }
      ],
      "name": "FrozenUpdated",
      "type": "event"
    },
    {
      "anonymous": false,
      "inputs": [
        {
          "indexed": true,
          "internalType": "address",
          "name": "interestVault",
          "type": "address"
        }
      ],
      "name": "InterestVaultUpdated",
      "type": "event"
    },
    {
      "anonymous": false,
      "inputs": [
        {
          "indexed": true,
          "internalType": "uint256",
          "name": "tokenId",
          "type": "uint256"
        },
        {
          "indexed": true,
          "internalType": "address",
          "name": "to",
          "type": "address"
        },
        {
          "indexed": false,
          "internalType": "uint256",
          "name": "amount",
          "type": "uint256"
        }
      ],
      "name": "Issued",
      "type": "event"
    },
    {
      "anonymous": false,
      "inputs": [
        {
          "indexed": false,
          "internalType": "address",
          "name": "account",
          "type": "address"
        }
      ],
      "name": "Paused",
      "type": "event"
    },
    {
      "anonymous": false,
      "inputs": [
        {
          "indexed": true,
          "internalType": "uint256",
          "name": "tokenId",
          "type": "uint256"
        },
        {
          "indexed": true,
          "internalType": "address",
          "name": "account",
          "type": "address"
        },
        {
          "indexed": false,
          "internalType": "uint256",
          "name": "amount",
          "type": "uint256"
        }
      ],
      "name": "RevenueClaimed",
      "type": "event"
    },
    {
      "anonymous": false,
      "inputs": [
        {
          "indexed": true,
          "internalType": "uint256",
          "name": "tokenId",
          "type": "uint256"
        },
        {
          "indexed": false,
          "internalType": "uint256",
          "name": "amount",
          "type": "uint256"
        },
        {
          "indexed": false,
          "internalType": "uint256",
          "name": "newCumulativePerToken",
          "type": "uint256"
        }
      ],
      "name": "RevenueDeposited",
      "type": "event"
    },
    {
      "anonymous": false,
      "inputs": [
        {
          "indexed": true,
          "internalType": "bytes32",
          "name": "role",
          "type": "bytes32"
        },
        {
          "indexed": true,
          "internalType": "bytes32",
          "name": "previousAdminRole",
          "type": "bytes32"
        },
        {
          "indexed": true,
          "internalType": "bytes32",
          "name": "newAdminRole",
          "type": "bytes32"
        }
      ],
      "name": "RoleAdminChanged",
      "type": "event"
    },
    {
      "anonymous": false,
      "inputs": [
        {
          "indexed": true,
          "internalType": "bytes32",
          "name": "role",
          "type": "bytes32"
        },
        {
          "indexed": true,
          "internalType": "address",
          "name": "account",
          "type": "address"
        },
        {
          "indexed": true,
          "internalType": "address",
          "name": "sender",
          "type": "address"
        }
      ],
      "name": "RoleGranted",
      "type": "event"
    },
    {
      "anonymous": false,
      "inputs": [
        {
          "indexed": true,
          "internalType": "bytes32",
          "name": "role",
          "type": "bytes32"
        },
        {
          "indexed": true,
          "internalType": "address",
          "name": "account",
          "type": "address"
        },
        {
          "indexed": true,
          "internalType": "address",
          "name": "sender",
          "type": "address"
        }
      ],
      "name": "RoleRevoked",
      "type": "event"
    },
    {
      "anonymous": false,
      "inputs": [
        {
          "indexed": true,
          "internalType": "uint256",
          "name": "tokenId",
          "type": "uint256"
        },
        {
          "indexed": false,
          "internalType": "string",
          "name": "label",
          "type": "string"
        },
        {
          "indexed": false,
          "internalType": "uint256",
          "name": "unitPrice",
          "type": "uint256"
        },
        {
          "indexed": false,
          "internalType": "uint256",
          "name": "maxSupply",
          "type": "uint256"
        }
      ],
      "name": "SeriesCreated",
      "type": "event"
    },
    {
      "anonymous": false,
      "inputs": [
        {
          "indexed": true,
          "internalType": "uint256",
          "name": "tokenId",
          "type": "uint256"
        },
        {
          "indexed": false,
          "internalType": "bool",
          "name": "active",
          "type": "bool"
        }
      ],
      "name": "SeriesStatusChanged",
      "type": "event"
    },
    {
      "anonymous": false,
      "inputs": [
        {
          "indexed": true,
          "internalType": "address",
          "name": "operator",
          "type": "address"
        },
        {
          "indexed": true,
          "internalType": "address",
          "name": "from",
          "type": "address"
        },
        {
          "indexed": true,
          "internalType": "address",
          "name": "to",
          "type": "address"
        },
        {
          "indexed": false,
          "internalType": "uint256[]",
          "name": "ids",
          "type": "uint256[]"
        },
        {
          "indexed": false,
          "internalType": "uint256[]",
          "name": "values",
          "type": "uint256[]"
        }
      ],
      "name": "TransferBatch",
      "type": "event"
    },
    {
      "anonymous": false,
      "inputs": [
        {
          "indexed": true,
          "internalType": "address",
          "name": "operator",
          "type": "address"
        },
        {
          "indexed": true,
          "internalType": "address",
          "name": "from",
          "type": "address"
        },
        {
          "indexed": true,
          "internalType": "address",
          "name": "to",
          "type": "address"
        },
        {
          "indexed": false,
          "internalType": "uint256",
          "name": "id",
          "type": "uint256"
        },
        {
          "indexed": false,
          "internalType": "uint256",
          "name": "value",
          "type": "uint256"
        }
      ],
      "name": "TransferSingle",
      "type": "event"
    },
    {
      "anonymous": false,
      "inputs": [
        {
          "indexed": false,
          "internalType": "string",
          "name": "value",
          "type": "string"
        },
        {
          "indexed": true,
          "internalType": "uint256",
          "name": "id",
          "type": "uint256"
        }
      ],
      "name": "URI",
      "type": "event"
    },
    {
      "anonymous": false,
      "inputs": [
        {
          "indexed": false,
          "internalType": "address",
          "name": "account",
          "type": "address"
        }
      ],
      "name": "Unpaused",
      "type": "event"
    },
    {
      "anonymous": false,
      "inputs": [
        {
          "indexed": false,
          "internalType": "bool",
          "name": "enforced",
          "type": "bool"
        }
      ],
      "name": "WhitelistEnforcedUpdated",
      "type": "event"
    },
    {
      "anonymous": false,
      "inputs": [
        {
          "indexed": true,
          "internalType": "address",
          "name": "account",
          "type": "address"
        },
        {
          "indexed": false,
          "internalType": "bool",
          "name": "allowed",
          "type": "bool"
        }
      ],
      "name": "WhitelistUpdated",
      "type": "event"
    },
    {
      "inputs": [],
      "name": "DEFAULT_ADMIN_ROLE",
      "outputs": [
        {
          "internalType": "bytes32",
          "name": "",
          "type": "bytes32"
        }
      ],
      "stateMutability": "view",
      "type": "function"
    },
    {
      "inputs": [],
      "name": "ISSUER_ROLE",
      "outputs": [
        {
          "internalType": "bytes32",
          "name": "",
          "type": "bytes32"
        }
      ],
      "stateMutability": "view",
      "type": "function"
    },
    {
      "inputs": [],
      "name": "OPERATOR_ROLE",
      "outputs": [
        {
          "internalType": "bytes32",
          "name": "",
          "type": "bytes32"
        }
      ],
      "stateMutability": "view",
      "type": "function"
    },
    {
      "inputs": [],
      "name": "assetLabel",
      "outputs": [
        {
          "internalType": "string",
          "name": "",
          "type": "string"
        }
      ],
      "stateMutability": "view",
      "type": "function"
    },
    {
      "inputs": [],
      "name": "assetName",
      "outputs": [
        {
          "internalType": "string",
          "name": "",
          "type": "string"
        }
      ],
      "stateMutability": "view",
      "type": "function"
    },
    {
      "inputs": [],
      "name": "assetSymbol",
      "outputs": [
        {
          "internalType": "string",
          "name": "",
          "type": "string"
        }
      ],
      "stateMutability": "view",
      "type": "function"
    },
    {
      "inputs": [
        {
          "internalType": "address",
          "name": "account",
          "type": "address"
        },
        {
          "internalType": "uint256",
          "name": "id",
          "type": "uint256"
        }
      ],
      "name": "balanceOf",
      "outputs": [
        {
          "internalType": "uint256",
          "name": "",
          "type": "uint256"
        }
      ],
      "stateMutability": "view",
      "type": "function"
    },
    {
      "inputs": [
        {
          "internalType": "address[]",
          "name": "accounts",
          "type": "address[]"
        },
        {
          "internalType": "uint256[]",
          "name": "ids",
          "type": "uint256[]"
        }
      ],
      "name": "balanceOfBatch",
      "outputs": [
        {
          "internalType": "uint256[]",
          "name": "",
          "type": "uint256[]"
        }
      ],
      "stateMutability": "view",
      "type": "function"
    },
    {
      "inputs": [],
      "name": "baseURI",
      "outputs": [
        {
          "internalType": "string",
          "name": "",
          "type": "string"
        }
      ],
      "stateMutability": "view",
      "type": "function"
    },
    {
      "inputs": [
        {
          "internalType": "address",
          "name": "",
          "type": "address"
        }
      ],
      "name": "blacklisted",
      "outputs": [
        {
          "internalType": "bool",
          "name": "",
          "type": "bool"
        }
      ],
      "stateMutability": "view",
      "type": "function"
    },
    {
      "inputs": [
        {
          "internalType": "uint256",
          "name": "tokenId",
          "type": "uint256"
        }
      ],
      "name": "claim",
      "outputs": [],
      "stateMutability": "nonpayable",
      "type": "function"
    },
    {
      "inputs": [
        {
          "internalType": "uint256",
          "name": "tokenId",
          "type": "uint256"
        },
        {
          "internalType": "address",
          "name": "account",
          "type": "address"
        }
      ],
      "name": "claimable",
      "outputs": [
        {
          "internalType": "uint256",
          "name": "",
          "type": "uint256"
        }
      ],
      "stateMutability": "view",
      "type": "function"
    },
    {
      "inputs": [
        {
          "internalType": "string",
          "name": "label",
          "type": "string"
        },
        {
          "internalType": "uint256",
          "name": "unitPrice",
          "type": "uint256"
        },
        {
          "internalType": "uint256",
          "name": "maxSupply",
          "type": "uint256"
        }
      ],
      "name": "createSeries",
      "outputs": [
        {
          "internalType": "uint256",
          "name": "tokenId",
          "type": "uint256"
        }
      ],
      "stateMutability": "nonpayable",
      "type": "function"
    },
    {
      "inputs": [
        {
          "internalType": "uint256",
          "name": "",
          "type": "uint256"
        }
      ],
      "name": "cumulativeRevenuePerToken",
      "outputs": [
        {
          "internalType": "uint256",
          "name": "",
          "type": "uint256"
        }
      ],
      "stateMutability": "view",
      "type": "function"
    },
    {
      "inputs": [
        {
          "internalType": "uint256",
          "name": "tokenId",
          "type": "uint256"
        },
        {
          "internalType": "uint256",
          "name": "amount",
          "type": "uint256"
        }
      ],
      "name": "depositRevenue",
      "outputs": [],
      "stateMutability": "nonpayable",
      "type": "function"
    },
    {
      "inputs": [
        {
          "internalType": "uint256",
          "name": "id",
          "type": "uint256"
        }
      ],
      "name": "exists",
      "outputs": [
        {
          "internalType": "bool",
          "name": "",
          "type": "bool"
        }
      ],
      "stateMutability": "view",
      "type": "function"
    },
    {
      "inputs": [
        {
          "internalType": "address",
          "name": "",
          "type": "address"
        }
      ],
      "name": "frozen",
      "outputs": [
        {
          "internalType": "bool",
          "name": "",
          "type": "bool"
        }
      ],
      "stateMutability": "view",
      "type": "function"
    },
    {
      "inputs": [
        {
          "internalType": "bytes32",
          "name": "role",
          "type": "bytes32"
        }
      ],
      "name": "getRoleAdmin",
      "outputs": [
        {
          "internalType": "bytes32",
          "name": "",
          "type": "bytes32"
        }
      ],
      "stateMutability": "view",
      "type": "function"
    },
    {
      "inputs": [
        {
          "internalType": "bytes32",
          "name": "role",
          "type": "bytes32"
        },
        {
          "internalType": "address",
          "name": "account",
          "type": "address"
        }
      ],
      "name": "grantRole",
      "outputs": [],
      "stateMutability": "nonpayable",
      "type": "function"
    },
    {
      "inputs": [
        {
          "internalType": "bytes32",
          "name": "role",
          "type": "bytes32"
        },
        {
          "internalType": "address",
          "name": "account",
          "type": "address"
        }
      ],
      "name": "hasRole",
      "outputs": [
        {
          "internalType": "bool",
          "name": "",
          "type": "bool"
        }
      ],
      "stateMutability": "view",
      "type": "function"
    },
    {
      "inputs": [
        {
          "internalType": "string",
          "name": "_assetName",
          "type": "string"
        },
        {
          "internalType": "string",
          "name": "_assetSymbol",
          "type": "string"
        },
        {
          "internalType": "string",
          "name": "_assetLabel",
          "type": "string"
        },
        {
          "internalType": "address",
          "name": "_settlementToken",
          "type": "address"
        },
        {
          "internalType": "address",
          "name": "admin",
          "type": "address"
        }
      ],
      "name": "initialize",
      "outputs": [],
      "stateMutability": "nonpayable",
      "type": "function"
    },
    {
      "inputs": [],
      "name": "interestVault",
      "outputs": [
        {
          "internalType": "address",
          "name": "",
          "type": "address"
        }
      ],
      "stateMutability": "view",
      "type": "function"
    },
    {
      "inputs": [
        {
          "internalType": "address",
          "name": "account",
          "type": "address"
        },
        {
          "internalType": "address",
          "name": "operator",
          "type": "address"
        }
      ],
      "name": "isApprovedForAll",
      "outputs": [
        {
          "internalType": "bool",
          "name": "",
          "type": "bool"
        }
      ],
      "stateMutability": "view",
      "type": "function"
    },
    {
      "inputs": [
        {
          "internalType": "uint256",
          "name": "tokenId",
          "type": "uint256"
        },
        {
          "internalType": "address",
          "name": "to",
          "type": "address"
        },
        {
          "internalType": "uint256",
          "name": "amount",
          "type": "uint256"
        }
      ],
      "name": "issue",
      "outputs": [],
      "stateMutability": "nonpayable",
      "type": "function"
    },
    {
      "inputs": [],
      "name": "nextSeriesId",
      "outputs": [
        {
          "internalType": "uint256",
          "name": "",
          "type": "uint256"
        }
      ],
      "stateMutability": "view",
      "type": "function"
    },
    {
      "inputs": [],
      "name": "pause",
      "outputs": [],
      "stateMutability": "nonpayable",
      "type": "function"
    },
    {
      "inputs": [],
      "name": "paused",
      "outputs": [
        {
          "internalType": "bool",
          "name": "",
          "type": "bool"
        }
      ],
      "stateMutability": "view",
      "type": "function"
    },
    {
      "inputs": [
        {
          "internalType": "uint256",
          "name": "",
          "type": "uint256"
        },
        {
          "internalType": "address",
          "name": "",
          "type": "address"
        }
      ],
      "name": "pendingRevenue",
      "outputs": [
        {
          "internalType": "uint256",
          "name": "",
          "type": "uint256"
        }
      ],
      "stateMutability": "view",
      "type": "function"
    },
    {
      "inputs": [
        {
          "internalType": "bytes32",
          "name": "role",
          "type": "bytes32"
        },
        {
          "internalType": "address",
          "name": "callerConfirmation",
          "type": "address"
        }
      ],
      "name": "renounceRole",
      "outputs": [],
      "stateMutability": "nonpayable",
      "type": "function"
    },
    {
      "inputs": [
        {
          "internalType": "bytes32",
          "name": "role",
          "type": "bytes32"
        },
        {
          "internalType": "address",
          "name": "account",
          "type": "address"
        }
      ],
      "name": "revokeRole",
      "outputs": [],
      "stateMutability": "nonpayable",
      "type": "function"
    },
    {
      "inputs": [
        {
          "internalType": "address",
          "name": "from",
          "type": "address"
        },
        {
          "internalType": "address",
          "name": "to",
          "type": "address"
        },
        {
          "internalType": "uint256[]",
          "name": "ids",
          "type": "uint256[]"
        },
        {
          "internalType": "uint256[]",
          "name": "values",
          "type": "uint256[]"
        },
        {
          "internalType": "bytes",
          "name": "data",
          "type": "bytes"
        }
      ],
      "name": "safeBatchTransferFrom",
      "outputs": [],
      "stateMutability": "nonpayable",
      "type": "function"
    },
    {
      "inputs": [
        {
          "internalType": "address",
          "name": "from",
          "type": "address"
        },
        {
          "internalType": "address",
          "name": "to",
          "type": "address"
        },
        {
          "internalType": "uint256",
          "name": "id",
          "type": "uint256"
        },
        {
          "internalType": "uint256",
          "name": "value",
          "type": "uint256"
        },
        {
          "internalType": "bytes",
          "name": "data",
          "type": "bytes"
        }
      ],
      "name": "safeTransferFrom",
      "outputs": [],
      "stateMutability": "nonpayable",
      "type": "function"
    },
    {
      "inputs": [
        {
          "internalType": "uint256",
          "name": "",
          "type": "uint256"
        }
      ],
      "name": "series",
      "outputs": [
        {
          "internalType": "string",
          "name": "label",
          "type": "string"
        },
        {
          "internalType": "uint256",
          "name": "unitPrice",
          "type": "uint256"
        },
        {
          "internalType": "uint256",
          "name": "maxSupply",
          "type": "uint256"
        },
        {
          "internalType": "bool",
          "name": "active",
          "type": "bool"
        }
      ],
      "stateMutability": "view",
      "type": "function"
    },
    {
      "inputs": [
        {
          "internalType": "address",
          "name": "operator",
          "type": "address"
        },
        {
          "internalType": "bool",
          "name": "approved",
          "type": "bool"
        }
      ],
      "name": "setApprovalForAll",
      "outputs": [],
      "stateMutability": "nonpayable",
      "type": "function"
    },
    {
      "inputs": [
        {
          "internalType": "string",
          "name": "uri_",
          "type": "string"
        }
      ],
      "name": "setBaseURI",
      "outputs": [],
      "stateMutability": "nonpayable",
      "type": "function"
    },
    {
      "inputs": [
        {
          "internalType": "address",
          "name": "account",
          "type": "address"
        },
        {
          "internalType": "bool",
          "name": "_blacklisted",
          "type": "bool"
        }
      ],
      "name": "setBlacklisted",
      "outputs": [],
      "stateMutability": "nonpayable",
      "type": "function"
    },
    {
      "inputs": [
        {
          "internalType": "address",
          "name": "account",
          "type": "address"
        },
        {
          "internalType": "bool",
          "name": "_frozen",
          "type": "bool"
        }
      ],
      "name": "setFrozen",
      "outputs": [],
      "stateMutability": "nonpayable",
      "type": "function"
    },
    {
      "inputs": [
        {
          "internalType": "address",
          "name": "vault",
          "type": "address"
        }
      ],
      "name": "setInterestVault",
      "outputs": [],
      "stateMutability": "nonpayable",
      "type": "function"
    },
    {
      "inputs": [
        {
          "internalType": "uint256",
          "name": "tokenId",
          "type": "uint256"
        },
        {
          "internalType": "bool",
          "name": "active",
          "type": "bool"
        }
      ],
      "name": "setSeriesActive",
      "outputs": [],
      "stateMutability": "nonpayable",
      "type": "function"
    },
    {
      "inputs": [
        {
          "internalType": "address",
          "name": "account",
          "type": "address"
        },
        {
          "internalType": "bool",
          "name": "allowed",
          "type": "bool"
        }
      ],
      "name": "setWhitelist",
      "outputs": [],
      "stateMutability": "nonpayable",
      "type": "function"
    },
    {
      "inputs": [
        {
          "internalType": "bool",
          "name": "enforced",
          "type": "bool"
        }
      ],
      "name": "setWhitelistEnforced",
      "outputs": [],
      "stateMutability": "nonpayable",
      "type": "function"
    },
    {
      "inputs": [],
      "name": "settlementToken",
      "outputs": [
        {
          "internalType": "contract IERC20",
          "name": "",
          "type": "address"
        }
      ],
      "stateMutability": "view",
      "type": "function"
    },
    {
      "inputs": [
        {
          "internalType": "bytes4",
          "name": "interfaceId",
          "type": "bytes4"
        }
      ],
      "name": "supportsInterface",
      "outputs": [
        {
          "internalType": "bool",
          "name": "",
          "type": "bool"
        }
      ],
      "stateMutability": "view",
      "type": "function"
    },
    {
      "inputs": [],
      "name": "totalSupply",
      "outputs": [
        {
          "internalType": "uint256",
          "name": "",
          "type": "uint256"
        }
      ],
      "stateMutability": "view",
      "type": "function"
    },
    {
      "inputs": [
        {
          "internalType": "uint256",
          "name": "id",
          "type": "uint256"
        }
      ],
      "name": "totalSupply",
      "outputs": [
        {
          "internalType": "uint256",
          "name": "",
          "type": "uint256"
        }
      ],
      "stateMutability": "view",
      "type": "function"
    },
    {
      "inputs": [],
      "name": "unpause",
      "outputs": [],
      "stateMutability": "nonpayable",
      "type": "function"
    },
    {
      "inputs": [
        {
          "internalType": "uint256",
          "name": "tokenId",
          "type": "uint256"
        }
      ],
      "name": "uri",
      "outputs": [
        {
          "internalType": "string",
          "name": "",
          "type": "string"
        }
      ],
      "stateMutability": "view",
      "type": "function"
    },
    {
      "inputs": [
        {
          "internalType": "uint256",
          "name": "",
          "type": "uint256"
        },
        {
          "internalType": "address",
          "name": "",
          "type": "address"
        }
      ],
      "name": "userRevenueCredited",
      "outputs": [
        {
          "internalType": "uint256",
          "name": "",
          "type": "uint256"
        }
      ],
      "stateMutability": "view",
      "type": "function"
    },
    {
      "inputs": [],
      "name": "whitelistEnforced",
      "outputs": [
        {
          "internalType": "bool",
          "name": "",
          "type": "bool"
        }
      ],
      "stateMutability": "view",
      "type": "function"
    },
    {
      "inputs": [
        {
          "internalType": "address",
          "name": "",
          "type": "address"
        }
      ],
      "name": "whitelisted",
      "outputs": [
        {
          "internalType": "bool",
          "name": "",
          "type": "bool"
        }
      ],
      "stateMutability": "view",
      "type": "function"
    }
  ],
  "bytecode": "0x60806040523480156200001157600080fd5b506040805160208101909152600081526200002c8162000038565b506001600755620001bd565b6002620000468282620000f1565b5050565b634e487b7160e01b600052604160045260246000fd5b600181811c908216806200007557607f821691505b6020821081036200009657634e487b7160e01b600052602260045260246000fd5b50919050565b601f821115620000ec576000816000526020600020601f850160051c81016020861015620000c75750805b601f850160051c820191505b81811015620000e857828155600101620000d3565b5050505b505050565b81516001600160401b038111156200010d576200010d6200004a565b62000125816200011e845462000060565b846200009c565b602080601f8311600181146200015d5760008415620001445750858301515b600019600386901b1c1916600185901b178555620000e8565b600085815260208120601f198616915b828110156200018e578886015182559484019460019091019084016200016d565b5085821015620001ad5787850151600019600388901b60f8161c191681555b5050505050600190811b01905550565b6134f180620001cd6000396000f3fe608060405234801561001057600080fd5b50600436106102d55760003560e01c80638baeb23d11610182578063c9230c5d116100e9578063d936547e116100a2578063e985e9c51161007c578063e985e9c5146106d6578063f242432a146106e9578063f38dab60146106fc578063f5b541a61461070f57600080fd5b8063d936547e1461066d578063dbac26e914610690578063dc22cb6a146106b357600080fd5b8063c9230c5d146105f6578063cc3c70eb146105fe578063d01dd6d214610611578063d051665014610624578063d547741f14610647578063d6d0faee1461065a57600080fd5b8063a22cb4651161013b578063a22cb46514610547578063ac869cd81461055a578063bb0bc5141461056d578063bb70516014610598578063bd85b039146105ab578063c4f0da7b146105cb57600080fd5b80638baeb23d146104d357806391d14854146104e6578063945a3bad146104f95780639b7f801914610519578063a0c7f71c1461052c578063a217fddf1461053f57600080fd5b80633ffa884c116102415780635c975abb116101fa5780637b9e618d116101d45780637b9e618d1461047e57806382aefa24146104a95780638456cb59146104be57806389f91ece146104c657600080fd5b80635c975abb146104625780636c0360eb1461046d5780636ed3e3e31461047557600080fd5b80633ffa884c146103df5780634e1273f4146103f25780634f558e791461041257806353d6fd591461043457806355f804b3146104475780635b2e374f1461045a57600080fd5b8063248a9ca311610293578063248a9ca3146103685780632eb2c2d61461038b5780632f2ff15d1461039e57806336568abe146103b1578063379607f5146103c45780633f4ba83a146103d757600080fd5b8062fdd58e146102da57806301ffc9a7146103005780630cae7afc146103235780630e89341c14610338578063176de7a81461035857806318160ddd14610360575b600080fd5b6102ed6102e836600461280b565b610724565b6040519081526020015b60405180910390f35b61031361030e36600461284b565b61074c565b60405190151581526020016102f7565b61033661033136600461286f565b610757565b005b61034b610346366004612891565b610992565b6040516102f791906128fa565b61034b6109f0565b6004546102ed565b6102ed610376366004612891565b60009081526005602052604090206001015490565b610336610399366004612a54565b610a7e565b6103366103ac366004612afd565b610ae5565b6103366103bf366004612afd565b610b10565b6103366103d2366004612891565b610b48565b610336610d03565b6103366103ed366004612b29565b610d23565b610405610400366004612b5e565b610f63565b6040516102f79190612c59565b610313610420366004612891565b600090815260036020526040902054151590565b610336610442366004612c7a565b61102f565b610336610455366004612cf9565b6110a8565b61034b61110c565b60065460ff16610313565b61034b611119565b6102ed60125481565b600b54610491906001600160a01b031681565b6040516001600160a01b0390911681526020016102f7565b6102ed60008051602061347c83398151915281565b610336611126565b6011546103139060ff1681565b6103366104e1366004612d3a565b611146565b6103136104f4366004612afd565b6111eb565b6102ed610507366004612891565b60146020526000908152604090205481565b600c54610491906001600160a01b031681565b6102ed61053a366004612afd565b611216565b6102ed600081565b610336610555366004612c7a565b6112c9565b610336610568366004612c7a565b6112d8565b6102ed61057b366004612afd565b601660209081526000928352604080842090915290825290205481565b6103366105a6366004612d5f565b611348565b6102ed6105b9366004612891565b60009081526003602052604090205490565b6102ed6105d9366004612afd565b601560209081526000928352604080842090915290825290205481565b61034b6113ab565b61033661060c366004612d7a565b6113b8565b61033661061f366004612c7a565b611418565b610313610632366004612d5f565b600f6020526000908152604090205460ff1681565b610336610655366004612afd565b611488565b610336610668366004612d97565b6114ad565b61031361067b366004612d5f565b600e6020526000908152604090205460ff1681565b61031361069e366004612d5f565b60106020526000908152604090205460ff1681565b6106c66106c1366004612891565b6115f8565b6040516102f79493929190612e51565b6103136106e4366004612e82565b6116ad565b6103366106f7366004612eac565b6116db565b6102ed61070a366004612f10565b61173a565b6102ed60008051602061349c83398151915281565b6000818152602081815260408083206001600160a01b03861684529091529020545b92915050565b60006107468261188e565b60008051602061349c83398151915261076f816118b3565b600082116107af5760405162461bcd60e51b81526020600482015260086024820152670616d6f756e743d360c41b60448201526064015b60405180910390fd5b600083815260036020526040812054116107f75760405162461bcd60e51b81526020600482015260096024820152686e6f20737570706c7960b81b60448201526064016107a6565b6000838152601360205260409020805461081090612f60565b90506000036108315760405162461bcd60e51b81526004016107a690612f9a565b600b546040516323b872dd60e01b8152336004820152306024820152604481018490526001600160a01b03909116906323b872dd906064016020604051808303816000875af1158015610888573d6000803e3d6000fd5b505050506040513d601f19601f820116820180604052508101906108ac9190612fc4565b6108ee5760405162461bcd60e51b81526020600482015260136024820152721d1c985b9cd9995c919c9bdb4819985a5b1959606a1b60448201526064016107a6565b60008381526003602052604081205461090f84670de0b6b3a7640000612ff7565b610919919061300e565b90508060146000868152602001908152602001600020600082825461093e9190613030565b90915550506000848152601460209081526040918290205482518681529182015285917f271447a7fc6bd5726818ce06a9d9ffdecd61963481f678d3903cc5bacc523c86910160405180910390a250505050565b6060600d80546109a190612f60565b90506000036109be57505060408051602081019091526000815290565b600d6109c9836118bd565b6040516020016109da929190613043565b6040516020818303038152906040529050919050565b600980546109fd90612f60565b80601f0160208091040260200160405190810160405280929190818152602001828054610a2990612f60565b8015610a765780601f10610a4b57610100808354040283529160200191610a76565b820191906000526020600020905b815481529060010190602001808311610a5957829003601f168201915b505050505081565b336001600160a01b0386168114801590610a9f5750610a9d86826116ad565b155b15610ad05760405163711bec9160e11b81526001600160a01b038083166004830152871660248201526044016107a6565b610add868686868661194f565b505050505050565b600082815260056020526040902060010154610b00816118b3565b610b0a83836119b6565b50505050565b6001600160a01b0381163314610b395760405163334bd91960e11b815260040160405180910390fd5b610b438282611a4a565b505050565b610b50611ab7565b610b58611ae1565b610b6133611b07565b610b7d5760405162461bcd60e51b81526004016107a6906130ca565b6000610b898233611216565b905060008111610bce5760405162461bcd60e51b815260206004820152601060248201526f6e6f7468696e6720746f20636c61696d60801b60448201526064016107a6565b6000828152601660209081526040808320338085529083528184208490558584526014835281842054601584528285208286529093529281902091909155600b54905163a9059cbb60e01b81526004810192909252602482018390526001600160a01b03169063a9059cbb906044016020604051808303816000875af1158015610c5c573d6000803e3d6000fd5b505050506040513d601f19601f82011682018060405250810190610c809190612fc4565b610cbe5760405162461bcd60e51b815260206004820152600f60248201526e1d1c985b9cd9995c8819985a5b1959608a1b60448201526064016107a6565b604051818152339083907fb9e8470097faa00e83252475f2ee4b69007b0bb2405268ebec248676998a21b39060200160405180910390a350610d006001600755565b50565b60008051602061349c833981519152610d1b816118b3565b610d00611b99565b60008051602061347c833981519152610d3b816118b3565b600084815260136020526040808220815160808101909252805482908290610d6290612f60565b80601f0160208091040260200160405190810160405280929190818152602001828054610d8e90612f60565b8015610ddb5780601f10610db057610100808354040283529160200191610ddb565b820191906000526020600020905b815481529060010190602001808311610dbe57829003601f168201915b5050509183525050600182015460208201526002820154604082015260039091015460ff161515606090910152805151909150600003610e2d5760405162461bcd60e51b81526004016107a690612f9a565b8060600151610e705760405162461bcd60e51b815260206004820152600f60248201526e73657269657320696e61637469766560881b60448201526064016107a6565b806040015183610e8c8760009081526003602052604090205490565b610e969190613030565b1115610ed85760405162461bcd60e51b815260206004820152601160248201527065786365656473206d6178537570706c7960781b60448201526064016107a6565b610ee184611beb565b610efd5760405162461bcd60e51b81526004016107a6906130f6565b610f1884868560405180602001604052806000815250611bf6565b836001600160a01b0316857f317f5fcebc6292737b7bf155c74847bfde3facfb62681e7b754c7eedb9eef87585604051610f5491815260200190565b60405180910390a35050505050565b60608151835114610f945781518351604051635b05999160e01b8152600481019290925260248201526044016107a6565b600083516001600160401b03811115610faf57610faf61290d565b604051908082528060200260200182016040528015610fd8578160200160208202803683370190505b50905060005b84518110156110275760208082028601015161100290602080840287010151610724565b82828151811061101457611014613124565b6020908102919091010152600101610fde565b509392505050565b60008051602061349c833981519152611047816118b3565b6001600160a01b0383166000818152600e6020908152604091829020805460ff191686151590811790915591519182527ff93f9a76c1bf3444d22400a00cb9fe990e6abe9dbb333fda48859cfee864543d91015b60405180910390a2505050565b60008051602061349c8339815191526110c0816118b3565b600d6110cd838583613182565b507f6741b2fc379fad678116fe3d4d4b9a1a184ab53ba36b86ad0fa66340b1ab41ad83836040516110ff92919061326a565b60405180910390a1505050565b600a80546109fd90612f60565b600d80546109fd90612f60565b60008051602061349c83398151915261113e816118b3565b610d00611c53565b60008051602061349c83398151915261115e816118b3565b6000838152601360205260409020805461117790612f60565b90506000036111985760405162461bcd60e51b81526004016107a690612f9a565b600083815260136020908152604091829020600301805460ff1916851515908117909155915191825284917fc28b90a416ff3b17c6686905293ae1f597be96b9ad4488f3dcc48a7fe4043a73910161109b565b60009182526005602090815260408084206001600160a01b0393909316845291905290205460ff1690565b6000806112238385610724565b600085815260146020908152604080832054601583528184206001600160a01b03891685529092528220549293509190831580159061126157508183115b1561129057670de0b6b3a76400006112798385613286565b6112839086612ff7565b61128d919061300e565b90505b60008781526016602090815260408083206001600160a01b038a1684529091529020546112be908290613030565b979650505050505050565b6112d4338383611c90565b5050565b60008051602061349c8339815191526112f0816118b3565b6001600160a01b0383166000818152600f6020908152604091829020805460ff191686151590811790915591519182527f3fdf348e931eca704dcfa3857f82af4904ebc7a2898428f61b37252a2cc71d2a910161109b565b60008051602061349c833981519152611360816118b3565b600c80546001600160a01b0319166001600160a01b0384169081179091556040517f986f7e525b542faf0ca6424ec448626390e0acc514dc84a02092e03350b1f71590600090a25050565b600880546109fd90612f60565b60008051602061349c8339815191526113d0816118b3565b6011805460ff19168315159081179091556040519081527f1f026740d80a2b54c63e4813d9bf2b54f843677e10d64d1c3d1905ecd3534cc29060200160405180910390a15050565b60008051602061349c833981519152611430816118b3565b6001600160a01b038316600081815260106020908152604091829020805460ff191686151590811790915591519182527f6a12b3df6cba4203bd7fd06b816789f87de8c594299aed5717ae070fac781bac910161109b565b6000828152600560205260409020600101546114a3816118b3565b610b0a8383611a4a565b60175460ff16156114f65760405162461bcd60e51b8152602060048201526013602482015272185b1c9958591e481a5b9a5d1a585b1a5e9959606a1b60448201526064016107a6565b6017805460ff191660011790556008611510888a83613182565b50600961151e868883613182565b50600a61152c848683613182565b50600b80546001600160a01b0319166001600160a01b0384161790556115536000826119b6565b5061156c60008051602061349c833981519152826119b6565b5061158560008051602061347c833981519152826119b6565b506001600160a01b0381166000908152600e602090815260408083208054600160ff199182168117909255601291909155601180549091169055519182527f1f026740d80a2b54c63e4813d9bf2b54f843677e10d64d1c3d1905ecd3534cc2910160405180910390a15050505050505050565b60136020526000908152604090208054819061161390612f60565b80601f016020809104026020016040519081016040528092919081815260200182805461163f90612f60565b801561168c5780601f106116615761010080835404028352916020019161168c565b820191906000526020600020905b81548152906001019060200180831161166f57829003601f168201915b50505050600183015460028401546003909401549293909290915060ff1684565b6001600160a01b03918216600090815260016020908152604080832093909416825291909152205460ff1690565b336001600160a01b03861681148015906116fc57506116fa86826116ad565b155b1561172d5760405163711bec9160e11b81526001600160a01b038083166004830152871660248201526044016107a6565b610add8686868686611d26565b600060008051602061347c833981519152611754816118b3565b600083116117925760405162461bcd60e51b815260206004820152600b60248201526a06d6178537570706c793d360ac1b60448201526064016107a6565b601280549060006117a283613299565b909155506040805160a06020601f8a018190040282018101909252608081018881529294509182918990899081908501838280828437600092018290525093855250505060208083018890526040808401889052600160609094019390935285825260139052208151819061181790826132b2565b506020820151600182015560408083015160028301556060909201516003909101805460ff19169115159190911790555182907fb0086ef6a899a5b335d43711ce99cd3531b617f30db912afe75841b84627a1929061187d908990899089908990613371565b60405180910390a250949350505050565b60006001600160e01b03198216637965db0b60e01b1480610746575061074682611db4565b610d008133611e04565b606060006118ca83611e3d565b60010190506000816001600160401b038111156118e9576118e961290d565b6040519080825280601f01601f191660200182016040528015611913576020820181803683370190505b5090508181016020015b600019016f181899199a1a9b1b9c1cb0b131b232b360811b600a86061a8153600a850494508461191d57509392505050565b6001600160a01b03841661197957604051632bfa23e760e11b8152600060048201526024016107a6565b6001600160a01b0385166119a257604051626a0d4560e21b8152600060048201526024016107a6565b6119af8585858585611f15565b5050505050565b60006119c283836111eb565b611a425760008381526005602090815260408083206001600160a01b03861684529091529020805460ff191660011790556119fa3390565b6001600160a01b0316826001600160a01b0316847f2f8788117e7eff1d82e926ec794901d17c78024a50270940304540a733656f0d60405160405180910390a4506001610746565b506000610746565b6000611a5683836111eb565b15611a425760008381526005602090815260408083206001600160a01b0386168085529252808320805460ff1916905551339286917ff6391f5c32d9c69d2a47ea670b442974b53935d1edc7fd64eb21e047a839171b9190a4506001610746565b600260075403611ada57604051633ee5aeb560e01b815260040160405180910390fd5b6002600755565b60065460ff1615611b055760405163d93c066560e01b815260040160405180910390fd5b565b6001600160a01b03811660009081526010602052604081205460ff1615611b3057506000919050565b6001600160a01b0382166000908152600f602052604090205460ff1615611b5957506000919050565b60115460ff168015611b8457506001600160a01b0382166000908152600e602052604090205460ff16155b15611b9157506000919050565b506001919050565b611ba1611f68565b6006805460ff191690557f5db9ee0a495bf2e6ff9c91a7834c1ba4fdd244a5e8aa4e537bd38aeae4b073aa335b6040516001600160a01b03909116815260200160405180910390a1565b600061074682611b07565b6001600160a01b038416611c2057604051632bfa23e760e11b8152600060048201526024016107a6565b60408051600180825260208201869052818301908152606082018590526080820190925290610add600087848487611f15565b611c5b611ae1565b6006805460ff191660011790557f62e78cea01bee320cd4e420270b5ea74000d11b0c9f74754ebdbfc544b05a258611bce3390565b6001600160a01b038216611cb95760405162ced3e160e81b8152600060048201526024016107a6565b6001600160a01b03838116600081815260016020908152604080832094871680845294825291829020805460ff191686151590811790915591519182527f17307eab39ab6107e8899845ad3d59bd9653f200f220920489ca2b5937696c31910160405180910390a3505050565b6001600160a01b038416611d5057604051632bfa23e760e11b8152600060048201526024016107a6565b6001600160a01b038516611d7957604051626a0d4560e21b8152600060048201526024016107a6565b60408051600180825260208201869052818301908152606082018590526080820190925290611dab8787848487611f15565b50505050505050565b60006001600160e01b03198216636cdb3d1360e11b1480611de557506001600160e01b031982166303a24d0760e21b145b8061074657506301ffc9a760e01b6001600160e01b0319831614610746565b611e0e82826111eb565b6112d45760405163e2517d3f60e01b81526001600160a01b0382166004820152602481018390526044016107a6565b60008072184f03e93ff9f4daa797ed6e38ed64bf6a1f0160401b8310611e7c5772184f03e93ff9f4daa797ed6e38ed64bf6a1f0160401b830492506040015b6d04ee2d6d415b85acef81000000008310611ea8576d04ee2d6d415b85acef8100000000830492506020015b662386f26fc100008310611ec657662386f26fc10000830492506010015b6305f5e1008310611ede576305f5e100830492506008015b6127108310611ef257612710830492506004015b60648310611f04576064830492506002015b600a83106107465760010192915050565b611f2185858585611f8b565b6001600160a01b038416156119af5782513390600103611f5a5760208481015190840151611f538389898585896121f3565b5050610add565b610add818787878787612317565b60065460ff16611b0557604051638dfc202b60e01b815260040160405180910390fd5b611f93611ae1565b60005b8251811015612125576000838281518110611fb357611fb3613124565b6020908102919091010151600c549091506001600160a01b0316156120ea576001600160a01b0386161561205e576000611fed8783610724565b600c5460405163177ae36b60e31b81526001600160a01b038a81166004830152602482018690526044820184905292935091169063bbd71b5890606401600060405180830381600087803b15801561204457600080fd5b505af1158015612058573d6000803e3d6000fd5b50505050505b6001600160a01b038516156120ea5760006120798683610724565b600c5460405163177ae36b60e31b81526001600160a01b038981166004830152602482018690526044820184905292935091169063bbd71b5890606401600060405180830381600087803b1580156120d057600080fd5b505af11580156120e4573d6000803e3d6000fd5b50505050505b6001600160a01b03861615612103576121038187612400565b6001600160a01b0385161561211c5761211c8186612400565b50600101611f96565b506001600160a01b03841661216a5761213d83611beb565b6121595760405162461bcd60e51b81526004016107a6906130f6565b612165848484846124ef565b610b0a565b6001600160a01b03831661219d5761218184611b07565b6121595760405162461bcd60e51b81526004016107a6906130ca565b6121a684611b07565b6121c25760405162461bcd60e51b81526004016107a6906130ca565b6121cb83611beb565b6121e75760405162461bcd60e51b81526004016107a6906130f6565b610b0a848484846124ef565b6001600160a01b0384163b15610add5760405163f23a6e6160e01b81526001600160a01b0385169063f23a6e61906122379089908990889088908890600401613398565b6020604051808303816000875af1925050508015612272575060408051601f3d908101601f1916820190925261226f918101906133d2565b60015b6122db573d8080156122a0576040519150601f19603f3d011682016040523d82523d6000602084013e6122a5565b606091505b5080516000036122d357604051632bfa23e760e11b81526001600160a01b03861660048201526024016107a6565b805160208201fd5b6001600160e01b0319811663f23a6e6160e01b14611dab57604051632bfa23e760e11b81526001600160a01b03861660048201526024016107a6565b6001600160a01b0384163b15610add5760405163bc197c8160e01b81526001600160a01b0385169063bc197c819061235b90899089908890889088906004016133ef565b6020604051808303816000875af1925050508015612396575060408051601f3d908101601f19168201909252612393918101906133d2565b60015b6123c4573d8080156122a0576040519150601f19603f3d011682016040523d82523d6000602084013e6122a5565b6001600160e01b0319811663bc197c8160e01b14611dab57604051632bfa23e760e11b81526001600160a01b03861660048201526024016107a6565b6001600160a01b038116612412575050565b600061241e8284610724565b600084815260146020908152604080832054601583528184206001600160a01b03881685529092529091205491925090821580159061245c57508082115b156124c557600061246d8284613286565b9050670de0b6b3a76400006124828286612ff7565b61248c919061300e565b60008781526016602090815260408083206001600160a01b038a168452909152812080549091906124be908490613030565b9091555050505b5060009384526015602090815260408086206001600160a01b039095168652939052919092205550565b6124fb848484846125db565b6001600160a01b03841661257b576000805b83518110156125615760208181028481018201519086018201516000908152600390925260408220805491928392612546908490613030565b9091555061255690508184613030565b92505060010161250d565b5080600460008282546125749190613030565b9091555050505b6001600160a01b038316610b0a576000805b83518110156125ca57602081810284810182015190860182015160009081526003909252604090912080548290039055919091019060010161258d565b506004805491909103905550505050565b805182511461260a5781518151604051635b05999160e01b8152600481019290925260248201526044016107a6565b3360005b8351811015612710576020818102858101820151908501909101516001600160a01b038816156126c1576000828152602081815260408083206001600160a01b038c1684529091529020548181101561269a576040516303dee4c560e01b81526001600160a01b038a1660048201526024810182905260448101839052606481018490526084016107a6565b6000838152602081815260408083206001600160a01b038d16845290915290209082900390555b6001600160a01b03871615612706576000828152602081815260408083206001600160a01b038b16845290915281208054839290612700908490613030565b90915550505b505060010161260e565b5082516001036127915760208301516000906020840151909150856001600160a01b0316876001600160a01b0316846001600160a01b03167fc3d58168c5ae7397731d063d5bbf3d657854427343f4c083240f7aacaa2d0f628585604051612782929190918252602082015260400190565b60405180910390a450506119af565b836001600160a01b0316856001600160a01b0316826001600160a01b03167f4a39dc06d4c0dbc64b70af90fd698a233a518aa5d07e595d983b8c0526c8f7fb86866040516127e092919061344d565b60405180910390a45050505050565b80356001600160a01b038116811461280657600080fd5b919050565b6000806040838503121561281e57600080fd5b612827836127ef565b946020939093013593505050565b6001600160e01b031981168114610d0057600080fd5b60006020828403121561285d57600080fd5b813561286881612835565b9392505050565b6000806040838503121561288257600080fd5b50508035926020909101359150565b6000602082840312156128a357600080fd5b5035919050565b60005b838110156128c55781810151838201526020016128ad565b50506000910152565b600081518084526128e68160208601602086016128aa565b601f01601f19169290920160200192915050565b60208152600061286860208301846128ce565b634e487b7160e01b600052604160045260246000fd5b604051601f8201601f191681016001600160401b038111828210171561294b5761294b61290d565b604052919050565b60006001600160401b0382111561296c5761296c61290d565b5060051b60200190565b600082601f83011261298757600080fd5b8135602061299c61299783612953565b612923565b8083825260208201915060208460051b8701019350868411156129be57600080fd5b602086015b848110156129da57803583529183019183016129c3565b509695505050505050565b600082601f8301126129f657600080fd5b81356001600160401b03811115612a0f57612a0f61290d565b612a22601f8201601f1916602001612923565b818152846020838601011115612a3757600080fd5b816020850160208301376000918101602001919091529392505050565b600080600080600060a08688031215612a6c57600080fd5b612a75866127ef565b9450612a83602087016127ef565b935060408601356001600160401b0380821115612a9f57600080fd5b612aab89838a01612976565b94506060880135915080821115612ac157600080fd5b612acd89838a01612976565b93506080880135915080821115612ae357600080fd5b50612af0888289016129e5565b9150509295509295909350565b60008060408385031215612b1057600080fd5b82359150612b20602084016127ef565b90509250929050565b600080600060608486031215612b3e57600080fd5b83359250612b4e602085016127ef565b9150604084013590509250925092565b60008060408385031215612b7157600080fd5b82356001600160401b0380821115612b8857600080fd5b818501915085601f830112612b9c57600080fd5b81356020612bac61299783612953565b82815260059290921b84018101918181019089841115612bcb57600080fd5b948201945b83861015612bf057612be1866127ef565b82529482019490820190612bd0565b96505086013592505080821115612c0657600080fd5b50612c1385828601612976565b9150509250929050565b60008151808452602080850194506020840160005b83811015612c4e57815187529582019590820190600101612c32565b509495945050505050565b6020815260006128686020830184612c1d565b8015158114610d0057600080fd5b60008060408385031215612c8d57600080fd5b612c96836127ef565b91506020830135612ca681612c6c565b809150509250929050565b60008083601f840112612cc357600080fd5b5081356001600160401b03811115612cda57600080fd5b602083019150836020828501011115612cf257600080fd5b9250929050565b60008060208385031215612d0c57600080fd5b82356001600160401b03811115612d2257600080fd5b612d2e85828601612cb1565b90969095509350505050565b60008060408385031215612d4d57600080fd5b823591506020830135612ca681612c6c565b600060208284031215612d7157600080fd5b612868826127ef565b600060208284031215612d8c57600080fd5b813561286881612c6c565b60008060008060008060008060a0898b031215612db357600080fd5b88356001600160401b0380821115612dca57600080fd5b612dd68c838d01612cb1565b909a50985060208b0135915080821115612def57600080fd5b612dfb8c838d01612cb1565b909850965060408b0135915080821115612e1457600080fd5b50612e218b828c01612cb1565b9095509350612e34905060608a016127ef565b9150612e4260808a016127ef565b90509295985092959890939650565b608081526000612e6460808301876128ce565b60208301959095525060408101929092521515606090910152919050565b60008060408385031215612e9557600080fd5b612e9e836127ef565b9150612b20602084016127ef565b600080600080600060a08688031215612ec457600080fd5b612ecd866127ef565b9450612edb602087016127ef565b9350604086013592506060860135915060808601356001600160401b03811115612f0457600080fd5b612af0888289016129e5565b60008060008060608587031215612f2657600080fd5b84356001600160401b03811115612f3c57600080fd5b612f4887828801612cb1565b90989097506020870135966040013595509350505050565b600181811c90821680612f7457607f821691505b602082108103612f9457634e487b7160e01b600052602260045260246000fd5b50919050565b60208082526010908201526f1cd95c9a595cc81b9bdd08199bdd5b9960821b604082015260600190565b600060208284031215612fd657600080fd5b815161286881612c6c565b634e487b7160e01b600052601160045260246000fd5b808202811582820484141761074657610746612fe1565b60008261302b57634e487b7160e01b600052601260045260246000fd5b500490565b8082018082111561074657610746612fe1565b600080845461305181612f60565b60018281168015613069576001811461307e576130ad565b60ff19841687528215158302870194506130ad565b8860005260208060002060005b858110156130a45781548a82015290840190820161308b565b50505082870194505b5050505083516130c18183602088016128aa565b01949350505050565b6020808252601290820152711cd95b99195c881b9bdd08185b1b1bddd95960721b604082015260600190565b6020808252601490820152731c9958d95a5d995c881b9bdd08185b1b1bddd95960621b604082015260600190565b634e487b7160e01b600052603260045260246000fd5b601f821115610b43576000816000526020600020601f850160051c810160208610156131635750805b601f850160051c820191505b81811015610add5782815560010161316f565b6001600160401b038311156131995761319961290d565b6131ad836131a78354612f60565b8361313a565b6000601f8411600181146131e157600085156131c95750838201355b600019600387901b1c1916600186901b1783556119af565b600083815260209020601f19861690835b8281101561321257868501358255602094850194600190920191016131f2565b508682101561322f5760001960f88860031b161c19848701351681555b505060018560011b0183555050505050565b81835281816020850137506000828201602090810191909152601f909101601f19169091010190565b60208152600061327e602083018486613241565b949350505050565b8181038181111561074657610746612fe1565b6000600182016132ab576132ab612fe1565b5060010190565b81516001600160401b038111156132cb576132cb61290d565b6132df816132d98454612f60565b8461313a565b602080601f83116001811461331457600084156132fc5750858301515b600019600386901b1c1916600185901b178555610add565b600085815260208120601f198616915b8281101561334357888601518255948401946001909101908401613324565b50858210156133615787850151600019600388901b60f8161c191681555b5050505050600190811b01905550565b606081526000613385606083018688613241565b6020830194909452506040015292915050565b6001600160a01b03868116825285166020820152604081018490526060810183905260a0608082018190526000906112be908301846128ce565b6000602082840312156133e457600080fd5b815161286881612835565b6001600160a01b0386811682528516602082015260a06040820181905260009061341b90830186612c1d565b828103606084015261342d8186612c1d565b9050828103608084015261344181856128ce565b98975050505050505050565b6040815260006134606040830185612c1d565b82810360208401526134728185612c1d565b9594505050505056fe114e74f6ea3bd819998f78687bfcb11b140da08e9b7d222fa9c1f1ba1f2aa12297667070c54ef182b0f5858b034beac1b6f3089aa2d3188bb1e8929f4fa9b929a26469706673582212209c4d0c61dc1cf91b387190460849af419164e1335bfa254f89b0b5897a1130f864736f6c63430008180033",
  "linkReferences": {},
  "deployedLinkReferences": {}
}