{
  "_format": "hh-sol-artifact-1",
  "contractName": "RBTPrimarySaleRouter",
  "sourceName": "contracts/rbt/RBTPrimarySaleRouter.sol",
  "abi": [
    {
      "inputs": [
        {
          "internalType": "address",
          "name": "admin",
          "type": "address"
        }
      ],
      "stateMutability": "nonpayable",
      "type": "constructor"
    },
    {
      "inputs": [],
      "name": "AccessControlBadConfirmation",
      "type": "error"
    },
    {
      "inputs": [
        {
          "internalType": "address",
          "name": "account",
          "type": "address"
        },
        {
          "internalType": "bytes32",
          "name": "neededRole",
          "type": "bytes32"
        }
      ],
      "name": "AccessControlUnauthorizedAccount",
      "type": "error"
    },
    {
      "inputs": [
        {
          "internalType": "uint256",
          "name": "cost",
          "type": "uint256"
        },
        {
          "internalType": "uint256",
          "name": "maxCost",
          "type": "uint256"
        }
      ],
      "name": "CostExceeded",
      "type": "error"
    },
    {
      "inputs": [],
      "name": "EnforcedPause",
      "type": "error"
    },
    {
      "inputs": [],
      "name": "ExpectedPause",
      "type": "error"
    },
    {
      "inputs": [],
      "name": "InsufficientRemaining",
      "type": "error"
    },
    {
      "inputs": [],
      "name": "InvalidAddress",
      "type": "error"
    },
    {
      "inputs": [],
      "name": "InvalidPrice",
      "type": "error"
    },
    {
      "inputs": [],
      "name": "InvalidUnits",
      "type": "error"
    },
    {
      "inputs": [],
      "name": "NotEnabled",
      "type": "error"
    },
    {
      "inputs": [],
      "name": "NotInSaleTime",
      "type": "error"
    },
    {
      "inputs": [],
      "name": "PaymentTokenNotAllowed",
      "type": "error"
    },
    {
      "inputs": [],
      "name": "ReentrancyGuardReentrantCall",
      "type": "error"
    },
    {
      "inputs": [
        {
          "internalType": "address",
          "name": "token",
          "type": "address"
        }
      ],
      "name": "SafeERC20FailedOperation",
      "type": "error"
    },
    {
      "anonymous": false,
      "inputs": [
        {
          "indexed": true,
          "internalType": "uint256",
          "name": "offeringId",
          "type": "uint256"
        },
        {
          "indexed": true,
          "internalType": "address",
          "name": "asset",
          "type": "address"
        },
        {
          "indexed": true,
          "internalType": "uint256",
          "name": "seriesId",
          "type": "uint256"
        },
        {
          "indexed": false,
          "internalType": "address",
          "name": "paymentToken",
          "type": "address"
        },
        {
          "indexed": false,
          "internalType": "uint256",
          "name": "unitPrice",
          "type": "uint256"
        },
        {
          "indexed": false,
          "internalType": "uint256",
          "name": "remainingUnits",
          "type": "uint256"
        },
        {
          "indexed": false,
          "internalType": "uint64",
          "name": "startAt",
          "type": "uint64"
        },
        {
          "indexed": false,
          "internalType": "uint64",
          "name": "endAt",
          "type": "uint64"
        },
        {
          "indexed": false,
          "internalType": "address",
          "name": "treasury",
          "type": "address"
        },
        {
          "indexed": false,
          "internalType": "bool",
          "name": "enabled",
          "type": "bool"
        }
      ],
      "name": "OfferingUpserted",
      "type": "event"
    },
    {
      "anonymous": false,
      "inputs": [
        {
          "indexed": false,
          "internalType": "address",
          "name": "account",
          "type": "address"
        }
      ],
      "name": "Paused",
      "type": "event"
    },
    {
      "anonymous": false,
      "inputs": [
        {
          "indexed": true,
          "internalType": "address",
          "name": "token",
          "type": "address"
        },
        {
          "indexed": false,
          "internalType": "bool",
          "name": "allowed",
          "type": "bool"
        }
      ],
      "name": "PaymentTokenAllowed",
      "type": "event"
    },
    {
      "anonymous": false,
      "inputs": [
        {
          "indexed": true,
          "internalType": "uint256",
          "name": "offeringId",
          "type": "uint256"
        },
        {
          "indexed": true,
          "internalType": "address",
          "name": "buyer",
          "type": "address"
        },
        {
          "indexed": true,
          "internalType": "address",
          "name": "asset",
          "type": "address"
        },
        {
          "indexed": false,
          "internalType": "uint256",
          "name": "seriesId",
          "type": "uint256"
        },
        {
          "indexed": false,
          "internalType": "address",
          "name": "paymentToken",
          "type": "address"
        },
        {
          "indexed": false,
          "internalType": "uint256",
          "name": "units",
          "type": "uint256"
        },
        {
          "indexed": false,
          "internalType": "uint256",
          "name": "cost",
          "type": "uint256"
        },
        {
          "indexed": false,
          "internalType": "address",
          "name": "treasury",
          "type": "address"
        }
      ],
      "name": "Purchased",
      "type": "event"
    },
    {
      "anonymous": false,
      "inputs": [
        {
          "indexed": true,
          "internalType": "bytes32",
          "name": "role",
          "type": "bytes32"
        },
        {
          "indexed": true,
          "internalType": "bytes32",
          "name": "previousAdminRole",
          "type": "bytes32"
        },
        {
          "indexed": true,
          "internalType": "bytes32",
          "name": "newAdminRole",
          "type": "bytes32"
        }
      ],
      "name": "RoleAdminChanged",
      "type": "event"
    },
    {
      "anonymous": false,
      "inputs": [
        {
          "indexed": true,
          "internalType": "bytes32",
          "name": "role",
          "type": "bytes32"
        },
        {
          "indexed": true,
          "internalType": "address",
          "name": "account",
          "type": "address"
        },
        {
          "indexed": true,
          "internalType": "address",
          "name": "sender",
          "type": "address"
        }
      ],
      "name": "RoleGranted",
      "type": "event"
    },
    {
      "anonymous": false,
      "inputs": [
        {
          "indexed": true,
          "internalType": "bytes32",
          "name": "role",
          "type": "bytes32"
        },
        {
          "indexed": true,
          "internalType": "address",
          "name": "account",
          "type": "address"
        },
        {
          "indexed": true,
          "internalType": "address",
          "name": "sender",
          "type": "address"
        }
      ],
      "name": "RoleRevoked",
      "type": "event"
    },
    {
      "anonymous": false,
      "inputs": [
        {
          "indexed": false,
          "internalType": "address",
          "name": "account",
          "type": "address"
        }
      ],
      "name": "Unpaused",
      "type": "event"
    },
    {
      "inputs": [],
      "name": "DEFAULT_ADMIN_ROLE",
      "outputs": [
        {
          "internalType": "bytes32",
          "name": "",
          "type": "bytes32"
        }
      ],
      "stateMutability": "view",
      "type": "function"
    },
    {
      "inputs": [],
      "name": "PAUSER_ROLE",
      "outputs": [
        {
          "internalType": "bytes32",
          "name": "",
          "type": "bytes32"
        }
      ],
      "stateMutability": "view",
      "type": "function"
    },
    {
      "inputs": [],
      "name": "SALE_MANAGER_ROLE",
      "outputs": [
        {
          "internalType": "bytes32",
          "name": "",
          "type": "bytes32"
        }
      ],
      "stateMutability": "view",
      "type": "function"
    },
    {
      "inputs": [
        {
          "internalType": "uint256",
          "name": "offeringId",
          "type": "uint256"
        },
        {
          "internalType": "uint256",
          "name": "units",
          "type": "uint256"
        },
        {
          "internalType": "uint256",
          "name": "maxCost",
          "type": "uint256"
        }
      ],
      "name": "buy",
      "outputs": [],
      "stateMutability": "nonpayable",
      "type": "function"
    },
    {
      "inputs": [
        {
          "internalType": "bytes32",
          "name": "role",
          "type": "bytes32"
        }
      ],
      "name": "getRoleAdmin",
      "outputs": [
        {
          "internalType": "bytes32",
          "name": "",
          "type": "bytes32"
        }
      ],
      "stateMutability": "view",
      "type": "function"
    },
    {
      "inputs": [
        {
          "internalType": "bytes32",
          "name": "role",
          "type": "bytes32"
        },
        {
          "internalType": "address",
          "name": "account",
          "type": "address"
        }
      ],
      "name": "grantRole",
      "outputs": [],
      "stateMutability": "nonpayable",
      "type": "function"
    },
    {
      "inputs": [
        {
          "internalType": "bytes32",
          "name": "role",
          "type": "bytes32"
        },
        {
          "internalType": "address",
          "name": "account",
          "type": "address"
        }
      ],
      "name": "hasRole",
      "outputs": [
        {
          "internalType": "bool",
          "name": "",
          "type": "bool"
        }
      ],
      "stateMutability": "view",
      "type": "function"
    },
    {
      "inputs": [
        {
          "internalType": "uint256",
          "name": "",
          "type": "uint256"
        }
      ],
      "name": "offerings",
      "outputs": [
        {
          "internalType": "address",
          "name": "asset",
          "type": "address"
        },
        {
          "internalType": "uint256",
          "name": "seriesId",
          "type": "uint256"
        },
        {
          "internalType": "address",
          "name": "paymentToken",
          "type": "address"
        },
        {
          "internalType": "uint256",
          "name": "unitPrice",
          "type": "uint256"
        },
        {
          "internalType": "uint256",
          "name": "remainingUnits",
          "type": "uint256"
        },
        {
          "internalType": "uint64",
          "name": "startAt",
          "type": "uint64"
        },
        {
          "internalType": "uint64",
          "name": "endAt",
          "type": "uint64"
        },
        {
          "internalType": "address",
          "name": "treasury",
          "type": "address"
        },
        {
          "internalType": "bool",
          "name": "enabled",
          "type": "bool"
        }
      ],
      "stateMutability": "view",
      "type": "function"
    },
    {
      "inputs": [],
      "name": "pause",
      "outputs": [],
      "stateMutability": "nonpayable",
      "type": "function"
    },
    {
      "inputs": [],
      "name": "paused",
      "outputs": [
        {
          "internalType": "bool",
          "name": "",
          "type": "bool"
        }
      ],
      "stateMutability": "view",
      "type": "function"
    },
    {
      "inputs": [
        {
          "internalType": "address",
          "name": "",
          "type": "address"
        }
      ],
      "name": "paymentTokenAllowed",
      "outputs": [
        {
          "internalType": "bool",
          "name": "",
          "type": "bool"
        }
      ],
      "stateMutability": "view",
      "type": "function"
    },
    {
      "inputs": [
        {
          "internalType": "bytes32",
          "name": "role",
          "type": "bytes32"
        },
        {
          "internalType": "address",
          "name": "callerConfirmation",
          "type": "address"
        }
      ],
      "name": "renounceRole",
      "outputs": [],
      "stateMutability": "nonpayable",
      "type": "function"
    },
    {
      "inputs": [
        {
          "internalType": "address",
          "name": "token",
          "type": "address"
        },
        {
          "internalType": "address",
          "name": "to",
          "type": "address"
        },
        {
          "internalType": "uint256",
          "name": "amount",
          "type": "uint256"
        }
      ],
      "name": "rescueERC20",
      "outputs": [],
      "stateMutability": "nonpayable",
      "type": "function"
    },
    {
      "inputs": [
        {
          "internalType": "bytes32",
          "name": "role",
          "type": "bytes32"
        },
        {
          "internalType": "address",
          "name": "account",
          "type": "address"
        }
      ],
      "name": "revokeRole",
      "outputs": [],
      "stateMutability": "nonpayable",
      "type": "function"
    },
    {
      "inputs": [
        {
          "internalType": "address",
          "name": "token",
          "type": "address"
        },
        {
          "internalType": "bool",
          "name": "allowed",
          "type": "bool"
        }
      ],
      "name": "setPaymentTokenAllowed",
      "outputs": [],
      "stateMutability": "nonpayable",
      "type": "function"
    },
    {
      "inputs": [
        {
          "internalType": "bytes4",
          "name": "interfaceId",
          "type": "bytes4"
        }
      ],
      "name": "supportsInterface",
      "outputs": [
        {
          "internalType": "bool",
          "name": "",
          "type": "bool"
        }
      ],
      "stateMutability": "view",
      "type": "function"
    },
    {
      "inputs": [],
      "name": "unpause",
      "outputs": [],
      "stateMutability": "nonpayable",
      "type": "function"
    },
    {
      "inputs": [
        {
          "internalType": "uint256",
          "name": "offeringId",
          "type": "uint256"
        },
        {
          "internalType": "address",
          "name": "asset",
          "type": "address"
        },
        {
          "internalType": "uint256",
          "name": "seriesId",
          "type": "uint256"
        },
        {
          "internalType": "address",
          "name": "paymentToken",
          "type": "address"
        },
        {
          "internalType": "uint256",
          "name": "unitPrice",
          "type": "uint256"
        },
        {
          "internalType": "uint256",
          "name": "remainingUnits",
          "type": "uint256"
        },
        {
          "internalType": "uint64",
          "name": "startAt",
          "type": "uint64"
        },
        {
          "internalType": "uint64",
          "name": "endAt",
          "type": "uint64"
        },
        {
          "internalType": "address",
          "name": "treasury",
          "type": "address"
        },
        {
          "internalType": "bool",
          "name": "enabled",
          "type": "bool"
        }
      ],
      "name": "upsertOffering",
      "outputs": [],
      "stateMutability": "nonpayable",
      "type": "function"
    }
  ],
  "bytecode": "0x60806040523480156200001157600080fd5b506040516200134a3803806200134a83398101604081905262000034916200017f565b60016002556001600160a01b038116620000615760405163e6c4247b60e01b815260040160405180910390fd5b6200006e600082620000d0565b506200009b7f988301af8238f779281a300de031815cd01b48e9f1ae47a0f91ed6584213624a82620000d0565b50620000c87f65d7a28e3265b37a6474929f336521b332c1681b933f6cb9f3376673440d862a82620000d0565b5050620001b1565b6000828152602081815260408083206001600160a01b038516845290915281205460ff1662000175576000838152602081815260408083206001600160a01b03861684529091529020805460ff191660011790556200012c3390565b6001600160a01b0316826001600160a01b0316847f2f8788117e7eff1d82e926ec794901d17c78024a50270940304540a733656f0d60405160405180910390a450600162000179565b5060005b92915050565b6000602082840312156200019257600080fd5b81516001600160a01b0381168114620001aa57600080fd5b9392505050565b61118980620001c16000396000f3fe608060405234801561001057600080fd5b50600436106101165760003560e01c80635c975abb116100a2578063b2118a8d11610071578063b2118a8d14610242578063c9b021fc14610255578063d547741f14610268578063e34fec1d1461027b578063e63ab1e91461035957600080fd5b80635c975abb146102145780638456cb591461021f57806391d1485414610227578063a217fddf1461023a57600080fd5b80632f2ff15d116100e95780632f2ff15d146101ac57806336568abe146101bf5780633f4ba83a146101d257806340993b26146101da578063551b42a8146101ed57600080fd5b806301ffc9a71461011b57806306d49f9214610143578063248a9ca3146101665780632833609814610197575b600080fd5b61012e610129366004610f0f565b610380565b60405190151581526020015b60405180910390f35b61012e610151366004610f5c565b60046020526000908152604090205460ff1681565b610189610174366004610f77565b60009081526020819052604090206001015490565b60405190815260200161013a565b6101aa6101a5366004610fa0565b6103b7565b005b6101aa6101ba366004610fd3565b610449565b6101aa6101cd366004610fd3565b610474565b6101aa6104ac565b6101aa6101e8366004610ff6565b6104e1565b6101897f988301af8238f779281a300de031815cd01b48e9f1ae47a0f91ed6584213624a81565b60015460ff1661012e565b6101aa61078d565b61012e610235366004610fd3565b6107bf565b610189600081565b6101aa610250366004611022565b6107e8565b6101aa610263366004611075565b610842565b6101aa610276366004610fd3565b610b9f565b6102f6610289366004610f77565b600360208190526000918252604090912080546001820154600283015493830154600484015460058501546006909501546001600160a01b0394851696939593851694929391926001600160401b0380841693600160401b9004169190811690600160a01b900460ff1689565b604080516001600160a01b039a8b168152602081019990995296891696880196909652606087019490945260808601929092526001600160401b0390811660a08601521660c084015290921660e08201529015156101008201526101200161013a565b6101897f65d7a28e3265b37a6474929f336521b332c1681b933f6cb9f3376673440d862a81565b60006001600160e01b03198216637965db0b60e01b14806103b157506301ffc9a760e01b6001600160e01b03198316145b92915050565b60006103c281610bc4565b6001600160a01b0383166103e95760405163e6c4247b60e01b815260040160405180910390fd5b6001600160a01b038316600081815260046020908152604091829020805460ff191686151590811790915591519182527f44fd9e401d43b510a520ef2a3cee9de208a5ee753db6e62ed7b96714290e81e0910160405180910390a2505050565b60008281526020819052604090206001015461046481610bc4565b61046e8383610bce565b50505050565b6001600160a01b038116331461049d5760405163334bd91960e11b815260040160405180910390fd5b6104a78282610c60565b505050565b7f65d7a28e3265b37a6474929f336521b332c1681b933f6cb9f3376673440d862a6104d681610bc4565b6104de610ccb565b50565b6104e9610d1d565b6104f1610d45565b8160000361051257604051630e433c2360e31b815260040160405180910390fd5b60008381526003602052604090206006810154600160a01b900460ff1661054c57604051633f54562b60e11b815260040160405180910390fd5b600581015442906001600160401b03161580159061057a575060058201546001600160401b03908116908216105b156105985760405163c867bfaf60e01b815260040160405180910390fd5b6005820154600160401b90046001600160401b0316158015906105d2575060058201546001600160401b03600160401b9091048116908216115b156105f05760405163c867bfaf60e01b815260040160405180910390fd5b60048201541561063957838260040154101561061f576040516304fce4c160e21b815260040160405180910390fd5b838260040160008282546106339190611129565b90915550505b600082600301548561064b919061113c565b90508381111561067d5760405163571797b560e11b815260048101829052602481018590526044015b60405180910390fd5b600683015460028401546106a0916001600160a01b039182169133911684610d6b565b82546001840154604051630ffea21360e21b81526004810191909152336024820152604481018790526001600160a01b0390911690633ffa884c90606401600060405180830381600087803b1580156106f857600080fd5b505af115801561070c573d6000803e3d6000fd5b50508454600186015460028701546006880154604080519384526001600160a01b03928316602085015283018b90526060830187905281166080830152909116925033915088907f0930fad8af148338b1561aa864adab39f5bebacaf13eba536e2dfd4c342bb6879060a00160405180910390a45050506104a76001600255565b7f65d7a28e3265b37a6474929f336521b332c1681b933f6cb9f3376673440d862a6107b781610bc4565b6104de610dd2565b6000918252602082815260408084206001600160a01b0393909316845291905290205460ff1690565b60006107f381610bc4565b6001600160a01b038416158061081057506001600160a01b038316155b1561082e5760405163e6c4247b60e01b815260040160405180910390fd5b61046e6001600160a01b0385168484610e0d565b7f988301af8238f779281a300de031815cd01b48e9f1ae47a0f91ed6584213624a61086c81610bc4565b6001600160a01b038a16158061088957506001600160a01b038316155b8061089b57506001600160a01b038816155b156108b95760405163e6c4247b60e01b815260040160405180910390fd5b6001600160a01b03881660009081526004602052604090205460ff166108f257604051633177657b60e21b815260040160405180910390fd5b866000036109125760405162bfc92160e01b815260040160405180910390fd5b6001600160401b0384161580159061093b5750846001600160401b0316846001600160401b0316105b156109595760405163c867bfaf60e01b815260040160405180910390fd5b6040518061012001604052808b6001600160a01b031681526020018a8152602001896001600160a01b03168152602001888152602001878152602001866001600160401b03168152602001856001600160401b03168152602001846001600160a01b03168152602001831515815250600360008d815260200190815260200160002060008201518160000160006101000a8154816001600160a01b0302191690836001600160a01b031602179055506020820151816001015560408201518160020160006101000a8154816001600160a01b0302191690836001600160a01b03160217905550606082015181600301556080820151816004015560a08201518160050160006101000a8154816001600160401b0302191690836001600160401b0316021790555060c08201518160050160086101000a8154816001600160401b0302191690836001600160401b0316021790555060e08201518160060160006101000a8154816001600160a01b0302191690836001600160a01b031602179055506101008201518160060160146101000a81548160ff021916908315150217905550905050888a6001600160a01b03168c7faba0d4b074cb9fd7d037eb955c80838b9286843eb112b10e6740f6105931a4468b8b8b8b8b8b8b604051610b8a97969594939291906001600160a01b039788168152602081019690965260408601949094526001600160401b0392831660608601529116608084015290921660a082015290151560c082015260e00190565b60405180910390a45050505050505050505050565b600082815260208190526040902060010154610bba81610bc4565b61046e8383610c60565b6104de8133610e3e565b6000610bda83836107bf565b610c58576000838152602081815260408083206001600160a01b03861684529091529020805460ff19166001179055610c103390565b6001600160a01b0316826001600160a01b0316847f2f8788117e7eff1d82e926ec794901d17c78024a50270940304540a733656f0d60405160405180910390a45060016103b1565b5060006103b1565b6000610c6c83836107bf565b15610c58576000838152602081815260408083206001600160a01b0386168085529252808320805460ff1916905551339286917ff6391f5c32d9c69d2a47ea670b442974b53935d1edc7fd64eb21e047a839171b9190a45060016103b1565b610cd3610e7b565b6001805460ff191690557f5db9ee0a495bf2e6ff9c91a7834c1ba4fdd244a5e8aa4e537bd38aeae4b073aa335b6040516001600160a01b03909116815260200160405180910390a1565b6002805403610d3f57604051633ee5aeb560e01b815260040160405180910390fd5b60028055565b60015460ff1615610d695760405163d93c066560e01b815260040160405180910390fd5b565b6040516001600160a01b03848116602483015283811660448301526064820183905261046e9186918216906323b872dd906084015b604051602081830303815290604052915060e01b6020820180516001600160e01b038381831617835250505050610e9e565b610dda610d45565b6001805460ff1916811790557f62e78cea01bee320cd4e420270b5ea74000d11b0c9f74754ebdbfc544b05a25833610d00565b6040516001600160a01b038381166024830152604482018390526104a791859182169063a9059cbb90606401610da0565b610e4882826107bf565b610e775760405163e2517d3f60e01b81526001600160a01b038216600482015260248101839052604401610674565b5050565b60015460ff16610d6957604051638dfc202b60e01b815260040160405180910390fd5b600080602060008451602086016000885af180610ec1576040513d6000823e3d81fd5b50506000513d91508115610ed9578060011415610ee6565b6001600160a01b0384163b155b1561046e57604051635274afe760e01b81526001600160a01b0385166004820152602401610674565b600060208284031215610f2157600080fd5b81356001600160e01b031981168114610f3957600080fd5b9392505050565b80356001600160a01b0381168114610f5757600080fd5b919050565b600060208284031215610f6e57600080fd5b610f3982610f40565b600060208284031215610f8957600080fd5b5035919050565b80358015158114610f5757600080fd5b60008060408385031215610fb357600080fd5b610fbc83610f40565b9150610fca60208401610f90565b90509250929050565b60008060408385031215610fe657600080fd5b82359150610fca60208401610f40565b60008060006060848603121561100b57600080fd5b505081359360208301359350604090920135919050565b60008060006060848603121561103757600080fd5b61104084610f40565b925061104e60208501610f40565b9150604084013590509250925092565b80356001600160401b0381168114610f5757600080fd5b6000806000806000806000806000806101408b8d03121561109557600080fd5b8a3599506110a560208c01610f40565b985060408b013597506110ba60608c01610f40565b965060808b0135955060a08b013594506110d660c08c0161105e565b93506110e460e08c0161105e565b92506110f36101008c01610f40565b91506111026101208c01610f90565b90509295989b9194979a5092959850565b634e487b7160e01b600052601160045260246000fd5b818103818111156103b1576103b1611113565b80820281158282048414176103b1576103b161111356fea2646970667358221220447b5015fb958448d3be42d7cfb80901e917a0372a2af85b2ee98a822db5335b64736f6c63430008180033",
  "linkReferences": {},
  "deployedLinkReferences": {}
}